:020000040800F2
:10000000602500209502000835320008DD2B00082D
:10001000313200084D05000835400008000000009E
:100020000000000000000000000000001D3C00086F
:100030001D07000800000000193C0008213C0008D2
:10004000AF020008AF020008AF020008AF020008CC
:10005000AF020008AF020008AF020008AF020008BC
:10006000AF020008AF020008AF020008AF020008AC
:10007000AF020008AF020008AF020008AF0200089C
:10008000AF020008AF020008AF02000871060008C6
:100090004D0600085906000865060008AF02000872
:1000A000AF020008AF020008AF020008AF0200086C
:1000B000E13C0008AF020008AF020008AF020008F0
:1000C000AF020008AF020008AF020008AF0200084C
:1000D000AF0200081D40000829400008AF020008D8
:1000E000AF020008AF020008AF020008AF0200082C
:1000F000AF020008AF020008AF020008AF0200081C
:10010000AF020008AF020008AF020008AF0200080B
:10011000213E0008AF020008AF020008AF0200084D
:10012000AF020008AF020008AF020008AF020008EB
:10013000AF020008AF020008AF020008C9060008BD
:10014000BD060008AF020008AF020008AF020008B9
:10015000AF020008AF020008AF020008AF020008BB
:10016000AF020008AF020008AF020008AF020008AB
:10017000AF020008AF020008AF0200080000000054
:10018000AF020008AF02000800F002F800F072F8B9
:1001900014A696E8000CB244B344DA4501D100F04D
:1001A00069F8BAE80F000FA696E83000A5EB040541
:1001B00004EB0607AAEB0704A7F101074FEA1515A0
:1001C0004FEA3414A4F10104AC4201D300F052F818
:1001D00013F0010F18BFFB1A43F0010300F001F800
:1001E000DBE71847AC710000CC7100000A444FF007
:1001F000000C10F8013B13F0070408BF10F8014B86
:100200001D1108BF10F8015B641E05D010F8016BCA
:10021000641E01F8016BF9D113F0080F1EBF10F82E
:10022000014BAD1C0C1B09D16D1E58BF01F801CB51
:10023000FAD505E014F8016B01F8016B6D1EF9D5D4
:100240009142D6D37047000070470000002300247D
:1002500000250026103A28BF78C1FBD8520728BFD6
:1002600030C148BF0B6070471FB506F064FF1FBD6B
:1002700010B510BD00F034F91146FFF7F5FF04F09A
:1002800081FD00F052F903B4FFF7F2FF03BC00F068
:1002900055F900000948804709480047FEE7FEE796
:1002A000FEE7FEE7FEE7FEE7FEE7FEE7FEE7FEE726
:1002B00004480549054A064B70470000CD3C00083C
:1002C00089010008601F00206025002060210020B7
:1002D0006021002053EA020C00F069802DE9F04B08
:1002E0004FF00006002B1FBFB3FA83F503FA05F4A5
:1002F00024FA05F65E4012BF1643B2FA82F502FAFE
:1003000005F4C5F120051EBF22FA05FC44EA0C04E1
:10031000203556EA044C4FEA144418BF641C4FF0D1
:1003200000084FF00009904271EB030C39D300290B
:1003300019BFB1FA81F701FA07F6B0FA80F700FAAF
:1003400007F6C7F120071EBF20FA07FC46EA0C0695
:100350002037B6FBF4FCA7EB0507103F07F01F0B97
:10036000CBF120062CFA06F60CFA0BFB44BFB34681
:100370000026202FA4BF5E464FF0000B5BEA060C60
:1003800008BF4FF0010B19EB0B0948EB0608ABFB5C
:10039000027C06FB02CC0BFB03CCC01B71EB0C01F7
:1003A000C1E70B46024641464846BDE8F08B13B50F
:1003B000084318BF4FF0FF300146AFF30080BDE89F
:1003C0001C407047032A40F2308010F0030C00F00C
:1003D000158011F8013BBCF1020F624498BF11F87F
:1003E00001CB00F8013B38BF11F8013BA2F1040238
:1003F00098BF00F801CB38BF00F8013B11F00303B0
:1004000000F03380083AC0F0088051F8043B083A05
:1004100051F804CBA0E80810F5E7121D5CBF51F8B5
:10042000043B40F8043BAFF30080D20724BF11F82F
:10043000013B11F801CB48BF11F8012B24BF00F894
:10044000013B00F801CB48BF00F8012B7047704713
:100450007047704710B500F03BF8006810BD10B54C
:10046000044600F035F8046010BD10B5203AC0F025
:100470000B80B1E81850A0E81850B1E81850A0E877
:100480001850203ABFF4F5AF5FEA027C24BFB1E810
:100490001850A0E8185044BF18C918C0BDE8104053
:1004A0005FEA827C24BF51F8043B40F8043B08BF5C
:1004B0007047D20728BF31F8023B48BF11F8012B23
:1004C00028BF20F8023B48BF00F8012B704700000E
:1004D00000487047700100200048704770010020FC
:1004E0007546FFF7F9FFAE4605006946534620F012
:1004F0000700854618B020B5FFF7DAFEBDE82040BA
:100500004FF000064FF000074FF000084FF0000BCF
:10051000AC46ACE8C009ACE8C009ACE8C009ACE83E
:10052000C00921F007018D46704710B50446AFF3AE
:1005300000802046BDE81040FFF7A5BE0149182005
:10054000ABBEFEE72600020070470000FEE7000099
:1005500010B582B040F2BC4CC2F2000C4FF4007EE9
:10056000CCF800E04FF0000ECCE902EE40F2B44EC1
:100570000824C2F2000ECCF81040040A8EF80100E4
:10058000080A8EF80200100A8EF80400180A8EF885
:10059000060040F258508EF803108EF805208EF8B1
:1005A0000730C2F2000001AB614672468EF800408F
:1005B00000F0CEF802B010BD10B582B040F2BC4CD5
:1005C000C2F2000C40F2FF1ECCF800E04FF0000E2B
:1005D000CCE902EE40F2B44E0824C2F2000ECCF890
:1005E0001040040A8EF80100080A8EF80200100A72
:1005F0008EF80400180A8EF8060040F258508EF863
:1006000003108EF805208EF80730C2F2000001AB0F
:10061000614672468EF8004000F09AF802B010BDB4
:1006200080B58AB0012000210890CDE9061040F283
:100630005850CDE90011CDE90211CDE90411C2F203
:100640000000694600F0D0F80AB080BD40F2585072
:10065000C2F2000000F0DCB940F25850C2F20000D3
:1006600000F0D6B940F25850C2F2000000F0D0B904
:1006700040F25850C2F2000000F0CAB910B58AB07A
:100680000120002140F280540890CDE906100E2090
:10069000C2F20004CDE90011CDE902110990CDE9C3
:1006A00004106946204600F09FF8204600F028FD1F
:1006B0002046022100F038F80AB010BD40F2805008
:1006C000C2F2000000F0A4B940F28050C2F2000073
:1006D00000F09EB910B5044600F012FD204602213C
:1006E00000F022F8002808BF10BDBDE8104000F05F
:1006F00017B800004EF6FC50CEF20000016841F041
:100700008071016041F20000CEF2000000214160E2
:10071000016841F00101016070470000704700006E
:1007200072B600BFFEE7000090F82020013A012ACF
:1007300004D8006800F11402002004E000F1240253
:1007400001204FF4802113681943116070470000A5
:1007500010B590F820E0D0F800C0AEF1010EBEF167
:10076000010FDCF808E010D81EF0E05F13D0CEF3E4
:10077000016E012000FA0EF018608B688BB148689A
:10078000CC6844EAC00003430FE000F124010120DB
:100790004FF4802223E000F1240101204FF40012E5
:1007A0001DE00868CB6843EA40530CEB0E10C0F81C
:1007B00080310B69C0F88431097D012905D100F52C
:1007C000C2710B6843F480730B605168C0F88C11E0
:1007D000126800F5C071C0F88821002001220B6862
:1007E0001A430A6010BD000090F82020013A012A47
:1007F00030D8B0B546F20060C4F20000026842F0A2
:1008000001020260026822F47C520260D1F814E016
:10081000CC694A6A0368012C43EA022202600EF0A6
:100820001F024FF0010303FA02F2C3696FEA020CE0
:1008300023EA0203C36113D02CBBC36803EA0C0391
:10084000C360CB688C8844EA034300EBCE04236486
:100850000B4611E0416A41F480214162012070475A
:10086000C3681343C3600B688C8844EA034300EBFE
:10087000CE04236401F10C038C681B8843EA044313
:1008800000EBCE04636443688D6943EA0204D1F847
:1008900010E0096A002D08BF03EA0C0444604369B4
:1008A000BEF1000F43EA020408BF03EA0C04012969
:1008B000446102D1C1691143C161016821F00101A4
:1008C00001600020B0BD00007047000010B590F836
:1008D0002040013C012C77D8D0F800C000290CBF83
:1008E000DCF80C40DCF81040A40773D00CEB011CC2
:1008F000DCF8B0410CF5D87E14F004049460DCF808
:10090000B04119BFE4085460640D1460DEF8004083
:100910000CF5DA7E04F00204D460DCF8B44124075C
:100920005ABFDEF8004004F00F0408241461DEF81A
:1009300000400029C4F307249461DEF800404FEA28
:1009400014445461DCF8B8211A70026802EB0112F9
:10095000D2F8B8214FEA12225A70026802EB011253
:10096000D2F8B8214FEA12429A70026802EB0112E3
:10097000D2F8B8214FEA1262DA70026802EB011273
:10098000D2F8BC211A71026802EB0112D2F8BC2124
:100990004FEA12225A71026802EB0112D2F8BC210E
:1009A0004FEA12429A71026802EB0112D2F8BC219E
:1009B0004FEA1262DA7100680CBF00F10C0100F11D
:1009C0001001002020220AE000F1240101204FF450
:1009D000802204E000F1240101204FF400120B6892
:1009E0001A430A6010BD000090F820100139012957
:1009F00084BF002070470068816882688068C1F306
:100A00008061C2F3C0621144C0F3007008447047B3
:100A10002DE9F04F81B0044600684669D0F8049093
:100A20008768D0F80CB0D0F810A0D0F81880F10783
:100A300003D1002530071CD423E0F90710D0012191
:100A4000BA07816009D4780700F1AA80380700F15D
:100A5000B080204600F082FB02E0204600F080FBE0
:100A60000025F80500F18480F80300F1AA80300722
:100A700007D51BF0100004D0206845F40075102144
:100A8000C160700708D51BF0080005D02068082158
:100A9000C160204600F00CFAB00706D52068C06897
:100AA000800702D0204600F005FA700607D51AF03C
:100AB000100004D0206845F4806510210161B00663
:100AC00008D51AF0080005D02068082101612046E9
:100AD00000F010FBF00606D520680069800702D000
:100AE000204600F009FBB00308D519F0100005D02E
:100AF000206810214160204600F000FBF00308D57B
:100B000019F0080005D0206808214160204600F057
:100B100031FB300440F18F805FEA497040F18880FA
:100B200006F4807008EA102028435FEA88710146C5
:100B300048BF41F00201B20558BF01465FEA487064
:100B40000D4648BF45F00405700558BF0D463005F9
:100B50006ED518F070006BD010380009052862D8E7
:100B6000DFE800F0035356595C5F45F008055AE092
:100B700020684FF48071BA0581600AD4780512D4D8
:100B8000380519D4204600F0EDFAF8037FF56FAF71
:100B900017E0204600F0E8FAF8037FF568AF10E0B0
:100BA0004FF400655DE705F50055F8037FF55FAF8D
:100BB00007E04FF4805554E705F58045F8037FF5CD
:100BC00056AF20684FF48031BA0381600AD47803AD
:100BD0000FD4380313D4204600F0C8FA30073FF58D
:100BE00048AF4EE7204600F0C3FA30073FF541AF6B
:100BF00047E705F5004530073FF53BAF41E705F511
:100C0000803530073FF535AF3BE745F010050AE08A
:100C100045F0200507E045F0400504E045F080057B
:100C200001E045F480752068816921F070018161DF
:100C30002068042141604DB1606A40EA0501204608
:100C4000616201B0BDE8F04FFFF73EBE01B0BDE804
:100C5000F08F0000002804BF01207047B0B50446A3
:100C600090F8200010B9204600F06EF82068016866
:100C700041F00101016000F0B5FB054620684168C4
:100C8000C90705D100F0AEFB401B0B28F6D310E0DE
:100C9000016821F00201016000F0A4FB054600BFDD
:100CA0002068416889070DD500F09CFB401B0B288C
:100CB000F6D3606A052140F400306062012084F8B8
:100CC0002010B0BD217E0268012922F0800208BFF9
:100CD00080320260617E0268012922F0400208BF72
:100CE00040320260A17E0268012922F0200208BF82
:100CF00020320260E17E0268012922F0100218BF52
:100D000010320260217F0268012922F0080208BF28
:100D100008320260617F0268012922F0040208BFE4
:100D200004320260D4E901C2D4E9033561691A438F
:100D30002A431143ACF101021143C161002001219A
:100D4000606284F82010B0BDB0B586B0006846F689
:100D50000002C4F2000200219042CDE90411CDE965
:100D6000021101914ED046F20041C4F200018842C6
:100D700040F09B8040F2E811C2F200010A6843F69D
:100D80004000C4F20200531C0B6052B900210091D4
:100D9000016841F000710160016801F0007100918B
:100DA00000990021009150F8102C42F0010240F807
:100DB000102C50F8100C00F00100009000984FF437
:100DC000C05001900220CDE90201032004900920C7
:100DD00005900020C4F2020001A900F033FA1320AC
:100DE0000021002200F084FB132000F06FFB142090
:100DF0000021002200F07CFB142000F067FB162489
:100E0000152542E043F64000C4F20200009101685B
:100E100041F080610160016801F0806100910099FA
:100E200040F2E811C2F200010A68531C0B6052B98B
:100E300000210091016841F000710160016801F03A
:100E40000071009100990021009150F8102C42F09F
:100E5000020240F8102C50F8100C00F00200009034
:100E600000984FF4405001900220CDE90201032088
:100E70000490092005900020C4F2020000F5806073
:100E800001A900F0DFF940243F2528460021002277
:100E900000F02EFB284600F019FB2046002100221E
:100EA00000F026FB204600F011FB06B0B0BD0000AC
:100EB000704700002DE9F04198B00446006846F6FE
:100EC0000001C4F2000188422AD046F20041C4F277
:100ED0000001884240F0D98011AA08AB20460021C9
:100EE000FFF7F4FC1198A0F20121062900F2CD8051
:100EF0000138C0B240F2D061C0EBC000C2F20001C4
:100F000001EB800081694A1C3229826156D8BDF804
:100F1000201009BA090C0180818218B0BDE8F08167
:100F200011AA0FAB20460021FFF7D0FC139804282C
:100F300028D0002840F0A9801198A0F201210729AB
:100F400080F0A6800138C0B240F2B07CC0EBC00295
:100F5000C2F2000C0CEB820081694B1C32298361C8
:100F60004AD8BDF83C10BDF83E30BDF8404009BA43
:100F7000090C9DF842E01BBA24BA81821B0C240C98
:100F80000D4698E008AA0FAB204600210024FFF789
:100F90009DFC099840F2F017C0F3046540F2583602
:100FA000112DC2F20007C2F200064CD0022D4FD024
:100FB000002D04BFC0F30F20F06260E0BDF8227086
:100FC000BDF820103FBA3F0C4780BDF82470B0F93F
:100FD00000203FBA0BBA3F0C87809DF82660C2EB19
:100FE0001347190CB7F5805F0281018086711DDD02
:100FF0000269013A026121E0BDF83C103CF922404F
:10100000BDF83E30BDF840700DBA1BBA3EBA9DF82F
:1010100042E0C4EB1547290C1B0CB7F5805F4FEA83
:1010200016443BDD05696E1E06613FE0034653F83A
:10103000102F17F5805FBCBF01321A60838A01EB65
:101040004231C91A52E0C0B2F062C6F84A4016E016
:101050000DF10408019006A9404601F061FF9DF8DA
:101060000500414600EB800007EBC00404F11300CB
:101070001422FFF7A7F99DF8060080096071D7F8E0
:101080006700C6F81D50C6F80E0018B0BDE8F08124
:1010900040F2FF1188423FF455AFF6E7054655F898
:1010A000106F17F5805FBCBF01362E60858A01EB9B
:1010B0004636761BC6602CF822100AB28F1AB7F596
:1010C000805F01814380848080F806E003DD02694F
:1010D000013A026107E0034653F8102F17F5805FCD
:1010E000BCBF01321A6001EB4231491BC16018B02C
:1010F000BDE8F081704700007047000070470000B5
:10110000B0B5044690F8200001281DD1022084F8D3
:1011100020002068016821F00101016000F062F9FF
:10112000054600BF20684068C00713D000F05AF998
:10113000401B0B28F6D3606A40F400306062052043
:1011400084F820000120B0BD606A40F40020606295
:101150000120B0BD00206062B0BD000070470000FB
:1011600070470000704700007047000070470000A3
:10117000704700007047000070B5866D044600F0AF
:1011800031F994F83510022925D105462068216CE3
:10119000026822F016020260426922F08002426177
:1011A00009B9A16C19B1016821F008010160016859
:1011B00021F00101016000BF20680068C0070ED067
:1011C00000F010F9401B0628F6D3202060650320AC
:1011D00084F835000CE080206065012008E0E06DB7
:1011E0003F2101FA00F0B060012084F835000020B2
:1011F000002184F8341070BD90F83510022909D10F
:10120000052180F835100068016821F001010160B6
:10121000002070478021416501207047B0B5044629
:1012200000F0E0F8054640F26410C2F200000078D9
:10123000611C18BF044400BF00F0D4F8401BA0425A
:10124000FAD3B0BD2DE9F04F82B000F13E4707F16F
:10125000FF77860546EA972741F60046C4F2020664
:10126000082243F6004EB04208BF0722C4F2010E26
:10127000072F38BF3A46002600274FF0000800929B
:1012800009E000BF08F101080237B8F1100F06F1BC
:10129000040600F0A3800D68012202FA08F415EAA2
:1012A0000409EFD0D1F804B003220BF0030CACF129
:1012B0000105BA40012D6FEA020A0FD88268CD6895
:1012C00002EA0A02BD402A4382604268A243CBF38D
:1012D000001404FA08F42243426005E0BCF1030F55
:1012E00002D14FF0030C1EE0C2688C6802EA0A02C9
:1012F000BC402243BCF1020FC26014D16FF0030264
:1013000002EA58020244D2F820C006F01C040F235F
:101310000D69A3402CEA0303A5402B431362D1F8C7
:1013200004B00BF0030C02680CFA07F302EA0A029D
:101330001A431BF4403F0260A4D0002243F644034A
:101340000192C4F202031A684FF6084C42F480423C
:101350001A601A68CFF6FF7C02F480420192019A6B
:1013600028F00302724452F80C3006F00C050F24EA
:10137000AC40A343009C04FA05F52B4342F80C3023
:10138000DEF808204B6842EA090543F60C4CDC0203
:1013900058BF22EA0905CEF80850C4F2010CDCF867
:1013A00000209C0242EA090558BF22EA0905CCF850
:1013B0000050DEF804209C0342EA090558BF22EAE7
:1013C0000905CEF80450DEF80020DB0342EA0905E7
:1013D00058BF22EA0905CEF8005053E702B0BDE835
:1013E000F08F000041F69060C2F200000068704784
:1013F00040F2641041F69061C2F20000C2F20001B6
:1014000000780A68104408607047000080B543F611
:101410000040C4F20200016841F4007101600168FB
:1014200041F480610160016841F480710160032032
:1014300000F08AF80F2000F005F800F02BF80020EB
:1014400080BD0000B0B540F26412C2F2000240F26A
:1014500004011278C2F200014FF47A730968B3FBF9
:10146000F2F20446B1FBF2F1084600F045FB0F2C06
:101470004FF001050CD858B94FF0FF30214600223B
:10148000002500F035F840F26810C2F20000046058
:101490002846B0BD82B0002043F640010190C4F25E
:1014A00002014A6842F480424A604A6802F480427B
:1014B0000192019A0090086840F080500860086826
:1014C00000F080500090009802B07047002848BF9C
:1014D000704700F01F01012202FA01F11C2202EA0A
:1014E000D0004EF20012CEF2000281507047000090
:1014F00010B54EF60C5CCEF2000CDCF80030C3F3F5
:10150000022E8EF00704042C28BF0424BEF103032E
:101510004FF0FF3E0EFA04F438BF0023A143994078
:101520000EFA03F39A43114300F00F0200F16043F7
:101530000901043A03F564436244002848BF02F1FC
:101540000C03197010BD00004EF60C51CEF20001D4
:101550000A684FF6FF031A4060F30A2242F08060E7
:1015600040F0FD7008607047002804BF01207047FC
:101570002DE9F04143F60808C4F202080446D8F801
:10158000F8030D4600F00700884207D288F8F853A8
:10159000D8F8F80300F00700A84276D12068810748
:1015A00017D5410705D5D8F8001041F4E051C8F827
:1015B0000010010705D5D8F8001041F46041C8F8C3
:1015C0000010D8F80010A26821F0F0011143C8F80B
:1015D0000010C0073FD1D8F8F80300F00700A84278
:1015E00007D988F8F853D8F8F80300F00700A842A4
:1015F0004BD12068410707D5D8F80010E26821F4E4
:10160000E0511143C8F80010000708D5D8F80000D1
:10161000216920F4604040EAC100C8F8000000F0F1
:101620007BF8D8F8001047F27832C1F30311C0F606
:101630000002515C40F2040220FA01F140F268100D
:10164000C2F200000068C2F200021160FFF7FAFE69
:101650000020BDE8F0816068811E022907D258F899
:10166000081C89015CBF0120BDE8F08110E0012861
:1016700007D158F8081C89035CBF0120BDE8F08140
:1016800006E058F8081C890702D40120BDE8F08163
:10169000D8F8001021F003010843C8F80000FFF754
:1016A000A1FE064641F28837D8F80000616800F0D4
:1016B0000C00B0EB810F8ED0FFF794FE801BB84278
:1016C000F2D90320BDE8F08140F2040043F608019E
:1016D000C2F20000C4F202010068096847F28832D1
:1016E000C1F38221C0F60002515CC840704700007F
:1016F00040F2040043F60801C2F20000C4F2020105
:101700000068096847F28832C1F34231C0F600022E
:10171000515CC8407047000010B543F60404C4F2A1
:101720000204606800F00C0142F200400829C0F297
:10173000F40007D0042918BF10BD41F20020C0F208
:101740007A0010BD216801F03F0221682368490238
:10175000C3F3881105D4A1FB00010023FEF7BAFDF5
:1017600006E041F20020C0F27A004843B0FBF2F0FC
:1017700021680222C1F3014102EB4101B0FBF1F00B
:1017800010BD0000002804BF012070472DE9F04182
:1017900082B00446007843F60006C007C4F2020691
:1017A0000BD0B06800F00C00042878D130688003BA
:1017B00003D56068002800F05181207880071AD591
:1017C000B06810F00C0F08D0B06800F00C000828CA
:1017D00040F07F80706840027BD43068800703D57A
:1017E000E068012840F03A813068216920F0F80073
:1017F00040EAC10030602078000713D42078400709
:1018000027D4A569002D00F02581B06800F00C00F8
:10181000082840F09180012D40F0F980012002B0AD
:10182000BDE8F0816069002840F20000C4F2472062
:1018300072D00121C0F8801EFFF7D4FD054600BF1D
:10184000706F8007DAD4FFF7CDFD401B0228F7D96F
:10185000D9E0306C5FEAC0080AD400200190306CF7
:1018600040F080503064306C00F08050019001985E
:1018700047F20007C4F200073868C0053ED4386854
:1018800040F480703860FFF7ADFD05463868C0054C
:1018900034D4FFF7A7FD401B0228F7D9B3E0B068A6
:1018A00000F00C00082803D1706840023FF57EAFBD
:1018B0006068B0F5803F07D0B0F5A02F40F08D8074
:1018C000306840F480203060306840F48030306010
:1018D0008DE0E068002852D00020C4F247200121AA
:1018E0000160FFF77FFD0546306880073FF57CAF5C
:1018F000FFF778FD401B0228F6D984E0A068012894
:1019000005D0052850D1306F40F004003067306FAB
:1019100040F00100306751E00021C0F8801EFFF761
:1019200061FD0546706F80077FF568AFFFF75AFDD0
:10193000401B0228F6D966E00027C4F247270020A2
:101940003866FFF74FFD022D05460DD13068800146
:1019500040F18880FFF746FD401B02284FF003004E
:10196000F4D902B0BDE8F0813068800172D5FFF78C
:1019700039FD401B02284FF00300F5D9F1E70020A4
:10198000C4F2472000210160FFF72CFD054600BF8F
:10199000306880077FF52FAFFFF724FD401B02283A
:1019A0004FF00300F4D9DCE7316F002821F001018A
:1019B0003167316F21F00401316774D0FFF712FDF8
:1019C000054641F2883700BF306F80077BD4FFF7B0
:1019D00009FD401BB842F7D915E03168002821F411
:1019E00080313160316821F48021316074D0FFF79B
:1019F000F9FC0546306880033FF5DFAEFFF7F2FCE7
:101A0000401B6428F6D9032002B0BDE8F08170685D
:101A1000E16900F480028A4220D1216A00F03F028D
:101A20008A421BD147F6C071626A0140B1EB821F46
:101A300014D1A16A4FF6FF73C903994300F44032F1
:101A4000A1F580318A4209D1E16A00F07060B0EB03
:101A5000016F03D1002002B0BDE8F081012002B087
:101A6000BDE8F08104F11C052FCD084340EA821047
:101A7000D9034FF6FF729143A1F5803140EA05602A
:101A80000843706001203866FFF7ACFC044600BFD5
:101A900030688001DED4FFF7A5FC001B02284FF060
:101AA0000300F5D95DE7FFF79DFC054641F2883755
:101AB000306F800707D5FFF795FC401BB8424FF009
:101AC0000300F5D94DE7B8F1000F3FF59AAE306C41
:101AD00020F08050306494E6FFF784FC054600BF98
:101AE000306880037FF569AEFFF77CFC401B6428FB
:101AF0004FF00300F4D934E7411E0020B0EB116F22
:101B00001CBF012070474EF21002CEF2000251605D
:101B10004EF62351CEF20001F0230B7007219060A6
:101B200011607047704700007047000090F83C203B
:101B3000012A4FF0020252D010B580F83D20026811
:101B4000D2F804E0D2F808C00C682EF070032343EA
:101B500041F2FF74C4F20004A24253600DDC40F273
:101B6000FF73C4F200039A4215DCB2F1804F29D012
:101B700040F20043C4F2000322E040F2FF33C4F21B
:101B800001039A4212DC41F60003C4F200039A42B8
:101B900018D0002312E040F60003C4F200039A427A
:101BA00010D040F60043C4F2000309E044F2000301
:101BB000C4F201039A4205D040F20043C4F201038B
:101BC0009A4204D149682CF08003194391600121A5
:101BD000002280F83D1080F83C20BDE810401046FF
:101BE00070470000002804BF0120704710B504466C
:101BF00090F83D0028B9002084F83C00204600F011
:101C00001FF8022084F83D002068211D02F06EF8C4
:101C1000012084F8460084F83E0084F83F0084F8F0
:101C2000400084F8410084F8420084F8430084F8BE
:101C3000440084F8450084F83D00002010BD0000F9
:101C40000068B0F1804F18BF704780B582B00020A7
:101C5000019043F64000C4F202000168002241F006
:101C6000010101600068002100F00100019001986D
:101C70001C20FFF73DFC1C2002B0BDE88040FFF7B0
:101C800025BC000090F83D1001291CBF01207047C1
:101C9000022180F83D10006841F2FF72C168C4F271
:101CA0000002904241F00101C1600DDC40F2FF7181
:101CB000C4F20001884215DCB0F1804F29D040F217
:101CC0000041C4F2000122E040F2FF31C4F2010100
:101CD000884212DC41F60001C4F20001884218D0AB
:101CE000002112E040F60001C4F20001884210D049
:101CF00040F60041C4F2000109E044F20001C4F2E0
:101D00000101884205D040F20041C4F2010188423D
:101D100006D1816801F00701062904BF0020704741
:101D2000016841F0010101600020704790F83C20FB
:101D3000012A4FF0020200F0C38080B580F83D20F8
:101D4000D0F800C04FF67772DCF8083023EA0202C0
:101D5000CCF808200B684F2B28DC1F2B44DD202BF0
:101D600045D0302B43D0402B40F0AC80D1F804E07C
:101D7000C968DCF82030DCF8202022F00102CCF821
:101D80002020DCF8182022F0F00242EA011123F0B2
:101D90000A0242EA0E02CCF81810CCF82020DCF837
:101DA000081041F0470121F030017EE06F2B26DD65
:101DB000B3F5005F47D0B3F5805F78D0702B40F06B
:101DC0008180D1E901E3C968DCF8082043EA0E0309
:101DD00022F47F4243EA01211143CCF80810DCF8D9
:101DE000081041F0770160E00BB1102B6AD1DCF8EC
:101DF000081021F07001194341F0070155E0502B04
:101E000034D0602B5ED1D1F804E0C968DCF8203012
:101E1000DCF8202022F01002CCF82020DCF818207A
:101E200022F4704242EA013123F0A00242EA0E128B
:101E3000CCF81810CCF82020DCF8081041F067012D
:101E400021F0100131E0D1E901E3C968DCF8082094
:101E500043EA0E0322F47F4243EA01211143CCF806
:101E60000810DCF8081041F480411EE0D1F804E0CD
:101E7000C968DCF82030DCF8202022F00102CCF820
:101E80002020DCF8182022F0F00242EA011123F0B1
:101E90000A0242EA0E02CCF81810CCF82020DCF836
:101EA000081041F0570121F02001CCF80810002261
:101EB000012180F83D10002180F83C10BDE88040F1
:101EC000104670470122F3E77047000070B50446E2
:101ED0000068C5680669B10716D515F0020113D070
:101EE0006FF002010161012121778069800703D031
:101EF0002046FFF7E9FF05E0204600F08DF8204678
:101F000000F08CF800202077700718D515F0040039
:101F100015D020686FF004010161022121778069EA
:101F200010F4407F03D02046FFF7CEFF05E02046A7
:101F300000F072F8204600F071F80020207730079A
:101F400017D515F0080014D020686FF00801016162
:101F500004212177C069800703D02046FFF7B4FF32
:101F600005E0204600F058F8204600F057F8002021
:101F70002077F00618D515F0100015D020686FF006
:101F80001001016108212177C06910F4407F03D05E
:101F90002046FFF799FF05E0204600F03DF8204677
:101FA00000F03CF800202077F00718BF15F0010082
:101FB00002D1300609D412E020686FF001010161FE
:101FC000204600F02DF8300609D515F0800006D027
:101FD00020686FF0800101612046FFF7A3FD7006C5
:101FE00009D515F0400006D020686FF0400101616E
:101FF000204600F01DF8B00658BF70BD15F0200057
:1020000008D021686FF0200220460A61BDE87040C8
:10201000FFF78ABD70BD00007047000070470000E8
:1020200041F67960C2F200000121017070470000A2
:10203000704700007047000070470000B0B582B0E4
:10204000044600680168C368426901F02F05202D2D
:1020500003F0200506D12DB1204602B0BDE8B04006
:1020600001F0EABE5FEA017C1EBF02F0010E03F43C
:10207000907212EB0E0242D1226BCD0618D5012AC6
:1020800016D113F0100213D00021019101680191C3
:10209000416801910199406940063AD4A08DE18DD3
:1020A000E28D002A18BF884240F0ED8102B0B0BD39
:1020B0000A0640F1E28013F0800200F0DE8094F81E
:1020C00041102129F2D1A168B1F5805F03D12169C6
:1020D000002900F05D82216A4A1C22620978416071
:1020E000E18C01390A04E184E0D1C16821F080016A
:1020F000C160C16841F04001C16002B0B0BDCA0713
:1021000018BF13F4807240F0CC804A0700F1CF80F2
:10211000D4E0E06B016849688AB2002AC6D0A38D7A
:102120009A42C3D2E185C069B0F5807F00F09D80FE
:10213000206850E8030F216820F4807041E8030212
:10214000DAB1206850E8030F216820F4807041E87C
:10215000030292B1206850E8030F216820F48070D8
:1021600041E803024AB1206850E8030F216820F4D7
:10217000807041E80302002ADAD1206850E8050F98
:10218000216820F0010041E80502BAB3206850E858
:10219000050F216820F0010041E8050272B32068B4
:1021A00050E8050F216820F0010041E805022AB33C
:1021B000206850E8050F216820F0010041E8050281
:1021C000002ADAD11AE0206850E8050F216820F0D3
:1021D000400041E80502DAB1206850E8050F2168A7
:1021E00020F0400041E8050292B1206850E8050F58
:1021F000216820F0400041E805024AB1206850E81B
:10220000050F216820F0400041E80502002ADAD1DC
:10221000202084F8420000202063206850E8030F4B
:10222000216820F0100041E80302DAB1206850E88C
:10223000030F216820F0100041E8030292B12068EA
:1022400050E8030F216820F0100041E803024AB172
:10225000206850E8030F216820F0100041E80302D5
:10226000002ADAD1E06BFEF787FF02206063A08DC1
:10227000E18D401A81B220467FE149067FF516AF15
:1022800013F040013FF412AFC16821F04001C1607A
:102290002021204684F8411002B0BDE8B04000F093
:1022A0009BBC626C42F0010262644A0706D5BEF133
:1022B000000F03D0626C42F0020262648A0706D506
:1022C000BEF1000F03D0626C42F004026264BCF104
:1022D000000F06D55EEA050203D0626C42F00802E8
:1022E0006264626C002A3FF4E1AE890604D51DB138
:1022F000204601F0A1FD20684069616C00F04000BB
:1023000001F00801401800F0B78000BF206850E8D5
:10231000030F216820F4907041E80302BAB32068EB
:1023200050E8030F216820F4907041E8030272B373
:10233000206850E8030F216820F4907041E8030200
:102340002AB3206850E8030F216820F4907041E818
:102350000302002ADAD11AE0206850E8050F21684C
:1023600020F0010041E80502DAB1206850E8050FCD
:10237000216820F0010041E8050292B1206850E890
:10238000050F216820F0010041E805024AB12068EC
:1023900050E8050F216820F0010041E80502002AFD
:1023A000DAD1206B012824D1206850E8030F21687E
:1023B00020F0100041E80302DAB1206850E8030F72
:1023C000216820F0100041E8030292B1206850E833
:1023D000030F216820F0100041E803024AB1206891
:1023E00050E8030F216820F0100041E80302002AA2
:1023F000DAD1202084F84200002020632068406960
:10240000400640F1BF80206850E8050F216820F0A9
:10241000400041E80502DAB1206850E8050F216864
:1024200020F0400041E8050292B1206850E8050F15
:10243000216820F0400041E805024AB1206850E8D8
:10244000050F216820F0400041E80502002ADAD19A
:10245000E06B002800F0968043F62D61C0F6000185
:102460000165FEF7C9FE00283FF420AEE06B016D68
:1024700002B0BDE8B04008472046FFF7DDFD002070
:10248000606402B0B0BD401A216851E8031F2268A1
:1024900021F4907142E80313BBB3216851E8031F94
:1024A000226821F4907142E8031373B3216851E864
:1024B000031F226821F4907142E803132BB32168B3
:1024C00051E8031F226821F4907142E80313002BA6
:1024D000DAD11AE0216851E8051F226821F00101D4
:1024E00042E80513DBB1216851E8051F226821F09D
:1024F000010142E8051393B1216851E8051F2268E4
:1025000021F0010142E805134BB1216851E8051F94
:10251000226821F0010142E80513002BDAD12021C5
:1025200084F8421000212163216851E8031F2268CA
:1025300021F0100142E80313DBB1216851E8031FC9
:10254000226821F0100142E8031393B1216851E899
:10255000031F226821F0100142E803134BB12168E8
:1025600051E8031F226821F0100142E80313002BF9
:10257000DAD1022281B22046626302B0BDE8B040E7
:10258000FFF758BD204602B0BDE8B040FFF754BD8C
:10259000216A31F8022B6FF35F22426021629FE5CE
:1025A000002804BF0120704710B5044690F8410090
:1025B00028B9002084F84000204600F021F82420AB
:1025C00084F841002068C16821F40051C1602046B0
:1025D00001F0B0FC2068016921F49041016141697A
:1025E00021F02A014161C16841F40051C16000201D
:1025F0002021606484F8411084F84210606310BDAB
:1026000010B586B0006844F20042C4F20002002116
:102610009042CDE90411CDE90211019138D041F287
:102620000001C4F2010188425ED044F60041C4F2C8
:102630000001884240F08A80002043F6300100907B
:10264000C4F202010A6942F400220A610A6902F432
:1026500000220092009A00900A6842F001020A608B
:102660000968022201F0010100910099CDE90220E0
:10267000082003210590002001910491C4F202007A
:1026800001A9FEF7DFFD342001210022342458E0A7
:1026900043F630000091C4F20200026942F40032B5
:1026A0000261026902F400320092009A009102680D
:1026B00042F001020260006800F001000090009802
:1026C0000C2001900220CDE9020103200490072094
:1026D00005900020C4F2020001A9FEF7B3FD2620F8
:1026E0000021002226242CE0002043F63001009037
:1026F000C4F202014A6942F010024A614A6902F0DA
:1027000010020092009A00900A6842F001020A60EA
:10271000096801F00101009100994FF4C061019135
:102720000221CDE90210032004900720059000202B
:10273000C4F2020001A9FEF785FD25200121002237
:102740002524FEF7D5FE2046FEF7C0FE06B010BDDC
:1027500090F84230202B07D100294FF0010318BF19
:10276000002A04D1184670470223184670470023F8
:102770000363816222218285C285436480F842100E
:102780000169006819B1C16841F48071C160416993
:1027900041F001014161C16841F02001C16018466A
:1027A00070470000B0B5006844F20041C4F2000177
:1027B00088422DD044F60041C4F20001884216D070
:1027C00041F20001C4F20101884240F06F8141F6FC
:1027D0007065C2F200052878042836D8DFE800F0DA
:1027E00003B0B4B8BC00BDE8B04003F053B841F644
:1027F0006464C2F20004207801F046FD40F280607B
:10280000C2F2000021460122BDE8B040FFF7A0BFA0
:1028100040F2ED15C2F20005287802283ED00128CA
:1028200029D0002840F0428140F2F330C2F200008B
:10283000007855287BD140F2386040F2F331012313
:10284000C2F20000C2F200010FE0FF2840F02C812C
:1028500040F28C44C2F20004207801F0A9FC40F25E
:10286000F0500423C2F20000214601222B70BDE883
:10287000B040FFF76DBF40F2F330C2F200000078C5
:1028800051286DD0522873D0532850D1022040F2E5
:10289000EC132870C2F20003532570E040F2EC10F4
:1028A000C2F200000078512877D0522800F0B98099
:1028B000532818BFB0BD40F2F334C2F2000461786F
:1028C0002078090209B2E378084400EE100A9FED6F
:1028D000781AA278B8EEC00A9FED772A190220EE86
:1028E000010A40F69C0009B220EE020AC2F2000082
:1028F000114480ED000A00EE101A6179B8EEC00AAA
:102900000902227920EE010A09B220EE020A1144DE
:1029100080ED010A00EE101AB8EEC00A20EE010A9E
:1029200020EE020A80ED020A02F056F9B4E040F20D
:10293000386040F2F331C2F20000C2F2000162E7F7
:10294000BDE8B04002F09AB9BDE8B04002F0F8BA74
:10295000BDE8B04001F02ABDBDE8B04002F0D2BFF2
:10296000022040F2EC132870C2F20003512506E069
:10297000022040F2EC132870C2F20003522540F20C
:10298000386040F2F331C2F20000C2F200010922C5
:102990001D70BDE8B040FFF7DBBE40F2F334C2F279
:1029A000000461782078090209B20844E37800EE57
:1029B000100A9FED3F1AB8EEC00AA27820EE010A75
:1029C000B3EE002A9FED3B3A190220EE020A40F6D0
:1029D0009C0009B220EE030AC2F20000114480ED0F
:1029E0000C0A00EE101A6179B8EEC00A20EE010A56
:1029F0000902227920EE020A09B220EE030A1144EC
:102A000080ED0D0A00EE101AB8EEC00A20EE010AA1
:102A100020EE020A20EE030A80ED0E0A02F07CF896
:102A20003AE040F2F334C2F20004617820780902FF
:102A300009B2E378084400EE100A9FED1D1AA2784F
:102A4000B8EEC00A9FED1C2A190220EE010A40F6DA
:102A50009C0009B220EE020AC2F20000114480ED8F
:102A6000060A00EE101A6179B8EEC00A090222794E
:102A700020EE010A09B220EE020A114480ED070A95
:102A800000EE101AB8EEC00A20EE010A20EE020A8B
:102A900080ED080A02F080F840F23860C2F20000CF
:102AA00021460122FFF754FE00202870B0BD00BF70
:102AB00000000038CDCC1C41000034432DE9F04328
:102AC00081B0044690F8410020281CD18946002995
:102AD0004FF0010061D01646002A5ED000206064ED
:102AE00021201D4684F84100FEF77CFCA684E68484
:102AF000A1680646B1F5805F01D1206938B1C846AA
:102B00004FF0000905E0022001B0BDE8F0834FF06E
:102B10000008E18C206829B36F1C0BE0B8F1000FAE
:102B200019D018F8011B4160E18C0139E184E18C76
:102B3000C1B100BF01680906F0D4002FFAD0FEF73A
:102B400051FC01464FF0030025B3891BA94221D84F
:102B50002068C168EEE739F8021B4FF000086FF3F8
:102B60005F21E0E70168490613D46F1C03E000BF52
:102B7000016849060DD4002FFAD0FEF733FC014658
:102B80004FF0030035B1891BA94203D82068C16802
:102B9000EEE70020202184F8411001B0BDE8F08369
:102BA000034690F84100202806D100294FF001008B
:102BB00018BF002A02D17047022070471962002016
:102BC00021219A84DA84586483F841101968CA680C
:102BD00042F08002CA60704770470000FEE70000C4
:102BE000B0B582B0B2EE083A817AB4EE430A044638
:102BF0000730F1EE10FAB0EE434AA1710ADCBAEEEA
:102C0000085AB4EE450AB0EE404AF1EE10FAB8BFE9
:102C1000B0EE454A9FED850A34EE033A23EE003AC2
:102C2000B3EE084A83EE043A01228270BCEEC33A46
:102C300013EE101AB2EE093AF4EE430AF1EE10FA6E
:102C4000B0EE434A01800ADCBAEE095AF4EE450AB6
:102C5000B0EE604AF1EE10FAB8BFB0EE454A34EE7D
:102C6000034A24EE005AB3EE094A85EE045A25467B
:102C7000F4EE430AF1EE10FABCEEC55A15EE100A56
:102C80004FEA102005F80B0FB0EE435A0ADCBAEEFB
:102C9000096AF4EE460AB0EE605AF1EE10FAB8BFD7
:102CA000B0EE465A35EE033A23EE003A83EE043A8C
:102CB000BCEEC33A13EE100AB3EE0E3AB4EE431A6A
:102CC000F1EE10FA207304DDFF206073B0EE431ABA
:102CD0001FE031EE034A9FED565A24EE004A84EE7F
:102CE000055ABBEE0E4AB4EE441A9FED526AF1EE5D
:102CF00010FAB8BFB0EE465ABCEEC55A15EE100A2F
:102D0000000AB4EE441AF1EE10FA6073B8BFB0EEE8
:102D1000441A31EE031A9FED463A21EE001A81EE75
:102D2000031ABCEEC13A9FED441A13EE100AF4EEFA
:102D3000411AF1EE10FAA07304DDFF20E073F0EE0B
:102D4000411A19E021EE803A83EE014AF5EE401A6D
:102D50009FED383AF1EE10FAB8BFB0EE434ABCEE40
:102D6000C44A14EE100A000AF5EE401AF1EE10FA09
:102D7000E073B8BFF0EE431A21EE803A83EE011AF9
:102D8000BCEEC11A11EE100AB1EE041AB4EE412ADB
:102D9000F1EE10FA207404DDFF206074B0EE412AD9
:102DA00019E022EE003A83EE014AB5EE402A9FED8B
:102DB000213AF1EE10FAB8BFB0EE434ABCEEC44A75
:102DC00014EE100A000AB5EE402AF1EE10FA607413
:102DD000B8BFB0EE432A22EE000A80EE010A40F2AC
:102DE000D011C2F20001BCEEC00A10EE100AA074AD
:102DF00008200861042088600020C860D4F80620FC
:102E000020684A60FDF7F0FD022804D82068FDF72D
:102E1000EBFD0328FAD3206840F2D011C2F2000182
:102E200001AB2A46FDF794FC02B0B0BD00FF7F471E
:102E300000007042000000000000FA43B0B582B00C
:102E40000446807A0321A07140F20000C2F2000023
:102E50000078617240F2D011A4F8070000202546E6
:102E6000C2F20001082245F80B0FC4F80F000A61F6
:102E70000422C1E90220D4F8062020684A60FDF748
:102E8000B3FD022805D800BF2068FDF7ADFD03287B
:102E9000FAD3206840F2D011C2F2000101AB2A46F9
:102EA000FDF756FC02B0B0BD0160827270470000B1
:102EB000B0B582B00446807A2546A07140F2000089
:102EC000C2F2000000781222A4F8070047F20500C1
:102ED00045F80B0F0020C4F80F00E17340F2D01149
:102EE0006272C2F2000108220A610422C1E90220D2
:102EF000D4F8062020684A60FDF776FD022804D841
:102F00002068FDF771FD0328FAD3206840F2D01144
:102F1000C2F2000101AB2A46FDF71AFC02B0B0BDB7
:102F20000A889FED281A12BA120C00EE102AB8EE89
:102F3000400A9FED252A30EE010A80EE020AB1EE2A
:102F4000001A9FED222AB3EE0E3A20EE010A20EE7F
:102F5000020A10EE102A42604A889FED1D1A12BA2A
:102F6000120C00EE102AB8EE400A9FED1A2A30EE3D
:102F7000010A80EE020A20EE030A10EE102A826097
:102F80008A8812BA120C00EE102AB8EE400A30EE0F
:102F9000010A80EE020AB2EE081A20EE010A10EED3
:102FA000102AC260C988B2EE041A09BA090C00EEF0
:102FB000101AB8EE400A80EE010A10EE101A0161F4
:102FC000704700BFB30000C7B3000047DA0F4940A5
:102FD00000FFFFC600FFFF46B0B582B00446807A0E
:102FE0000621A07140F20000C2F200000078617278
:102FF000A4F807000120254640F2D01105F80B0F78
:103000000020C2F200010822E060C4F80F000A614B
:103010000422C1E90220D4F8062020684A60FDF7A6
:10302000E3FC022805D800BF2068FDF7DDFC03287B
:10303000FAD3206840F2D011C2F2000101AB2A4657
:10304000FDF786FB02B0B0BD80B540F2585046F2A5
:103050000041C2F20000C4F2000100234FF4302C02
:10306000032280E80E00C0E9033CC0E905338383F6
:10307000FDF7F0FD002808BF80BDBDE88040FDF7EA
:103080004FBB000080B540F2805046F60001C2F20E
:103090000000C4F2000100234FF4302C032280E82A
:1030A0000E00C0E9033CC0E905338383FDF7D2FD80
:1030B000002808BF80BDBDE88040FDF731BB00009F
:1030C00083B0002043F630010290C4F202010A6886
:1030D00042F080020A600A6802F080020292029ABC
:1030E00001900A6842F001020A600A6802F00102D7
:1030F0000192019A0090086840F002000860086898
:1031000000F002000090009803B0704780B586B0D0
:1031100040F2A8500021C2F200004FF08042A823E4
:103120004FF47A7C0591CDE90311CDE90011C0E996
:103130000023C0E9021C01618161FEF753FD0028F4
:1031400018BFFDF7EDFA4FF48050029040F2A850FE
:10315000C2F2000002A9FEF7E9FD002818BFFDF742
:10316000DFFA40F2A850C2F200006946FEF7DEFC2A
:10317000002818BFFDF7D4FA06B080BD80B540F234
:10318000806044F60041C2F20000C4F20001002356
:103190004FF00C0C4FF4165280E80E00C0E90333D8
:1031A000C0E905C3C361FFF7FBF9002808BF80BD74
:1031B000BDE88040FDF7B4BA80B540F2F05041F26E
:1031C0000001C2F20000C4F2010100234FF00C0C18
:1031D0004FF4E13280E80E00C0E90333C0E905C3D3
:1031E000C361FFF7DDF9002808BF80BDBDE880405E
:1031F000FDF796BA80B540F2386044F20041C2F261
:103200000000C4F2000100234FF00C0C4FF41652E2
:1032100080E80E00C0E90333C0E905C3C361FFF7CE
:10322000BFF9002808BF80BDBDE88040FDF778BA2F
:10323000FEE70000FEE7000000284ED0017890ED88
:10324000121A90ED132A80ED090A30EEC00A002907
:10325000C0ED080A80ED120A80ED131A80ED142AE1
:103260003ED0012940F0868090ED015A90ED026A2F
:1032700030EE414A31EE011A90ED037A24EE054A10
:1032800020EE065A30EE410A32EE000AD0E90F2154
:1032900080ED0F0A20EE070A34EE051A90ED0A2A97
:1032A00090ED053A80ED0D0A31EE000A32EE000A8B
:1032B000B4EE430AF1EE10FA80ED0B4A80ED0C5AA1
:1032C000C0E9102180ED0A0AC2BF80ED0A3AB0EED3
:1032D000430A7047B1EE431A41E09FED280A704758
:1032E00090ED024A90ED0C6A90ED012A90ED063ABD
:1032F00024EE004A90ED035A34EE064A20EE022AEC
:10330000D0E90F2130EE410AB4EE434A80ED0F0AB6
:1033100020EE050AF1EE10FA80ED0B2A80ED0C4A42
:10332000C0E9102180ED0D0A06DCB1EE433AB4EE9F
:10333000434AF1EE10FA03DAB0EE434A80ED0C3A5C
:1033400032EE042A90ED051A30EE020AB4EE410A7C
:10335000F1EE10FA80ED0A0A07DCB1EE411AB4EE84
:10336000410AF1EE10FAA8BF7047B0EE410A80EDB5
:103370000A1A704790ED0A0A704700BF000000006B
:10338000F0B581B0451E40F2D06240F68C60C5EBCE
:10339000C501C2F20002C2F20000542602EB81070E
:1033A000F0EE400A97ED030A05FB0604B8EEC00AEA
:1033B0002046FFF741FF41F60C10C2F20000B7F9BA
:1033C0000210D4ED0A0A05FB060400EE101AB8EE4E
:1033D000C00A2046FFF730FF94ED0A0A01B0F0BDA5
:1033E000F0B581B0451E40F2D06241F22C10C5EB21
:1033F000C501C2F20002C2F20000542602EB8107AE
:10340000F0EE400A97ED030A05FB0604B8EEC00A89
:103410002046FFF711FF41F6AC30C2F20000B7F9C9
:103420000210D4ED0A0A05FB060400EE101AB8EEED
:10343000C00A2046FFF700FF94ED0A0A01B0F0BD74
:103440002DE9F04F81B02DED0C8B41F6AC3940F2F7
:1034500060089FEDD5AA9FEDD59A9FEDD58AC2F25F
:103460000009C2F20008484600214246B0EE4A0A6E
:10347000F0EE490AB0EE481A00F088FB41F22C1732
:1034800040F2400A9FEDCBDAC2F20007C2F2000A16
:10349000384600215246B0EE4A0AF0EE4D0AB0EE30
:1034A000481A00F073FB41F60C1540F2500B9FEDEB
:1034B000C2BAC2F20005C2F2000B284600215A46E9
:1034C000B0EE4B0AF0EE490AB0EE481A00F05EFB8F
:1034D00040F68C6440F230069FEDB8CAC2F2000498
:1034E000C2F20006204600213246B0EE490AF0EE54
:1034F0004C0AB0EE481A00F049FB09F154000021D3
:103500004246B0EE4A0AF0EE490AB0EE481A00F020
:103510003DFB07F1540000215246B0EE4A0AF0EE9E
:103520004D0AB0EE481A00F031FB05F154000021BD
:103530005A46B0EE4B0AF0EE490AB0EE481A00F0D7
:1035400025FB04F1540000213246B0EE490AF0EEAA
:103550004C0AB0EE481A00F019FB09F1A80000214E
:103560004246B0EE4A0AF0EE490AB0EE481A00F0C0
:103570000DFB07F1A80000215246B0EE4A0AF0EE1A
:103580004D0AB0EE481A00F001FB05F1A800002139
:103590005A46B0EE4B0AF0EE490AB0EE481A00F077
:1035A000F5FA04F1A80000213246B0EE490AF0EE27
:1035B0004C0AB0EE481A00F0E9FA09F1FC000021CB
:1035C0004246B0EE4A0AF0EE490AB0EE481A00F060
:1035D000DDFA07F1FC0000215246B0EE4A0AF0EE97
:1035E0004D0AB0EE481A00F0D1FA05F1FC000021B6
:1035F0005A46B0EE4B0AF0EE490AB0EE481A00F017
:10360000C5FA04F1FC0000213246B0EE490AF0EEA2
:103610004C0AB0EE481A00F0B9FADFED690A09F574
:10362000A87000214246B0EE4A0AB0EE481A00F0F7
:10363000ADFA9FED64DA07F5A87000215246B0EEAE
:103640004A0AF0EE4D0AB0EE481A00F09FFA05F56E
:10365000A87000215A46B0EE4B0AF0EE490AB0EECF
:10366000481A00F093FA04F5A87000213246B0EE33
:10367000490AF0EE4C0AB0EE481A00F087FA09F554
:10368000D27000214246B0EE4A0AF0EE4D0AB0EE8A
:10369000481A00F07BFA07F5D27000215246B0EECE
:1036A0004A0AF0EE490AB0EE481A00F06FFA05F542
:1036B000D27000215A46B0EE4B0AF0EE490AB0EE45
:1036C000481A00F063FA04F5D27000213246B0EED9
:1036D000490AF0EE4C0AB0EE481A00F057FA09F524
:1036E000FC7000214246B0EE4A0AF0EE4D0AB0EE00
:1036F000481A00F04BFA07F5FC7000215246B0EE74
:103700004A0AF0EE490AB0EE481A00F03FFA05F511
:10371000FC7000215A46B0EE4B0AF0EE490AB0EEBA
:10372000481A00F033FA04F5FC7000213246B0EE7E
:10373000490AF0EE4C0AB0EE481A00F027FA09F5F3
:10374000137000214246B0EE4A0AF0EE4D0AB0EE88
:10375000481A00F01BFA07F5137000215246B0EE2C
:103760004A0AF0EE490AB0EE481A00F00FFA05F5E1
:10377000137000215A46B0EE4B0AF0EE490AB0EE43
:10378000481A00F003FA04F5137000213246B0EE37
:10379000490AF0EE4C0AB0EE481ABDEC0C8B01B0B1
:1037A000BDE8F04F00F0F2B900007A460080BB455A
:1037B0000000000000409C4500401C460000FA4408
:1037C0000000FA4500C0DA452DE9F04F81B02DED3B
:1037D000108B41F2CC389FEDE1DA9FEDE28AC2F224
:1037E000000840F2E402DFEDDE0AC2F200024046C9
:1037F0000021B0EE4D0AB0EE481A00F0C7F940F6CD
:103800004C199FEDD99A9FEDD9AAC2F2000940F256
:10381000A402C2F2000248460021B0EE490AF0EECE
:103820004A0AB0EE481A00F0B1F941F26C6B40F26E
:10383000D40A9FEDCFEA9FEDCFBAC2F2000BC2F2DD
:10384000000A584600215246B0EE490AF0EE4E0AF0
:10385000B0EE4B1A00F09AF940F6EC3540F29404C1
:103860009FEDC5FAC2F20005C2F20004284600210D
:103870002246B0EE490AF0EE4F0AB0EE4B1A00F0C5
:1038800085F940F2F4069FEDBDCAC2F2000608F1C8
:10389000540000213246B0EE490AF0EE4C0AB0EE78
:1038A0004B1A00F073F940F2B407C2F2000709F1B5
:1038B000540000213A46B0EE490AF0EE4A0AB0EE52
:1038C0004B1A00F063F90BF1540000215246B0EEA0
:1038D0004D0AF0EE4E0AB0EE4B1A00F057F9DFED4C
:1038E000A88A05F1540000212246B0EE680AF0EEE5
:1038F0004F0AB0EE4B1A00F049F908F1A800002178
:103900003246B0EE490AF0EE4C0AB0EE4B1A00F027
:103910003DF909F1A80000213A46B0EE490AF0EE5F
:103920004A0AB0EE4B1A00F031F90BF1A800002161
:103930005246B0EE4D0AF0EE4E0AB0EE4B1A00F0D1
:1039400025F905F1A80000212246B0EE680AF0EE44
:103950004F0AB0EE4B1A00F019F908F1FC000021F3
:103960003246B0EE490AF0EE4C0AB0EE4B1A00F0C7
:103970000DF909F1FC0000213A46B0EE490AF0EEDB
:103980004A0AB0EE4B1A00F001F90BF1FC000021DD
:103990005246B0EE4D0AF0EE4E0AB0EE4B1A00F071
:1039A000F5F805F1FC0000212246B0EE680AF0EEC1
:1039B0004F0AB0EE4B1A00F0E9F840F20416C2F2DA
:1039C000000608F5A87000213246B0EE490AF0EE74
:1039D0004C0AB0EE4B1A00F0D9F840F2C407C2F21C
:1039E000000709F5A87000213A46B0EE490AF0EE4A
:1039F0004A0AB0EE4B1A00F0C9F80BF5A870002186
:103A00005246B0EE490AF0EE4C0AB0EE481A00F009
:103A1000BDF89FED5CDA9FED5CEA05F5A87000212A
:103A20002246B0EE4D0AF0EE4E0AB0EE481A00F013
:103A3000ADF808F5D27000213246B0EE490AF0EE3A
:103A40004C0AB0EE4B1A00F0A1F809F5D270002133
:103A50003A46B0EE490AF0EE4A0AB0EE4B1A00F0D0
:103A600095F80BF5D27000215246B0EE490AF0EEFF
:103A70004C0AB0EE481A00F089F805F5D270002122
:103A80002246B0EE4D0AF0EE4E0AB0EE481A00F0B3
:103A90007DF808F5FC7000213246B0EE490AF0EEE0
:103AA0004C0AB0EE4B1A00F071F809F5FC700021D9
:103AB0003A46B0EE490AF0EE4A0AB0EE4B1A00F070
:103AC00065F80BF5FC7000215246B0EE490AF0EEA5
:103AD0004C0AB0EE481A00F059F805F5FC700021C8
:103AE0002246B0EE4D0AF0EE4E0AB0EE481A00F053
:103AF0004DF808F5137000213246B0EE490AF0EE99
:103B00004C0AB0EE4B1A00F041F809F51370002191
:103B10003A46B0EE490AF0EE4A0AB0EE4B1A00F00F
:103B200035F80BF5137000215246B0EE490AF0EE5D
:103B30004C0AB0EE481A00F029F805F51370002180
:103B40002246B0EE4D0AF0EE4E0AB0EE481ABDEC39
:103B5000108B01B0BDE8F04F00F018B800606A4665
:103B600000007A450000000000401C4600409C45D3
:103B70000000FA450000FA4300803B450080BB4549
:103B800000803B460000C84300009643002818BF51
:103B9000002A00D17047017011684160516881604E
:103BA0009168C160D168016100F1140181EC030AE0
:103BB0000021C0E90A11C0E90C11C0E90F11C0E9E8
:103BC0001111C0E91311704710B541F2CC31013821
:103BD000C2F20001542200FB021440F27441C2F20E
:103BE000000140F2D06201EB8001C0EBC000C2F2E4
:103BF000000202EB8000B0F90200B0EE401A91ED35
:103C0000000A02EE100AF8EEC20A204601F08CFD0E
:103C100094ED0A0A10BD00007047000070470000D4
:103C2000FDF7E6BBB0B592B0002443F64000CDE905
:103C30000A44CDE908440594CDE90344CDE90144A3
:103C40000094C4F202000168022541F08051016035
:103C5000006800F080500090009847F20000009447
:103C6000C4F20000016841F4804101600068A821AD
:103C700000F4804000900098012006904FF48030BE
:103C800007904FF480000D9004200E90119006A82C
:103C90000C95CDE90F15FDF775FD10B172B600BF9B
:103CA000FEE70F20CDE901054FF4A05004904FF43A
:103CB0008050059001A805210394FDF755FC10B133
:103CC00072B600BFFEE712B0B0BD00004EF68850DD
:103CD000CEF20000016841F47001016070470000FD
:103CE00040F2A850C2F20000FEF7F0B810B540F65E
:103CF000FF3E0368C4F2000E40F2004C7045C4F26F
:103D0000010C0FDCB0F1804F19D040F20042C4F238
:103D10000002904213D040F60002C4F2000290422A
:103D20000DD010E040F60042C4F20002904206D0EE
:103D3000604504D00022C4F20102904203D14A68D7
:103D400023F07003134341F6FF72C4F20002904265
:103D50000DDC70451FDCB0F1804F41D040F20042D5
:103D6000C4F2000290423BD040F6000221E043F64C
:103D7000FF72C4F20102904220DC42F20002C4F25F
:103D8000000290422CD00022C4F20102904227D0BF
:103D9000604525D028E040F60042C4F2000290427F
:103DA0001ED041F60002C4F20002904218D041F643
:103DB0000042C4F20002904212D015E044F2000228
:103DC000C4F2010290420BD044F60002C4F2010298
:103DD000904205D044F20042C4F20102904203D165
:103DE000CA6823F44073134323F080024B69D1F86F
:103DF00000E08C681A430260C46240F48062C0F83C
:103E000028E0624504BF096901630121416101693C
:103E1000C90708BF10BD016921F00101016110BD92
:103E200040F28060C2F20000FEF708B9806B00210A
:103E3000C185C184FEF700B981B090F842102229F3
:103E400020D183680246B3F5805F08D152F8281F5D
:103E500052F8183C002B61D003685B6809E052F807
:103E6000281F13B90369002BF6D003685B6803F0C1
:103E70007F030B70116801311160C18D01390A0493
:103E8000C18501D001B070470168CA6822F02002E4
:103E9000CA60CA6822F48072CA604A6922F00102CC
:103EA0004A61202180F8421000214163026B012AFF
:103EB0003CD10163016851E8031F026821F0100141
:103EC00042E80313DBB1016851E8031F026821F0E7
:103ED000100142E8031393B1016851E8031F02681F
:103EE00021F0100142E803134BB1016851E8031FB0
:103EF000026821F0100142E80313002BDAD10168B7
:103F00000A68D20606D5002200920A680092496823
:103F100000910099818D01B0FEF78CB8026852685B
:103F20006FF35F2221F8022B8162A6E701B0FEF752
:103F300039BC000010B504460068D4E902C2236908
:103F4000016921F4405111430161626943EA0C01A6
:103F5000E3691143C268194349F20C639A43114360
:103F6000C1604169A26921F4407141F200431143EB
:103F700040F48062C4F201039A42416102D1FDF72C
:103F8000B7FB01E0FDF7A0FBE16963681922B1F519
:103F9000004FA0FB020120D15A00DB0FFCF79AF979
:103FA00048F21F51C5F2EB11A0FB01235A094FF64D
:103FB0009C73C0F6FF7303F1805302FB03003223AE
:103FC00003EBC000A0FB01014FF4F87000EA1110F0
:103FD00000EB0210C1F342111CE09A009B0FFCF7AA
:103FE00079F948F21F51C5F2EB11A0FB01235A09E0
:103FF0004FF69C73C0F6FF7302FB0300322303EB02
:104000000010A0FB0101F02000EA511000EB0210AB
:10401000C1F3431108442168886010BD40F2F0509C
:10402000C2F20000FEF70AB840F23860C2F20000A7
:10403000FEF704B8FEE7000040F69C0140F20040A5
:10404000C2F20001C2F2000091ED051A40F208012F
:1040500090ED032AC2F2000130EE415A91ED013A8F
:1040600090ED004A35EE026A91ED032A91ED001AB7
:1040700091ED020A26EE033A35EE447AB4EE423A66
:1040800027EE000A25EE011AF1EE10FA80ED005A33
:1040900080ED014A80ED027A80ED036A80ED041A1A
:1040A00080ED053A80ED060A06DCB1EE422AB4EE58
:1040B000423AF1EE10FA03DAB0EE423A80ED052A08
:1040C00030EE010A91ED041A30EE030AB4EE410A13
:1040D000F1EE10FA80ED070A07DCB1EE411AB4EEFA
:1040E000410AF1EE10FAA8BF7047B0EE410A80ED28
:1040F000071A704740F69C0140F22040C2F20001CE
:10410000C2F2000091ED0B1A40F21C0190ED032A5F
:10411000C2F2000130EE415A91ED013A90ED004AB1
:1041200035EE026A91ED032A91ED001A91ED020A33
:1041300026EE033A35EE447AB4EE423A27EE000A10
:1041400025EE011AF1EE10FA80ED005A80ED014AD9
:1041500080ED027A80ED036A80ED041A80ED053A65
:1041600080ED060A06DCB1EE422AB4EE423AF1EEE8
:1041700010FA03DAB0EE423A80ED052A30EE010A79
:1041800091ED041A30EE030AB4EE410AF1EE10FA92
:1041900080ED070A07DCB1EE411AB4EE410AF1EEF8
:1041A00010FAA8BF7047B0EE410A80ED071A7047B9
:1041B00001380B2888BF7047DFE800F0060C172392
:1041C0006541474D5365595F40F2D440C2F200004B
:1041D000012104E040F2D440C2F20000022101704B
:1041E00040F23C10C2F200004CE040F2D440C2F277
:1041F00000000421017040F23C10C2F200000321D3
:1042000040E080B540F2D060C2F20000428841F642
:104210008861C2F200010A80C28B408F4A80888088
:1042200040F2F050C2F2000006220A23FEF746FCDC
:1042300041F67060C2F200000021017080BD40F2C2
:104240001410C2F2000006211CE040F21410C2F269
:104250000000072116E040F2DF40C2F20000012119
:1042600010E040F2DF40C2F2000002210AE040F21A
:104270002050C2F200000B2104E040F22050C2F2B4
:104280000000002101707047B0B541F67464C2F2BD
:1042900000042168032957D8DFE801F002571C32D7
:1042A0005A2845D140F2D840C2F2000001684A1CA9
:1042B000026041F66460C2F200005A22425441F6A4
:1042C0007861C2F200010A780120206002F15A00F0
:1042D0000870B0BD41F67861C2F200010A788242EE
:1042E00051D140F2D841C2F200010A6841F664633C
:1042F000C2F20003985403202060501C0860B0BD37
:10430000A52815D140F2D845C2F20005286841F62B
:104310006461C2F20001A5220A5401F0A7F841F637
:1043200078610020C2F20001286020600870B0BDF2
:1043300040F2D840C2F200000021016041F67860EE
:10434000C2F2000021600170B0BD40F2D84CC2F250
:10435000000CDCF80020531E082B1DD841F66461C8
:10436000C2F20001885441F67861C2F20001531C88
:104370000A780A2B1044CCF80030087018BFB0BD82
:1043800002202060B0BD40F2D8420020C2F20002FC
:10439000206010600870B0BD41F678610020C2F264
:1043A000000120600870CCF80000B0BD40F2DE4093
:1043B00040F28C41C2F20000C2F20001007809789C
:1043C000884207D141F67060C2F2000001780131E5
:1043D00001700DE041F67060C2F200000021017032
:1043E00041F64C60C2F20000C0E90011C0E90211C0
:1043F00040F2F05040F28C41C2F20000C2F20001E3
:104400000122FEF7A5B9000010B540F2DF44C2F268
:1044100000042078022812D0012818BF10BD40F2F5
:10442000F010C2F200009FED130ADFED130A9FEDBA
:10443000131A5030F3EE051AB0EE002A0EE040F2E7
:10444000F010C2F20000DFED080ADFED081A9FED60
:10445000082A5030B0EE000AB3EE0D1AFEF7C0FB8A
:104460000020207010BD00BF3333333F000096435F
:10447000CDCC8C40CDCCCCBE666666C09A99E1416D
:10448000B0B52DED0A8B40F22050C2F2000000784A
:1044900090B141F64C65C2F2000595ED031A9FED0F
:1044A000770AB4EE401AF1EE10FA08DD00209FED15
:1044B000790AC4F2B4200EE0BDEC0A8BB0BDBAEEAE
:1044C000080AB4EE401AF1EE10FA4BDA0020CCF2F2
:1044D00040109FED6F0AC5E903006861052000F0F8
:1044E000FFFC95ED041ABBEE068A9FED659A38EE47
:1044F000411A81EE091A9FED63AA9FED63BA9FED01
:1045000063CABDEEC00A10EE104A062021EE0A1A58
:1045100021EE0B1A81EE0C1AB0EE410A00F0E0FC1D
:1045200095ED051ABDEEC00A38EE411A81EE091A62
:1045300010EE105A072021EE0A1A21EE0B1A81EE16
:104540000C1AB0EE410A00F0CBFCBDEEC00A10EE32
:10455000102A204629460023BDEC0A8BBDE8B04056
:10456000FCF72AB8BBEE068A9FED459A38EE410A61
:1045700080EE090A9FED43AA9FED43BA9FED43CA1F
:1045800040F22450C2F2000090ED002A32EE411AAF
:10459000BDEEC11A11EE100A20EE0A0A20EE0B0A37
:1045A00080EE0C0A68B30520FEF7EAFE95ED041ACA
:1045B000BDEEC00A38EE411A81EE091A10EE104A1B
:1045C000062021EE0A1A21EE0B1A81EE0C1AB0EE2B
:1045D000410AFEF7D5FE95ED051ABDEEC00A38EE8C
:1045E000411A81EE091A10EE105A072021EE0A1A1C
:1045F00021EE0B1A81EE0C1AB0EE410AFEF7C0FE56
:104600002CE00520FEF7ECFE95ED041ABDEEC00A85
:1046100038EE411A81EE091A10EE104A062021EEFA
:104620000A1A21EE0B1A81EE0C1AB0EE410AFEF7BF
:10463000D7FE95ED051ABDEEC00A38EE411A81EE9F
:10464000091A10EE105A072021EE0A1A21EE0B1A51
:1046500081EE0C1AB0EE410AFEF7C2FEBDEEC00AB2
:1046600010EE102A204629460023FBF7A5FFBDECDB
:104670000A8BBDE8B04000F0CDB900BF0000B442E5
:104680000000B44300F8FF450070604500003B4364
:104690001B8A88C5C1273FC7B0B52DED068B40F2F8
:1046A000305440F2401040F69001C2F20004C2F2D1
:1046B0000000C2F200012246B0EE418AB0EE609ADC
:1046C000B0EE40AA00F096FB94ED000A40F6E40537
:1046D00094ED011AC2F2000594ED022A3AEE400A66
:1046E0002868A9682A6985ED000A39EE410ADFEDDC
:1046F000710A85ED020A38EE420A6860E9606A6173
:1047000001F032FB95ED003A95ED061A95ED022A7F
:1047100095ED075A95ED0B6A33EE011A95ED087A7F
:1047200085ED061A21EE064A32EE051A85ED071AC6
:1047300026EE015A30EE071A85ED081A26EE011A08
:1047400095ED0C6A85ED040AB4EE464AB1EE467A60
:10475000F1EE10FAF0EE460A85ED0E4A85ED0F5A9D
:1047600085ED101A06DCB4EE474AF1EE10FAF0EED1
:10477000470A03DAB0EE604AC5ED0E0AB4EE465AB7
:10478000F1EE10FAF0EE460A06DCB4EE475AF1EE0E
:1047900010FAF0EE470A03DAB0EE605AC5ED0F0AE0
:1047A000B4EE461AF1EE10FA06DCB4EE471AF1EE5A
:1047B00010FAB0EE476A03DAB0EE461A85ED106AD9
:1047C000D5ED050AD5ED091A95ED016AD5ED0A2A50
:1047D00063EE213A62EE214A60EE211A30EE600A61
:1047E00095ED037A33EE463A22EE800A22EE836A92
:1047F00085ED160A31EE800A32EE472A33EE863A0C
:1048000030EE011A95ED0D0A22EE822A33EE044AAB
:1048100034EE823AB4EE404A33EE053A85ED152A7D
:10482000B1EE402AF1EE10FAB0EE405AC5ED113A61
:10483000C5ED124AC5ED131A85ED146A85ED174AC8
:1048400085ED183A85ED191A02DD85ED175A08E055
:10485000B4EE424AF1EE10FAB0EE425AB8BF85ED1E
:10486000175AB4EE403AF1EE10FAB0EE404A02DDCB
:1048700085ED184A08E0B4EE423AF1EE10FAB0EED7
:10488000424AB8BF85ED184AB4EE401AF1EE10FA6C
:1048900004DD85ED190ABDEC068BB0BDB4EE421AFD
:1048A000F1EE10FAB0EE420AB8BF85ED190ABDEC80
:1048B000068BB0BD0000344340F6E400C2F20000B5
:1048C000243080EC050A70472DE9F0472DED088B68
:1048D000804640F280409FED4C0BC2F200009FEDFD
:1048E0004C8A071D0C1D5AEC109B002509E000BFE7
:1048F00086ED059A86ED071A87ED001A20350834F3
:10490000083708EB050614ED019A96ED01AAB06888
:1049100086ED009A39EE4ABA02F09CFB4A465346AD
:1049200002F0A0F901F010FF01EE100AB0EECB0A80
:10493000B4EE410AF1EE10FAB0EE480A16DDB1EE1F
:10494000410AB5EE40BAF1EE10FAC8BFB0EE410A26
:1049500010EE100A3AEE009A02F07CFB4A465346EB
:1049600001F0CCFF01F0F0FE00EE100A202D86EDE4
:10497000019A86ED030A07ED010A33D094ED009AFF
:1049800096ED05AAB06986ED049A39EE4ABA02F0AE
:1049900061FB4A46534602F065F901F0D5FE00EE90
:1049A000100AB0EECB1AB4EE401AF1EE10FAB0EEE7
:1049B000481A9DDDB1EE401AB5EE40BAF1EE10FA9C
:1049C000C8BFB0EE401A11EE100A3AEE019A02F09A
:1049D00041FB4A46534601F091FF01F0B5FE01EE5E
:1049E000100A85E740F2700040F2804140F27442C4
:1049F000C2F20000C2F20001C2F20002BDEC088B5C
:104A0000BDE8F04700F0F6B9FCA9F1D24D62503F85
:104A10000000000041F64C60C2F20000D0E9031231
:104A2000406940F22453C2F20003C3E900129860C7
:104A3000704700000000000070B52DED048B40F2BF
:104A4000D060C2F20000818AC268836A511A02886B
:104A5000466C114400EE101A018E828B591A1144D3
:104A600001EE101AB0F84C10008F711AB8EEC00A9F
:104A70000844B8EEC18A01EE100A10EE100AB8EE32
:104A8000C19A02F0E7FA9FED1A0B55EC106B324613
:104A90002B4602F0E7F801F057FE40F69004C2F210
:104AA0000004206018EE100A02F0D4FA32462B46B9
:104AB00002F0D8F801F048FE606019EE100A02F02A
:104AC000C9FA32462B4602F0CDF801F03DFE03460E
:104AD00040F2401040F23052C2F20000C2F2000236
:104AE0002146A360BDEC048BBDE8704000F082B9A4
:104AF00036B8D8A0E5DD683F41F68861C2F2000112
:104B00004FF00110086040F2F0500123C2F20000A3
:104B100006228B80FEF744B840F23C51C2F20001FD
:104B200090ED0C1A91ED000A31EE014A34EE000AC4
:104B300081ED001A31EE000AB5EE001A40F2405144
:104B400090ED0D2A20EE010AC2F2000180ED0F0A5D
:104B500091ED000A32EE024A34EE000A81ED002A9D
:104B600032EE000A40F2445190ED0E3A20EE010A76
:104B7000C2F2000180ED100A91ED000A33EE032A23
:104B800032EE000A33EE000A20EE010A81ED003A0F
:104B900080ED110A7047000040F2485240F24C513B
:104BA000C2F2000290ED082AC2F2000192ED001A52
:104BB00091ED000A82ED002A32EE022A81ED001A00
:104BC00032EE011A30EE010AB5EE001A20EE010AAB
:104BD00080ED0B0A7047000040F2505240F25451F1
:104BE000C2F2000290ED022AC2F2000192ED001A18
:104BF00091ED000A82ED002A32EE022A81ED001AC0
:104C000032EE011A30EE010AB5EE001A20EE010A6A
:104C100080ED050A7047000070B540F2C8644AF69E
:104C2000FF2040F23865C2F20004C0F60100C2F273
:104C30000005206000262846214605222671FDF742
:104C4000AFFF4AF6FF20C0F203202060284621462D
:104C500005222671BDE87040FDF7A2BF40F270004A
:104C60004BF2D731C2F20000CBF65D7101614BF21D
:104C7000D731C3F65D71C1617047000040F28C40CE
:104C8000C2F20000007841F6706CC2F2000C48B12C
:104C90009CF8002040F2E041C2F20001531C0422C3
:104CA000087001E00122FF2340F2F05040F28C41F5
:104CB000C2F20000C2F200018CF80030FDF748BDDE
:104CC000B0B541F64C6041F65471C2F20000C2F238
:104CD000000190ED000A91ED003A90ED011A90ED7F
:104CE000022A91ED014A91ED025A40F2904430EED1
:104CF000030AC2F2000431EE041A84ED000A32EE17
:104D0000050A84ED011AFFF797F940F24440C2F218
:104D10000000214684ED020AFFF7D6FD40F2A845C7
:104D200040F27000C2F20005C2F2000021462A469D
:104D300000F060F895ED000A9FED111A012020EEB9
:104D4000010AFEF741FFBDEEC01A95ED010A0220EF
:104D500011EE104AFEF738FFBDEEC01A95ED020ABB
:104D6000032011EE105AFEF72FFFBDEEC00A10EE21
:104D7000102A204629460023BDE8B040FBF7E8BBD7
:104D8000CDCC8C3FFCF742FBFEF74CFFFEF798F9C9
:104D9000FEF75AF9FEF776F9FEF70EFAFEF7B6F9C6
:104DA000FEF728FAFEF7EAF900F026FC41F67964EE
:104DB00040F23C15C2F20004C2F20005002608E0F1
:104DC00000F0D2FEFFF720FB00F05EF8FFF758FB83
:104DD000267020780028FCD02878032806D00228E6
:104DE000EED00128EED1FFF76BFFEBE700F0A2FD5C
:104DF000E8E7000090ED000A90ED011A91ED003A0D
:104E000091ED014A90ED022A91ED025A20EE030A3B
:104E100021EE041A31EE000A22EE051A31EE000AE4
:104E200082ED000A90ED030A90ED041A91ED003A2C
:104E300091ED014A90ED052A91ED025A20EE030A08
:104E400021EE041A31EE000A22EE051A31EE000AB4
:104E500082ED010A90ED060A90ED071A91ED003AF5
:104E600091ED014A90ED082A91ED025A20EE030AD5
:104E700021EE041A31EE000A22EE051A31EE000A84
:104E800082ED020A7047000040F21410C2F20000E6
:104E90000078062818BF704740F2D060C2F20000C8
:104EA00041F68861C38B4288C2F200014B80438F78
:104EB00040F2F0500A80C2F2000006228B80FDF71B
:104EC0006FBE000041F6886140F2F050C2F200016E
:104ED0000023C2F2000006228B800B60FDF760BE4B
:104EE000F0B581B0451E40F2D06240F64C10C5EBE3
:104EF000C501C2F20002C2F20000542602EB810793
:104F0000F0EE400A97ED030A05FB0604B8EEC00A6E
:104F10002046FEF791F941F2CC30C2F20000B7F919
:104F20000210D4ED0A0A05FB060400EE101AB8EED2
:104F3000C00A2046FEF780F994ED0A0A01B0F0BDE0
:104F4000B0B540F28C40C2F2000090F800E0427828
:104F50008378C4784EEA022040F2DD4C40EA0340F8
:104F6000C2F2000C724440EA04659CF8001041F65D
:104F70004C601A4440F2DE43C2F20000C2F2000369
:104F800040F821501D7822442A4402291A700AD878
:104F900040F2DC42C2F200021278002A1EBF00EB8F
:104FA000810000220260481C40F2E041C2F2000190
:104FB0000978C2B28A428CF8000001D2042207E0CC
:104FC00041F67060C2F200000178012201310170E7
:104FD00040F2F05040F28C41C2F20000C2F20001F7
:104FE000BDE8B040FDF7B4BB002908BF7047002101
:104FF00081610181C0E90311018081827047000055
:1050000010B52DED028B10EE100A02F023F841ECE2
:10501000180BB0EE480AF0EE680A00F041FE51ECC1
:10502000100B01F091FB40F21814B0EE480AC2F2E6
:105030000004F0EE680A206000F0EEFE51EC100B68
:1050400001F082FBB0EE480A80F00040F0EE680A02
:10505000606000F0E1FE51EC100B01F075FBB0EE6A
:10506000480AF0EE680AE06000F01AFE51EC100BFE
:1050700001F06AFB2061BDEC028B10BD40F24010D4
:105080004BF2D7314BF2D732C2F20000CBF65D7152
:10509000C3F65D72C0E9041270470000002180ED84
:1050A000010AC0ED020AC0E9071101637047000060
:1050B00090ED012A90ED021AB6EE004A82EE013A16
:1050C00021EE044A002180ED000A80F83810C0E982
:1050D0000711016324EE034A23EE044A80ED0A3AE5
:1050E00034EE043AB4EE404A30EE433AF1EE10FAB0
:1050F00080ED054A80ED063A04DA83EE020A80ED7F
:105100000B0A704780EE010AB1EEC00A80ED0A0A70
:1051100020EE011A9FED030A80ED011A80ED0B0AC3
:10512000704700BF000000002DE9F04F81B02DED69
:105130000A8B90ED009A90ED0AAA90ED0C8AB5EEDC
:10514000409A0446F1EE10FA4BDDB4EE4A8AF1EED5
:1051500010FA80F29380E06901F07CFF94ED02CABE
:10516000B6EE000A2CEE000A804610EE100A8946C0
:1051700001F070FF9FEDB80B5BEC105B2A465B46BD
:1051800001F070FD2A465B4601F06CFD06468A463A
:10519000404649462A465B4601F064FD3246534686
:1051A00001F004FB0646206A0F4601F053FF024659
:1051B0000B463046394601F0F9FA01F0C5FA0BEE1C
:1051C000100A20621CEE100A01F044FF2A465B46DA
:1051D00001F048FD42464B4601F0E8FA01F0B4FA0E
:1051E0000BE1B4EE4A8AF1EE10FA6ADAE06901F0F6
:1051F00031FF94ED02CABEEE000A2CEE000A804692
:1052000010EE100A894601F025FF9FED930B5AEC32
:10521000105B2A46534601F025FD2A46534601F00D
:1052200021FD06460F46404649462A46534601F0B0
:1052300019FD02460B463046394601F01DFE064672
:10524000206A0F4601F006FF32463B4601F0AEFAF7
:1052500001F07AFA0BEE100A20621CEE100A01F03F
:10526000F9FE2A46534601F0FDFC02460B46404635
:10527000494601F001FE01F067FABEE094ED0B0A29
:105280003AEE000AB4EE408AF1EE10FA45DA94EDF7
:10529000010A10EE100A84ED070A01F0DBFE054654
:1052A000206A0E4601F0D6FE9FED6B0B074688463E
:1052B00053EC102B2846314601F0D4FC3A464346C5
:1052C00023E094ED0B0A3AEE000AB4EE408AF1EEC8
:1052D00010FA5ADA94ED010A10EE100A84ED070A6A
:1052E00001F0B8FE0546206A0E4601F0B3FE9FEDC0
:1052F0005C0B0746884653EC102B2846314601F0DC
:10530000B1FC02460B463846414601F04FFA01F027
:105310001BFA0BEE100A206270E0D4E90705D4F8FE
:10532000088001F097FE814628468A4601F092FEE9
:105330009FED490B06465BEC105B0F464846514615
:105340002A465B4601F08EFC32463B4601F02EFABF
:1053500001F0FAF90BEE100A2062404601F07AFEE5
:105360002A465B4601F07EFC02460B464846514603
:1053700001F082FD01F0E8F900EE100AB5EE400AF6
:10538000F1EE10FAE06137DB38E0D4E90705D4F834
:10539000088001F05FFE814628468A4601F05AFEE9
:1053A0009FED2D0B06465BEC105B0F4648465146C1
:1053B0002A465B4601F056FC02460B46304639460B
:1053C00001F05AFD01F0C0F90BEE100A20624046D0
:1053D00001F040FE2A465B4601F044FC4A46534633
:1053E00001F0E4F901F0B0F900EE100AB5EE400A60
:1053F000F1EE10FAE06101DD0020E061B4EE49BA9F
:10540000F1EE10FA0ADA94ED0B0A3AEE0A1A31EECE
:10541000000AB4EE408AF1EE10FA08DD00209FED9C
:10542000128AE061012084ED089A84F8380018EEB1
:10543000100A01F00FFE9FED080B53EC102B01F04A
:10544000B5F901F081F92063BDEC0A8B01B0BDE82C
:10545000F08F00BF00BF00BFFCA9F1D24D62503FEA
:10546000FCA9F1D24D6250BF0000000070B541F6BA
:105470006460C2F20000B0F80710427A49BA00EE48
:10548000101AB0F8051041F67C6449BA01EE101A02
:10549000B0F8031041F6806549BA02EE101A40F2E6
:1054A0004041C2F2000141F6846608780A70511E3C
:1054B000B8EEC00AC2F20004B8EEC11AC2F200058A
:1054C000B8EEC22AC2F200060D2984ED000A85ED6D
:1054D000001A86ED002A26D8DFE801F0070D18250E
:1054E0002525252525382525254940F23C10C2F2E1
:1054F0000000012104E040F23C10C2F20000022151
:10550000017040F2D440C2F200000AE040F23C10C8
:10551000C2F200000321017040F2D440C2F2000048
:105520000421017034E040F2806040F24041C2F258
:105530000000C2F2000101226423FDF7BFFA94EDDE
:10554000000A95ED001A96ED002A21E040F2205065
:10555000C2F200000121017041F64C600021C2F24C
:105560000000C4F28C21C0E90311416110E0102851
:105570000ED140F2DC40C2F200000178E9B1002116
:10558000017041F64C60C2F20000C0E90011816078
:105590009FED0B3A41F6547030EE030A31EE031AD8
:1055A0009FED083AC2F2000033EE422A80ED000A75
:1055B00080ED011A80ED022A70BD0121B1E700BF24
:1055C000000000C500000045002180ED010AC0ED8B
:1055D000020AC0E90711016380ED100AC0ED110A4B
:1055E000C0E91611C16680ED1F0AC0ED200AC0E9AE
:1055F0002511C0F8A8107047B0B540F6B830FBF7D9
:105600000DFEFEF7E1F8FDF71BFFFBF709F8FBF7CE
:1056100035F840F25850C2F20000FBF75BF840F258
:105620008054C2F200042046FBF754F840F2F050D8
:1056300040F28C41C2F20000C2F200010122FDF7EB
:1056400087F840F2386040F2F331C2F20000C2F253
:1056500000010122FDF77CF840F2806041F66461B0
:10566000C2F20000C2F200010122FDF771F8FBF75F
:1056700041F8FFF7D1FAFFF7F1FAFFF7FFFC40F22C
:10568000A850C2F20000FCF7FDFADFED1F0ADFEDC3
:105690001F1A9FED1F2AB2EE040AB0EE601AFFF740
:1056A0000BF940F244409FED1B0AC2F2000000F0EB
:1056B000E9F841F6A0609FED180ADFED180AC2F282
:1056C0000000FFF781FF40F2E4409FED150ADFED97
:1056D000150AC2F20000FFF7E1FC40F2F010C2F23E
:1056E000000000F15005284621460222FDF7DCFBB0
:1056F0002846FDF7A3FB2846FDF76EFC284600214F
:10570000BDE8B040FDF7D4BB000000000000384306
:105710000000FA440080BB4400409C450000C842A1
:105720009A99993ECDCCCC3D00283FD0017890EDA0
:10573000122A90ED133A31EE604A80ED081AC0ED5E
:10574000090A80ED124A80ED132A80ED143A81B3E4
:10575000012940F0928034EE420A90ED015A90ED1A
:10576000026A32EE022A90ED037A34EE422A20EEEB
:10577000050A24EE065A33EE022A80ED0B0AD0E920
:105780000F2180ED0F2A22EE072A30EE050A90ED58
:105790000A3A90ED051A30EE020A33EE000A80ED67
:1057A0000C5AC0E9102180ED0D2A52E09FED340A19
:1057B000704790ED023A90ED0C7A90ED065A23EE88
:1057C000043A90ED011A90ED036A33EE073AD0E9FE
:1057D0000F2134EE422AB4EE453A24EE011A80ED50
:1057E0000F2A22EE062AF1EE10FA80ED0B1A80ED58
:1057F0000C3AC0E9102180ED0D2A06DCB1EE455AC5
:10580000B4EE453AF1EE10FA03DAB0EE453A80ED27
:105810000C5A90ED045A90ED074A25EE000AB4EEBA
:10582000440AF1EE10FA80ED0E0A06DCB1EE444AAD
:10583000B4EE440AF1EE10FA03DAB0EE440A80ED59
:105840000E4A31EE031A32EE012A90ED051A30EEBF
:10585000020AB4EE410AF1EE10FA80ED0A0A07DC02
:10586000B1EE411AB4EE410AF1EE10FAA8BF70474A
:10587000B0EE410A80ED0A1A704790ED0A0A7047AF
:105880000000000080ED020A80ED060A80ED0A0AA1
:105890007047000040F28C40C2F200000078A5285A
:1058A0001DD141F67060C2F2000001780023013181
:1058B000017040F2DD40C2F20000037040F2DE4CA5
:1058C00040F2F05040F28C41C2F2000CC2F20000F3
:1058D000C2F2000101228CF80030FCF739BF80B51C
:1058E00040F2F05040F28C41C2F20000C2F20001DE
:1058F0000122FCF72DFF41F67060C2F2000000218A
:10590000017080BD40F28C40C2F2000000785A283D
:1059100005D141F67060C2F200000021017040F232
:10592000F05040F28C41C2F20000C2F200010122AC
:10593000FCF70EBF2DE9F04140F2D444C2F200045E
:105940002078042808D140F2D060C2F20000032180
:10595000FFF74AFB00202070FFF76EF841F69467CE
:1059600041F64C65C2F20007C2F2000597ED001A3D
:1059700095ED000A9FED7B2A31EE401AB0EEC11A78
:10598000B4EE421A41F6A06441F6986641F69C686E
:10599000F1EE10FAC2F20004C2F20006C2F20008F0
:1059A00019DC96ED001A95ED013A31EE431AB0EE8E
:1059B000C11AB4EE421AF1EE10FA0CDC98ED003A7E
:1059C00095ED021A33EE413AB0EEC33AB4EE423AE4
:1059D000F1EE10FA16DD2046FFF76AFB286895ED18
:1059E000010A386004F13C00FFF762FB686895ED3E
:1059F000020A306004F17800FFF75AFB95ED021AB5
:105A000088ED001A94F8380000284FD094F87400FC
:105A100000284BD094F8B000002847D095EC020A3B
:105A2000FEF73AFE40F6E400C2F2000040F2904178
:105A3000D0E91723406EC2F2000140F2A84488600A
:105A400040F27000C2F20004C1E90023C2F200007B
:105A50002246FFF7CFF994ED000A0120FEF7B4F8D3
:105A6000BDEEC01A94ED010A022011EE105AFEF7A5
:105A7000ABF8BDEEC01A94ED020A032011EE104AF5
:105A8000FEF7A2F8BDEEC00A10EE102A2846214605
:105A90000023FAF75DFD40F21410C2F20000007816
:105AA00006285CD1BDE8F041FFF726B82046FFF795
:105AB0003BFB04F13C00FFF737FB04F17800FFF7F4
:105AC00033FB94ED070AD4ED160A94ED251AFEF780
:105AD000E3FD40F6E400C2F2000040F29041D0E95C
