:020000040800F2
:10000000B812002029020008C31F0008111E0008B2
:10001000C11F00081F040008FD27000800000000A1
:10002000000000000000000000000000CB230008DA
:100030001305000800000000C9230008CD230008B4
:10004000430200084302000843020008430200087C
:10005000430200084302000843020008430200086C
:10006000430200084302000843020008430200085C
:10007000430200084302000843020008430200084C
:10008000430200084302000843020008A1040008DC
:1000900095040008430200084302000843020008D8
:1000A00043020008752400084302000843020008C8
:1000B000430200084302000843020008430200080C
:1000C00043020008430200084302000843020008FC
:1000D0004302000843020008F12700084302000819
:1000E00043020008430200084302000843020008DC
:1000F00043020008430200084302000843020008CC
:1001000043020008430200084302000843020008BB
:1001100043020008430200084302000843020008AB
:10012000430200084302000843020008430200089B
:10013000430200084302000843020008E9040008E3
:10014000DD040008430200084302000843020008DF
:10015000430200084302000843020008430200086B
:10016000430200084302000843020008430200085B
:100170004302000843020008430200080000000098
:10018000430200084302000800F002F800F03CF8C7
:100190000AA090E8000C82448344AAF10107DA45E2
:1001A00001D100F031F8AFF2090EBAE80F0013F0F8
:1001B000010F18BFFB1A43F0010318478427000002
:1001C000A4270000103A24BF78C878C1FAD8520793
:1001D00024BF30C830C144BF04680C6070470000C1
:1001E0000023002400250026103A28BF78C1FBD840
:1001F000520728BF30C148BF0B6070471FB502F0DF
:100200008EFB1FBD10B510BD00F0D4F81146FFF7EE
:10021000F5FF02F02BFB00F0F2F803B4FFF7F2FF5A
:1002200003BC00F0F5F80000094880470948004782
:10023000FEE7FEE7FEE7FEE7FEE7FEE7FEE7FEE796
:10024000FEE7FEE704480549054A064B70470000F3
:100250006524000889010008B80C0020B8120020AD
:10026000B80E0020B80E002053EA020C00F069809E
:100270002DE9F04B4FF00006002B1FBFB3FA83F5BA
:1002800003FA05F424FA05F65E4012BF1643B2FAEB
:1002900082F502FA05F4C5F120051EBF22FA05FC1D
:1002A00044EA0C04203556EA044C4FEA144418BFC3
:1002B000641C4FF000084FF00009904271EB030CF2
:1002C00039D3002919BFB1FA81F701FA07F6B0FA5C
:1002D00080F700FA07F6C7F120071EBF20FA07FCD7
:1002E00046EA0C062037B6FBF4FCA7EB0507103FE7
:1002F00007F01F0BCBF120060CFA0BFB2CFA06F6CD
:1003000044BFB3460026202FA4BF5E464FF0000B2B
:100310005BEA060C08BF4FF0010B19EB0B09ABFBB6
:10032000027C48EB0608C01B06FB02CC0BFB03CC8F
:1003300071EB0C01C1E70B46024641464846BDE859
:10034000F08B13B54FF000004FF00001AFF30080C9
:10035000BDE81C4070474FF0000200B513469446BC
:100360009646203922BFA0E80C50A0E80C50B1F10D
:100370002001BFF4F7AF090728BFA0E80C5048BF21
:100380000CC05DF804EB890028BF40F8042B08BFBF
:10039000704748BF20F8022B11F0804F18BF00F8BB
:1003A000012B704770477047704700000048704746
:1003B000540C00207546FFF7F9FFAE46050069466C
:1003C000534620F00700854618B020B5FFF73AFFE6
:1003D000BDE820404FF000064FF000074FF0000846
:1003E0004FF0000B21F00701AC46ACE8C009ACE8C7
:1003F000C009ACE8C009ACE8C0098D46704710B52B
:100400000446AFF300802046BDE81040FFF705BF6B
:1004100001491820ABBEFEE7260002007047FEE748
:1004200038B50E4C40F2FF1525600025A560E5604B
:10043000082525610A4C050A25706070080AA0701D
:10044000E170100A20716271180AA071E3716B46A5
:1004500022460249034800F071F838BD3C030020F1
:10046000160000209C00002000B58BB00020012168
:10047000CDE906010891009001900290039005904B
:1004800004906946024800F0C1F80BB000BD0000BE
:100490009C000020014800F0BAB900009C00002038
:1004A000014800F0B4B900009C00002000B58BB0FA
:1004B00001210020CDE9060108910E21009009914B
:1004C000019002900591039004906946024800F063
:1004D0009DF80BB000BD0000C4000020014800F0F2
:1004E00096B90000C4000020014800F090B9000057
:1004F000C400002010B5044600F0FCFB0221204699
:1005000000F00AF8002803D0BDE8104000F002B85F
:1005100010BD704772B6FEE790F82020012A07D080
:10052000022A05D0416A41F48021416201207047CE
:10053000006842690A43426100207047F0B590F8B4
:1005400020500468A468012D05D0022D03D0416A13
:1005500041F4802157E014F0406F01D1E5004FD500
:10056000C4F301640125A5401D608D684FF4C0737C
:100570009DB1CE6835434E6845EAC605066803EB73
:100580000417F5514FF4C275076805EB04150E69A1
:100590007E51097D012905D009E00E88CD6845EA24
:1005A0004655EBE701684E5946F480764E51117975
:1005B000D579567941EA056195792D0445EA0625F4
:1005C00029434FF4C676056806EB0416A951117845
:1005D000D57841EA0561957852782D0445EA0222E2
:1005E00011434FF4C475026805EB041551510068BE
:1005F00003EB0411425842F0010242500020F0BDCA
:10060000416A41F4001141620120F0BD10B590F83B
:100610002020012A07D0022A05D0416A41F4802116
:100620004162012010BD3B48D0F8002242F0010297
:10063000C0F80022D0F8002222F47C52C0F8002238
:10064000D0F800224B6A42EA0322C0F800220A7D59
:1006500002F01F0301229A40D0F81C329343C0F8E5
:100660001C32CB69B3B9D0F80C329343C0F80C32CA
:100670008C894B6864F31F434C6900EBC404C4F8D5
:1006800040320C890B6864F31F434C6900EBC404CF
:10069000C4F84432CB69012B16D1D0F80C32134385
:1006A000C0F80C320C884B6864F31F434C6900EBB4
:1006B000C404C4F840320C89CB6864F31F434C690E
:1006C00000EBC404C4F844328B69002BD0F8043228
:1006D0000ED01343C0F804320B69002BD0F814324B
:1006E00008D01343C0F81432096A012904D008E085
:1006F0009343EFE79343F5E7D0F81C121143C0F89A
:100700001C12D0F8001221F00101C0F800120020E4
:1007100010BD000000640040704770B590F82040A4
:10072000012C05D0022C03D0416A41F4802128E03D
:10073000046809B32469A40720D04FF4D87405686D
:1007400004EB01142D5915F00405956005682D5929
:100750001AD0ED08556005682C5904F00204D460E5
:100760004FF4DA74056804EB01142E5906F00F06F5
:10077000082E0CD308250DE0E468DCE7416A41F45B
:1007800000114162012070BD6D0D1560E3E72D5928
:1007900005F00F05156105682D59C5F3072595610D
:1007A00005682C59240C54614FF4DC72046802EB88
:1007B0000112A4581C700468A458240A5C700468D0
:1007C000A458240C9C700468A258120EDA704FF4DE
:1007D000DE72046802EB0112A4581C710468A4586C
:1007E000240A5C710468A458240C9C710468A25803
:1007F000120EDA71006829B1016941F0200101612E
:10080000002070BDC16841F02001C160F8E72DE90A
:10081000F05F0546006800244669D0F804908768B8
:10082000D0F80CB0D0F810A0D0F81880F10748D05C
:10083000F90714D001218160B80703D5284600F0DC
:1008400086FA0CE0780702D54FF4006407E0380719
:1008500002D54FF4805402E0284600F077FAF805FC
:1008600016D529684FF480708860B80503D52846EE
:1008700000F06FFA0CE0780502D544F4005407E06C
:10088000380502D544F4804402E0284600F060FABE
:10089000F80316D529684FF480308860B80303D573
:1008A000284600F058FA0CE0780302D544F40044DE
:1008B00007E0380302D544F4803402E0284600F013
:1008C00049FA300707D55FEACB6004D529681020C4
:1008D00044F40074C86070074FF0080707D55FEA5A
:1008E0000B7004D52868C760284600F0ABF9B00744
:1008F00006D52868C068800702D0284600F0A4F911
:10090000700607D55FEACA6004D52968102044F450
:1009100080640861B00607D55FEA0A7004D52868CC
:100920000761284600F0E2F9F00606D5286800695C
:10093000800702D0284600F0DAF9B00308D55FEA54
:10094000C96005D5296810204860284600F0D0F914
:10095000F00307D55FEA097004D528684760284688
:1009600000F0FAF9300446D55FEA497040D5F00549
:1009700004D55FEAC87001D044F00104B00504D585
:100980005FEA887001D544F00204700504D55FEA7F
:10099000487001D544F00404300529D518F0700FD3
:1009A00026D008F07000402815D006DC102809D0A9
:1009B00020280AD0302816D10AE050280ED060280E
:1009C00011D10EE044F008040DE044F010040AE0F8
:1009D00044F0200407E044F0400404E044F08004C4
:1009E00001E044F480742868816921F0700181611C
:1009F000296804204860002C05D0686A204368629A
:100A00002846FFF789FEBDE8F09F70B5040003D0CB
:100A100094F8200010B104E0012070BD204600F0E1
:100A200081F82068016841F00101016000F000FBDD
:100A30000546052604E000F0FBFA401B0A2811D801
:100A400020684068C007F6D02068016821F00201E4
:100A5000016000F0EDFA05460BE000F0E9FA401BFA
:100A60000A2806D9606A40F40030606284F8206089
:100A7000D2E7206840688007EFD4207E01282068F4
:100A800001683DD021F080010160607E012820686E
:100A9000016838D021F040010160A07E0128206863
:100AA000016833D021F020010160E07E0128206838
:100AB00001682ED041F010010160207F01282068DC
:100AC000016829D021F008010160607F01282068B9
:100AD000016824D021F004010160D4E90201084337
:100AE000D4E90412114308436168491E0843216890
:100AF000C86100206062012084F82000002070BDE1
:100B000041F08001C0E741F04001C5E741F020011C
:100B1000CAE721F01001CFE741F00801D4E741F026
:100B20000401D9E7F0B587B0044614216846FFF701
:100B300012FC3F4B3F48DFF8F4E01968D4F800C0DE
:100B40003C4A02250326092710300024491CF4459D
:100B50002CD11960012907D1016841F000710160B1
:100B6000006800F000700590106840F0010010600F
:100B7000106802AB00F0010005904FF4C050CDE9C1
:100B8000000583E8D00069462B4800F053F90022A5
:100B90001146132000F0BAFA132000F0A9FA00223F
:100BA0001146142000F0B2FA14203BE0DFF88CE08C
:100BB000F44539D1D0F800C04CF0806CC0F800C0CA
:100BC000D0F800C001290CF0806CCDF814C0196079
:100BD00007D1016841F000710160006800F0007009
:100BE0000590106840F002001060106802AB00F041
:100BF000020005904FF44050CDE9000583E8D00095
:100C000069460F4800F016F9002211463F2000F017
:100C10007DFA3F2000F06CFA00221146402000F0DF
:100C200075FA402000F064FA07B0F0BD006400409F
:100C30000000002030380240000002400068004000
:100C4000000402407047000030B5054600682349A3
:100C5000234C8BB088421CD107AB6A460021284642
:100C6000FFF75BFD0098A0F20120062811D8C0B262
:100C70002070C0EBC0011B4800EB810081694A1C59
:100C80003229826107A902D801F0EAFD01E001F0F2
:100C9000C6FD1549286888421AD109AB6A46002169
:100CA0002846FFF73AFD0098A0F2012006280FD849
:100CB000C0B26070C0EBC0010A48E03000EB8100B8
:100CC00081694A1C3229826109A903D801F0C8FD53
:100CD0000BB030BD01F0A3FDFAE700000064004056
:100CE000140000207C01002000680040704770471D
:100CF0007047000070B5044690F82000012804D029
:100D0000606A40F40020606218E0022084F820004D
:100D10002068016821F00101016000F089F90546B1
:100D20000EE000BF00F084F9401B0A2808D9606A71
:100D300040F400306062052084F82000012070BD7E
:100D400020684068C007EDD1606270BD7047704791
:100D5000704770477047704770472DE9F04104466F
:100D6000876D00F065F9064694F8350000250228E5
:100D700006D08020606584F834500120BDE8F08101
:100D80002068016821F0160101602068416921F0A6
:100D900080014161206C08B9A06C20B12068016815
:100DA00021F0080101602068016821F00101016063
:100DB0000CE000F03DF9801B052807D92020606574
:100DC000032084F8350084F83450D7E720680068A1
:100DD000C007EED194F85C103F208840B860012035
:100DE00084F8350084F834500020C7E790F83510B7
:100DF000022903D08021416501207047052180F838
:100E000035100068016821F0010101600020704781
:100E100070B5044600F00CF90546601C02D0044889
:100E20000078044400F004F9401BA042FAD370BDDE
:100E3000040000202DE9F84FDFF8BCA100220125B5
:100E400003264FF00F090AF1040BAAF1040E00BFAC
:100E50000B6805FA02F42340A34270D10F7907F022
:100E60000307012F01D0022F16D187684FEA4208ED
:100E700006FA08FC27EA0C07D1F80CC00CFA08FCAB
:100E80004CEA070CC0F808C04768A7430C79C4F3C4
:100E9000001494403C4344600C79E443A4070AD016
:100EA000C4684FEA420C06FA0CF7BC438F6807FA95
:100EB0000CF72743C7600C7904F00304022C12D10D
:100EC000D40800EB840CDCF820405707FF0E09FA29
:100ED00007F824EA0804D1F8108008FA07F848EA6D
:100EE0000408CCF8208004684FEA420C06FA0CF79C
:100EF000BC430F7907F0030707FA0CF72743076095
:100F00004C6814F4403F70D03C4C276847F480474D
:100F10002760246822F0030704F480440094384CCE
:100F200007EB040CDCF8084897074FEA177809FA32
:100F300008F7BC43334FB84202D1002724E054E005
:100F4000314FB84201D101271EE0304FB84201D1E4
:100F5000022719E02E4FB84201D1032714E02D4F8C
:100F6000B84201D104270FE02B4FB84201D1052729
:100F70000AE02A4FB84201D1062705E0284FB842BF
:100F800001D1072700E0082707FA08F72743CCF824
:100F90000878DAF800405746D1F804C09C435FEA6D
:100FA000CC2C00D51C433C60DBF800405F46D1F8F8
:100FB00004C09C435FEA8C2C00D51C433C60DEF8E7
:100FC00000407746D1F804C09C435FEA8C3C00D5D2
:100FD0001C433C60084F083F3C68D1F804C09C4368
:100FE0005FEACC3C00D51C433C60521C102AFFF445
:100FF0002FAFBDE8F88F0000083C014044380240A4
:10100000003001400000024000040240000802409D
:10101000000C024000100240001402400018024080
:10102000001C02400AB1816170470904FBE700001F
:101030000148806870470000040000200248816871
:101040000278114481607047040000200B4810B5FD
:10105000016841F400710160016841F48061016040
:10106000016841F480710160032000F06FF80F20E7
:1010700000F006F800F024F8002010BD003C02400B
:1010800070B50D4D04464FF47A712878B1FBF0F03D
:101090000A490968B1FBF0F000F00AFB48B9102CCE
:1010A00007D200222146501E00F030F800206C606C
:1010B00070BD012070BD0000040000201000002061
:1010C0000A4808B5016841F480410160006800F4F5
:1010D000804000900548001F016841F08051016088
:1010E000006800F08050009008BD000044380240C5
:1010F000002809DB00F01F02012191404009800017
:1011000000F1E020C0F8001170470000F0B40E4B71
:101110001B680C46C3F30223C3F10705042D00D955
:101120000425191D072901D2002300E0DB1E01263A
:1011300006FA05F1491E214099409E40761E164050
:101140003143F0BC01F05BBB0CED00E0064900F060
:10115000070208684FF6FF03184040EA0220034ADE
:1011600010430860704700000CED00E00000FA0535
:101170002DE9F0470E46050065D0DFF81481D8F858
:101180000000F7B200F00700B04207D288F8007004
:10119000D8F8000000F00700B04254D128683D4C58
:1011A000810712D5400703D5206840F4E050206045
:1011B0002878000703D5206840F46040206020684C
:1011C000A96820F0F000084320602878C0072DD0DF
:1011D000304968680839012812D0022813D0032842
:1011E00011D00968890700292DDA216821F003014F
:1011F00001432160FFF71CFF814641F2883A0EE06F
:1012000009688903EFE709688901ECE7FFF710FF38
:10121000A0EB0901514502D90320BDE8F087206801
:10122000696800F00C00B0EB810FEFD1D8F8001026
:10123000404601F00701B14207D90770006800F08D
:101240000700B04201D00120E7E72878400705D524
:101250002068E96820F4E0500843206028780007FF
:1012600006D52068296920F4604040EAC10020606A
:1012700000F038F82168084AC1F30311515CC840F6
:101280000649086006480068FFF7FAFE0020C4E738
:10129000003C0240083802402829000810000020C5
:1012A000080000200448054900680968044AC1F3A1
:1012B0008221515CC840704710000020083802406D
:1012C000382900080448054900680968044AC1F340
:1012D0004231515CC840704710000020083802407D
:1012E00038290008154810B5006810F00C021448A1
:1012F00013D04110042A0FD0082A0ED10F4C241FFE
:101300002268236802F03F025B0207D52068C0F321
:101310008810A0FB010106E0084610BD2168C1F35A
:101320008811A1FB00010023FEF79EFF2168C1F395
:101330000141491C4900B0FBF1F010BD08380240E2
:101340000024F4002DE9F84F04006ED02078DFF877
:101350004C93C007A9F104054AD009F104000168C3
:10136000C1F38101012908D00068C0F3810002287F
:101370000AD1D9F80000400206D52868800337D585
:1013800060680028E1D033E06068B0F5803F10D09D
:10139000B0F5A02F286810D020F48030286028688D
:1013A00020F4802028606068A8B1FFF741FE06465F
:1013B0000DE0286840F48030F4E740F48020286095
:1013C000F7E700BFFFF734FE801B642873D8286856
:1013D0008003F7D50CE0FFF72BFE064605E000BFC3
:1013E000FFF726FE801B6428F0D828688003F7D416
:1013F0002078DFF8AC8280074FF0000A3ED5A7487E
:10140000001D016811F00C0F08D00068C0F38100C6
:1014100002280BD1D9F80000400207D428688007C1
:1014200016D5E068012800D112E033E1E068B8B1D8
:101430000120C8F80000FFF7FBFD064605E000BFED
:10144000FFF7F6FD801B0228C0D828688007F7D573
:101450002868216920F0F80040EAC10028600DE00A
:10146000C8F800A0FFF7E4FD064604E0FFF7E0FD42
:10147000801B02281FD828688007F7D4207800072F
:1014800022D5864F87486169703771B101210160AB
:10149000FFF7CEFD064604E0FFF7CAFD801B0228D9
:1014A00009D838688007F7D50EE0C0F800A0FFF72C
:1014B000BFFD064605E082E0FFF7BAFD801B02286B
:1014C0007DD838688007F7D42078400768D5DFF8E2
:1014D000CCB100270BF13C0BDBF80000C0000BD4B3
:1014E000DBF8001041F08051CBF80010DBF8000071
:1014F000012700F0805000906B4E3068C00510D47A
:10150000306840F480703060FFF792FD009005E095
:10151000FFF78EFD0099401A022850D83068C005A8
:10152000F6D55E4EA0686C3601280FD005283068CD
:1015300010D020F001003060306820F004003060EE
:10154000A068B8B1FFF774FD00900FE0306840F07C
:101550000100F4E740F004003060F7E7FFF768FDB2
:101560000099411A41F28830814266D8306880077C
:10157000F4D50EE0FFF75CFD009007E0FFF758FDA3
:101580000099411A41F28830814256D8306880076C
:10159000F4D42FB1DBF8001021F08051CBF800100B
:1015A000A069C8B33D49091D0968C1F38101022939
:1015B0004AD00228504607D0C8F8600000E03CE05E
:1015C000FFF736FD04463BE04746C8F86000FFF7EA
:1015D0002FFD064605E000BFFFF72AFD801B02280D
:1015E0002BD828688001F7D4D4E907010843A16A01
:1015F0002E4A490802EB0141626A41EA821108431E
:1016000094F82C1040EA0161C9F8001001203866F6
:10161000FFF70EFD044606E03EE000BFFFF708FDC1
:10162000001B022809D828688001F7D534E000BFE4
:10163000FFF7FEFC001B022802D90320BDE8F88F4B
:1016400028688001F4D427E00128F7D0D9F80000F9
:10165000E26900F4800191421CD1226A00F03F014E
:10166000914217D147F6C071626A0140B1EB821F07
:1016700010D1A26A4FF0FF3300F4403103EB520265
:10168000B1EB024F06D194F82C1000F07060B0EB73
:10169000016F01D00120D1E70020CFE704380240DC
:1016A00000004742800E4742007000400000FFFFEC
:1016B00010B5401EB0F1807F01D3012010BD4FF066
:1016C000E02460610F21601701F099F80020A0610B
:1016D00007202061002010BD7047704770B590F85A
:1016E0003C20012A32D0012480F83C40022280F8BC
:1016F0003D2003685A689D6822F070060A683243EC
:101700005A60134B02689A4214D0B2F1804F11D044
:10171000104B9A420ED0104B9A420BD00F4B9A426C
:1017200008D00F4B9A4205D00E4B9A4202D00E4B76
:101730009A4204D1496825F080031943916080F8EA
:101740003D40002180F83C10084670BD022070BD6D
:10175000000001400004004000080040000C004070
:1017600000040140004001400018004010B5040092
:1017700003D094F83D0010B107E0012010BD002017
:1017800084F83C00204600F01FF8022084F83D0059
:10179000211D206800F074FE012084F8460084F8C2
:1017A0003E0084F83F0084F8400084F8410084F84B
:1017B000420084F8430084F8440084F8450084F82B
:1017C0003D00002010BD000008B500680B498842AC
:1017D00012D10B48016841F001010160006800224C
:1017E00000F00100009011461920FFF78FFCBDE8C2
:1017F00008401920FFF77CBC08BD00000000014034
:101800004438024090F83D10012901D00120704772
:10181000022180F83D100168CA6842F00102CA60E6
:1018200000681149884214D0B0F1804F11D00F499F
:1018300088420ED00E4988420BD00E49884208D00B
:101840000D49884205D00D49884202D00C49884292
:1018500004D1816801F00701062903D0016841F035
:1018600001010160002070470000014000040040B9
:1018700000080040000C004000040140004001400E
:101880000018004070B5044690F83C00002501287F
:1018900017D0012684F83C60022084F83D002068BF
:1018A000826822F0770222F47F4282600868502822
:1018B00038D00DDC20284FD005DC90B3102811D192
:1018C0004AE0022070BD302846D040280AD13BE0D3
:1018D00060282FD070280DD0B0F5805F03D0B0F510
:1018E000005F12D0012584F83D60002084F83C00A0
:1018F000284670BDCB68D1E90121206800F02CFE9C
:101900002068816841F0770109E0CB68D1E90121C5
:10191000206800F021FE2068816841F480418160E8
:10192000E1E719E0CA684968206800F027FE502105
:10193000206806E0CA684968206800F030FE60212F
:10194000206800F013FECEE7CA684968206800F0FE
:1019500015FE40212068F4E7226801461046F0E7B2
:1019600070472DE9F04104460068C66805694FF0EC
:101970000007A90713D5B10711D5F91E0161012090
:101980002077206880698007204602D0FFF7E8FFB3
:1019900004E000F07EF8204600F07CF82777680726
:1019A00016D5700714D521686FF004000861022075
:1019B00020772068806910F4407F204602D0FFF72E
:1019C000CFFF04E000F065F8204600F063F82777C9
:1019D000280715D5300713D521686FF00800086176
:1019E000042020772068C0698007204602D0FFF7D6
:1019F000B7FF04E000F04DF8204600F04BF82777E1
:101A0000E80616D5F00614D521686FF010000861BD
:101A1000082020772068C06910F4407F204602D05B
:101A2000FFF79EFF04E000F034F8204600F032F8A3
:101A30002777E80708D0F00706D021686FF001008B
:101A40000861204600F028F8280608D5300606D59B
:101A500021686FF0800008612046FFF73DFE6806B0
:101A600008D5700606D521686FF040000861204651
:101A700000F022F8A8060AD5B00608D521686FF054
:101A8000200008612046BDE8F041FFF726BEBDE812
:101A9000F08170477047000006480178491CC9B2C0
:101AA00001704278521C42702D2901D10021017031
:101AB0007047000098000020704770477047000092
:101AC000F8B5016804460868CA684B6910F00F0F42
:101AD0004FF0000559D003F0010602F49077374328
:101AE00065D0C10705D0D10503D5616C41F0010176
:101AF0006164410705D5D90703D0616C41F002014B
:101B00006164810705D5D90703D0616C41F00401F8
:101B10006164010707D502F02001314303D0616CF5
:101B200041F008016164616C00293AD0800604D557
:101B3000900602D5204600F073FD20684069616C74
:101B4000C0F38010090700D460B3204600F041FDC7
:101B500020684069400621D52068143050E8001FF5
:101B600021F0400140E80012002AF5D1E06BA8B155
:101B70006E490165E06BFFF739F9002811D0E06B81
:101B8000016D01B0BDE8F040084783060FD593060C
:101B90000DD52046BDE8F84000F042BD2046FFF7D5
:101BA0008DFFF8BD2046FFF789FF6564F8BD266B01
:101BB0002023012E7DD1C6067BD5D60679D50868AF
:101BC0004868009048694FF00206400641D5E16B35
:101BD000086840680004000CE8D0A28D8242E5D974
:101BE000E085C869B0F5807F2DD020680C3050E8C2
:101BF000001F21F4807140E80012002AF5D120680E
:101C0000143050E8001F21F0010140E80012002AC2
:101C1000F5D12068143050E8001F21F0400140E861
:101C20000012002AF5D184F84230256320680C3078
:101C300050E8001F21F0100140E80012002AF5D101
:101C4000E06BFFF78AF86663A08DE18D401A81B2E0
:101C50002AE0A08DE18D401A81B2E08D0028A5D048
:101C60000029A3D022680C3252E8000F20F49070B3
:101C700042E80007002FF5D12068143050E8002F0B
:101C800022F0010240E80027002FF5D184F842300D
:101C9000256320680C3050E8002F22F0100240E845
:101CA0000023002BF5D166632046FFF706FFF8BD41
:101CB000FFE705062BD5150629D594F84100212804
:101CC000F5D1A068B0F5805F01D12069B0B1206A7C
:101CD000411C2162216800784860E08C401E0004AD
:101CE000000CE084E3D12068C16821F08001C1606C
:101CF0002068C16841F04001C160D8E7206A0088CF
:101D0000C0F308004860206A801C2062E5E74006B6
:101D1000CDD55006CBD5CA68204622F04002CA6015
:101D200084F8413000F073F8C1E70000C3250008D3
:101D300070B5040004D094F84100002510B106E00D
:101D4000012070BD84F84050204600F023F8242084
:101D500084F841002068C16821F40051C160204628
:101D600000F0C0FC2068016921F490410161206805
:101D7000416921F02A0141612068C16841F40051A4
:101D8000C1606564202084F8410084F842006563E6
:101D9000002070BD10B586B0044614216846FEF7D9
:101DA000DAFA17492068884228D1164800210268CB
:101DB00042F400320260006800F4003005901148DF
:101DC0001038026842F001020260006800F0010071
:101DD00005900C2000900220CDE901010320039022
:101DE0000720049069460848FFF724F800221146AE
:101DF0002620FFF78BF92620FFF77AF906B010BDF1
:101E000000440040403802400000024070477047E4
:101E1000FEE700000F4810B50D4901600321416045
:101E200000214FF4C0228160C0E903124FF4A002E8
:101E30004261017641768176C17601774177FEF77E
:101E4000E4FD002803D0BDE81040FEF763BB10BDE1
:101E5000006400409C0000200F4810B50D4901604F
:101E60000321416000214FF4C0228160C0E90312C8
:101E70004FF4A0024261017641768176C176017706
:101E80004177FEF7C2FD002803D0BDE81040FEF701
:101E900041BB10BD00680040C400002070B586B092
:101EA00014216846FEF757FA1A480024016841F0E9
:101EB00004010160016801F004010591016841F02D
:101EC00080010160016801F080010591016841F025
:101ED00001010160016801F001010591016841F013
:101EE0000201016000680C4E00F002004FF4005542
:101EF0000590002229463046FFF794F8012000950E
:101F0000CDE90104694630460394FEF793FF06B01D
:101F100070BD0000303802400008024010B586B0A5
:101F200000241848009401940294039404941449E2
:101F30000594016044F2A011C0E9011442F210714D
:101F4000C0E9031444618461FFF710FC08B1FEF797
:101F5000E1FA4FF48050009069460A48FFF792FC7E
:101F600008B1FEF7D7FA049404A906480594FFF7D0
:101F7000B5FB002801D0FEF7CDFA06B010BD000079
:101F800000000140EC0000200C4810B50A49016037
:101F90004FF416514160002181600C22C160C0E9FC
:101FA00004128161C161FFF7C3FE002803D0BDE8C0
:101FB0001040FEF7AFBA10BD0044004034010020CD
:101FC000FEE7FEE7A0B1D0ED101AC0ED111A90EDBA
:101FD0000F1A80ED101AC0ED060A80ED070A30EEE8
:101FE000C00A80ED0F0A017829B101293BD078E0C1
:101FF0009FED3D0A7047D0ED010A60EE801AC0EDFA
:10200000091AD0ED0A0A90ED022A42EE000A30EEDB
:10201000410AC0ED0A0A90ED0D2A80ED0E2A90EDDE
:102020000C2A80ED0D2A80ED0C0A90ED031A21EEAA
:10203000001A80ED0B1A90ED050AF4EEC00AF1EEDD
:1020400010FA09DCB1EE400AF4EEC00AF1EE10FA23
:1020500002D390ED0A0A01E080ED0A0A31EE800A0F
:1020600030EE010A2BE070EE410A90ED012A20EEDD
:10207000822A80ED092AD0ED020A60EE800AC0EDC6
:102080000A0AD0ED0D2A72EE200AC0ED0E2AD0ED1C
:102090000C2AC0ED0D2AF0EE002A01EE620A30EEA5
:1020A000210A80ED0C0A90ED031A21EE000A80ED62
:1020B0000B0A30EE800AD0ED080A30EE200A80EDDF
:1020C000080AD0ED040AB4EEE00AF1EE10FA06DCDC
:1020D000F1EE600AB4EEE00AF1EE10FA01D2C0EDC2
:1020E000080A90ED080A7047000000002DE9F04F43
:1020F0002DED088B83B0DFED739A9FED73AA734CBF
:10210000DFED738A04F5107504F590699FED718A0F
:1021100004F5D8689FED709ADFED70BADFED70AA14
:102120009FED70BA00E04EBB2046F0EE680AB0EEBC
:102130006B0A6D4A002100F0DFF86B4A2846F0EE8A
:10214000690AB0EE6B0A0C32002100F0D5F8664A3D
:102150004F464846F0EE4A0AB0EE480A6032002187
:1021600000F0CAF8604A4046F0EE490AB0EE480A6C
:102170006C32002100F0C0F80126B9465A4A06EB3D
:10218000C60704EBC700F0EE680AB0EE480A183242
:10219000002100F0B1F8544A05EBC700F0EE690ADF
:1021A000B0EE480A2432002100F0A6F84E4A09EBAE
:1021B000C700F0EE4A0AB0EE6A0A6032002100F071
:1021C0009BF8494A08EBC700F0EE490AB0EE4B0A0B
:1021D0006C32002100F090F8761C042EA3DBDFEDBA
:1021E000439A9FED43AADFED43AA04F59070019056
:1021F00005F5907009F5907A08F5907B009001E064
:10220000042E28D1384AF0EE490AB0EE480A30329E
:102210000021019800F070F8334AF0EE690AB0EE40
:10222000680A3C320021009800F066F82E4A5046B9
:10223000F0EE680AB0EE480A6032002100F05CF867
:10224000294A5846F0EE4A0AB0EE6A0A6C3200217A
:1022500000F052F80526244A06EBC60704EBC70037
:10226000F0EE490AB0EE480A4832002100F044F886
:102270001D4A05EBC700F0EE690AB0EE680A543259
:10228000002100F039F8184A09EBC700F0EE680A9F
:10229000B0EE480A6032002100F02EF8124A08EB36
:1022A000C700F0EE4A0AB0EE6A0A6C32002100F074
:1022B00023F8761C082EA3DB03B0BDEC088BBDE829
:1022C000F08F000000409C450000FA4554030020B8
:1022D0000080BB4500401C4600803B4500007A461C
:1022E00000606A4600803B462000002000007A44DF
:1022F000000096430000C843002828D0002A26D0BA
:10230000017092ED001A80ED011A92ED011A80ED34
:10231000021A92ED021A80ED031A80ED040A9FED75
:102320000C0AC0ED050A80ED0E0A80ED0D0A80ED65
:102330000C0A80ED080A80ED0B0A80ED0A0A80ED98
:10234000090A80ED110A80ED100A80ED0F0A70472E
:10235000000000000B4AC0EBC00110B502EB810188
:10236000F0EE400A11ED040A00EBC0010648B8EE99
:10237000C00A00EBC104A4F14800FFF723FE14EDEE
:102380000A0A10BD7C010020940500200C4AC0EB15
:10239000C00110B502EB8101F0EE400A31F91A1CC0
:1023A00000EE101A00EBC0010648B8EEC00A00EBC0
:1023B000C104A4F14800FFF705FE14ED0A0A10BDA0
:1023C0007C0100205403002070477047FEF736BEA2
:1023D00030B593B030216846FDF7BDFF14210CA83D
:1023E000FDF7B9FF1D480025016841F080510160EB
:1023F000006800F0805011901948016841F4804154
:1024000001600068022400F48040119001200090D7
:10241000000401908001CDE9064008AA0420A8210B
:1024200082E813000B906846FEF78CFF08B172B685
:10243000FEE70CA90F2081E831004FF4A0500F9067
:102440004FF48050109005210CA8FEF791FE002853
:1024500001D072B6FEE713B030BD00004038024034
:10246000007000400248016841F47001016070474B
:1024700088ED00E00148FFF774BA0000EC0000208E
:10248000F0B50268294C2A4D2A4E2B4F2B4B4FF0AA
:10249000804CA04209D0604507D0A84205D0B04288
:1024A00003D0B84201D0984204D122F0700E4A689D
:1024B00042EA0E02A0421BD0604519D0A84217D0B4
:1024C000B04215D0B84213D0984211D01C4DA8424A
:1024D0000ED01C4DA8420BD01B4DA84208D01B4D5E
:1024E000A84205D01A4DA84202D01A4DA84203D1E5
:1024F00022F44075CA682A434D6922F080022A43BB
:1025000002608A68C2620A688262A04201D0984270
:1025100001D109690163012141610169C90703D042
:10252000016921F001010161F0BD000000000140DE
:102530000004004000080040000C0040000401407E
:1025400000400140004401400048014000180040A4
:10255000001C00400020004010B5846842EA0322BD
:1025600024F47F440A432243826010BD826822F033
:1025700070020A4342F007018160704710B5036A98
:10258000046A24F001040462846924F0F00444EA3B
:10259000021423F00A020A438461026210BD10B5DE
:1025A000036A046A24F010040462846923F0A0031F
:1025B00024F4704444EA023243EA01118261016268
:1025C00010BD10B5806B0021C185C184FFF776FA7C
:1025D00010BD01680C3151E8002F22F4907241E8DF
:1025E0000023002BF5D10168143151E8002F22F0AF
:1025F000010241E80023002BF5D1016B012909D12B
:1026000001680C3151E8002F22F0100241E800234C
:10261000002BF5D1202180F8421000210163704782
:1026200008B590F84210222901D0022008BD826826
:102630004FF480539A4201D1016921B1816A9A42D3
:102640001BD04AB10AE00268816A5268C2F30802EC
:102650000A80816A891C08E0026972B102685268C6
:1026600002F07F020A70816A491C8162C18D491E95
:102670000904090CC18503D01BE002685268F1E728
:102680000168CA6822F02002CA600168CA6822F4A0
:102690008072CA6001684A6922F001024A61202101
:1026A00080F8421000214163026B012A03D0FFF73A
:1026B000ADFB002008BD016301680C3151E8002F1B
:1026C00022F0100241E80023002BF5D101680A68CE
:1026D000D20602D50A6849680091818DFFF7EDF9AD
:1026E000E7E7000070B5044600680169E26821F47C
:1026F0004051114301612169A068E26908436169A1
:10270000114308432168CA6849F20C639A430243A3
:10271000CA6020684169A26921F440711143416196
:1027200031492068884202D03049884202D1FEF700
:10273000C9FD01E0FEF7B6FDE26900231921642519
:102740003226B2F5004F626828D0A0FB0101930F3A
:102750009200FDF789FD0146B0FBF5F06FF018021D
:10276000504301EB800006EB0010B0FBF5F000F0E9
:10277000F002B1FBF5F002EB0012B1FBF5F06FF0E7
:102780001803584301EB800006EB0010B0FBF5F096
:1027900000F00F0021681044886070BDA0FB0101AB
:1027A00092185B41FDF760FD0146B0FBF5F00201B8
:1027B000B1FBF5F06FF01803584301EB800006EB16
:1027C000C000B0FBF5F000F0F80002EB4002B1FBF6
:1027D000F5F0584301EB800006EBC000B0FBF5F0CC
:1027E00000F00700D6E7000000100140001401408F
:1027F0000148FFF765B9000034010020FEE7090732
:10280000090E002804DB00F1E02080F80014704776
:1028100000F00F0000F1E02080F8141D704710B5A3
:10282000B0F9003003810A8852BA02804C88D31A6A
:1028300064BA44808C88B3F5805F64BA84808979F7
:102840008171016901DD491E03E013F5805F01DA42
:10285000491C016102EB4131828A891AC16010BDB5
:10286000098849BA01808182704700002DED028BF2
:10287000FEF7ECFBFFF7ACFDFFF710FBFFF7CAFA22
:10288000FFF7EAFAFFF74AFBFFF77EFBFFF72EFCA4
:10289000FDF7EAFDFDF70AFE1848FDF72BFE184884
:1028A000FDF728FE1748FEF7ADFF9FED178A0720BA
:1028B000B0EE480A00F02AF8BDEEC00A10EE100A89
:1028C000B0EE480A05B2062000F020F8BDEEC00ABE
:1028D00010EE100AB0EE480A04B2052000F016F817
:1028E000BDEEC00A00232A4610EE100A214600B2AF
:1028F000FDF796FD0120FEF78BFAD8E79C0000203B
:10290000C4000020EC0000201B8A08C610B5044655
:10291000FFF720FD2046BDE81040FFF737BD4FF020
:102920004070E1EE100A7047000000000000000057
:102930000102030406070809000000000102030465
:1029400060290008000000209C000000C40100086D
:10295000FC2900089C0000201C120000E001000877
:102960000000000001000000100000000000000056
:102970000024F4000000000000000000000000003F
:102980000000A041CDCCCC3D00000000CDCC4C3EA1
:10299000CDCCCC3D0000000000002041CDCC4C3D12
:1029A00000000000CDCC4C3ECDCCCC3D0000000062
:1029B0000000204100000000CDCC4C3D6666663F23
:1029C00000000000CDCC4C3D000020410000000084
:1029D000CDCC4C3D6666663F00000000CDCC4C3D42
:1029E0000000A0419A99993ECDCC4C3F6666663F67
:0C29F00000000000CDCC4C3D00000000B9
:040000050800018965
:00000001FF
