:020000040800F2
:10000000F04B0020550200088D1F0008011D00085C
:10001000891F000801040008F924000800000000FE
:10002000000000000000000000000000B1210008F6
:100030006504000800000000911F0008DD21000891
:100040006F0200086F0200086F0200086F020008CC
:100050006F0200086F0200086F0200086F020008BC
:100060006F0200086F0200086F0200086F020008AC
:1000700005040008110400081D04000829040008F4
:1000800035040008410400086F0200086F020008F0
:100090006F0200086F0200086F0200086F0200087C
:1000A0006F0200086F0200086F0200086F0200086C
:1000B0006F0200086F0200086F0200086F0200085C
:1000C0006F0200086F0200086F0200086F0200084C
:1000D0006F020008BD240008C9240008D5240008C8
:1000E0006F0200086F0200086F0200086F0200082C
:1000F0006F0200086F0200086F0200086F0200081C
:100100006F0200086F0200086F0200086F0200080B
:10011000B52200086F0200086F0200086F02000895
:100120006F0200086F0200084D0400086F0200080B
:100130006F0200086F0200086F0200086F020008DB
:100140006F0200086F0200086F0200086F020008CB
:100150006F0200086F020008590400086F020008CF
:100160006F0200086F0200086F0200086F020008AB
:100170006F0200086F0200086F0200080000000014
:100180006F0200086F02000800F002F800F052F859
:1001900014A696E8000CB244B344DA4501D100F04D
:1001A00049F8BAE80F000FA696E83000A5EB040561
:1001B00004EB0607AAEB0704A7F101074FEA1515A0
:1001C0004FEA3414A4F10104AC4201D300F032F838
:1001D00013F0010F18BFFB1A43F0010300F001F800
:1001E000DBE7184780340000A0340000103A24BF39
:1001F00078C878C1FAD8520724BF30C830C144BF8C
:1002000004680C6070470000704700000023002461
:1002100000250026103A28BF78C1FBD8520728BF16
:1002200030C148BF0B6070471FB503F0F0F81FBD29
:1002300010B510BD00F0A9F81146FFF7F5FF02F068
:1002400077F900F0C7F803B4FFF7F2FF03BC00F042
:10025000CFF800000948804709480047FEE7FEE75D
:10026000FEE7FEE7FEE7FEE7FEE7FEE7FEE7FEE766
:1002700004480549054A064B70470000A1220008C2
:1002800089010008F0450020F04B0020F0470020D5
:10029000F047002053EA020C00F069802DE9F04B92
:1002A0004FF00006002B1FBFB3FA83F503FA05F4E5
:1002B00024FA05F65E4012BF1643B2FA82F502FA3E
:1002C00005F4C5F120051EBF22FA05FC44EA0C0422
:1002D000203556EA044C4FEA144418BF641C4FF012
:1002E00000084FF00009904271EB030C39D300294C
:1002F00019BFB1FA81F701FA07F6B0FA80F700FAF0
:1003000007F6C7F120071EBF20FA07FC46EA0C06D5
:100310002037B6FBF4FCA7EB0507103F07F01F0BD7
:10032000CBF120062CFA06F60CFA0BFB44BFB346C1
:100330000026202FA4BF5E464FF0000B5BEA060CA0
:1003400008BF4FF0010B19EB0B0948EB0608ABFB9C
:10035000027C06FB02CC0BFB03CCC01B71EB0C0137
:10036000C1E70B46024641464846BDE8F08B13B54F
:10037000084318BF4FF0FF300146AFF30080BDE8DF
:100380001C407047704770477047754600F02CF866
:10039000AE4605006946534620F00700854618B072
:1003A00020B5FFF765FFBDE820404FF000064FF095
:1003B00000074FF000084FF0000BAC46ACE8C00956
:1003C000ACE8C009ACE8C009ACE8C00921F00701FD
:1003D0008D46704710B50446AFF300802046BDE857
:1003E0001040FFF730BF00000048704710000020A9
:1003F00001491820ABBEFEE726000200704700004E
:10040000FEE7000040F22850C2F2000000F08AB877
:1004100040F2E820C2F2000000F084B840F28850B8
:10042000C2F2000000F07EB840F24830C2F2000094
:1004300000F078B840F26840C2F2000000F072B8F4
:1004400040F2C840C2F2000000F06CB840F2A830A0
:10045000C2F2000000F066B840F20840C2F20000AC
:1004600000F060B87047000072B600BFFEE7000001
:1004700070B5866D044600F0B7FA94F8351002297D
:1004800028D105462068216C026822F0160202601D
:10049000426922F08002426109B9A16C19B1016878
:1004A00021F008010160016821F00101016000BF35
:1004B00020680068C00715D000F096FA401B062897
:1004C000F6D320206065032084F83500002184F8ED
:1004D000341070BD802060650120002184F8341044
:1004E00070BD00BFE06D3F2101FA00F0B060012057
:1004F00084F835000020002184F8341070BD00001D
:1005000090F83510022909D1052180F835100068CE
:10051000016821F0010101600020704780214165E0
:1005200001207047F0B581B004460020009040F2F1
:100530000800C2F200000268D4E9166048F2B51360
:1005400037680821C1F64E3381403942A2FB0325AA
:100550000CD0226813685B0708D5136823F00403E6
:100560001360B160616D41F001016165012181405D
:10057000394208D022685269120604D5B160616D13
:1005800041F00201616504218140394208D02268AE
:100590001268920704D5B160616D41F00401616594
:1005A00010218140394217D020680268120713D504
:1005B000B16002680168520308D4C90508D4016813
:1005C00021F008010160216C21B905E008033FD446
:1005D000216C09B120468847E16D202000FA01F224
:1005E0003A4241D020680368DB063DD5B26094F8FA
:1005F00035300268052B1BD122F0160202604269D9
:1006000022F080024261226C0AB9A26C1AB102681F
:1006100022F0080202603F208840B060012084F888
:100620003500216D0020002984F8340052D157E0B4
:100630000168520310D4C90512D4016821F01001D9
:100640000160012084F83500002084F8340007E0C0
:10065000A16C0029BED1BFE7080301D4616C00E0A2
:10066000E16B09B120468847606DC8B3606DC00773
:100670002ED0052084F835002068A90A026822F0EF
:1006800001020260009A01328A4200921AD802687E
:10069000D20717D0009A01328A42009212D802681B
:1006A000D2070FD0009A01328A4200920AD802681B
:1006B000D20707D0009A01328A42009202D802681B
:1006C000D207DFD1012084F83500002084F83400FF
:1006D000E16C29B1204601B0BDE8F040084700BFF9
:1006E00001B0F0BD2DE9F041044600F07DF9ECB118
:1006F0000546022084F835000020216884F8340083
:10070000086820F00100086021680868C00711D05F
:1007100000F06AF9401B0528F6D9032520230320A1
:10072000636584F83550BDE8F08100BF0120BDE865
:10073000F08100BF086848F23F02CFF21002D4E90E
:10074000013500EA020C04F10C0898E8C10143EA03
:100750000C032B431843D4E9072E3043384310438E
:10076000626A40EA0E00042A40EA08031CD1206BAA
:10077000D4E90A2E40EA0E00184308604869BEF129
:10078000000F20F0030040EA020040F0040C11D0FA
:10079000B8F5005F36D0B8F1000F45D1022A46D037
:1007A000012A3BD032B942E00B60486920F00700D3
:1007B00040EA020C01F0F8004AF6AB221038CAF603
:1007C000AA22A0FB02231A0943F24063C1F814C015
:1007D000C0F600039A5C40F2FF335F284FF03F0001
:1007E00021EA030100FA02F088BF0431C4E91612BD
:1007F0008860002301250020636584F83550BDE83A
:10080000F08100BF032AD5D8012540230120DFE86D
:1008100002F0030E030500BF82E700BFAEF1C07017
:10082000B0FA80F0400904E0032A04D3C2D1CEF329
:1008300000600028BED0012540230120636584F8B4
:100840003550BDE8F08100002DE9F04F82B000F195
:100850003E4707F1FF77860546EA972741F60046AF
:10086000C4F20206082243F6004EB04208BF072237
:10087000C4F2010E072F38BF3A46002600274FF07A
:100880000008009209E000BF08F101080237B8F142
:10089000100F06F1040600F0A3800D68012202FA91
:1008A00008F415EA0409EFD0D1F804B003220BF0E4
:1008B000030CACF10105BA40012D6FEA020A0FD812
:1008C0008268CD6802EA0A02BD402A43826042681B
:1008D000A243CBF3001404FA08F42243426005E07B
:1008E000BCF1030F02D14FF0030C1EE0C2688C680C
:1008F00002EA0A02BC402243BCF1020FC26014D1DA
:100900006FF0030202EA58020244D2F820C006F057
:100910001C040F230D69A3402CEA0303A5402B43BD
:100920001362D1F804B00BF0030C02680CFA07F361
:1009300002EA0A021A431BF4403F0260A4D00022DC
:1009400043F644030192C4F202031A684FF6084CBE
:1009500042F480421A601A68CFF6FF7C02F48042AB
:100960000192019A28F00302724452F80C3006F00A
:100970000C050F24AC40A343009C04FA05F52B435F
:1009800042F80C30DEF808204B6842EA090543F6CD
:100990000C4CDC0258BF22EA0905CEF80850C4F21C
:1009A000010CDCF800209C0242EA090558BF22EA4B
:1009B0000905CCF80050DEF804209C0342EA090542
:1009C00058BF22EA0905CEF80450DEF80020DB0308
:1009D00042EA090558BF22EA0905CEF8005053E75C
:1009E00002B0BDE8F08F000044F29430C2F2000083
:1009F0000068704740F2000044F29431C2F20000F7
:100A0000C2F2000100780A681044086070470000D4
:100A100080B543F60040C4F20200016841F4007161
:100A20000160016841F480610160016841F48071F6
:100A30000160032000F08CF80F2000F005F800F0B2
:100A400027F8002080BD000070B540F20006C2F219
:100A5000000640F208013278C2F200014FF47A73C6
:100A60000968B3FBF2F20446B1FBF2F1084600F06C
:100A700067FB0F2C4FF0010508D838B94FF0FF3055
:100A800021460022002500F037F87460284670BD2A
:100A900082B0002043F640010190C4F202014A688E
:100AA00042F480424A604A6802F480420192019A0C
:100AB00000900868002240F08050086008680F210C
:100AC00000F08050009000986FF0010002B000F03C
:100AD00013B80000002848BF704700F01F01012232
:100AE00002FA01F11C2202EAD0004EF20012CEF20C
:100AF000000281507047000010B54EF60C5CCEF23B
:100B0000000CDCF80030C3F3022E8EF00704042C36
:100B100028BF0424BEF103034FF0FF3E0EFA04F495
:100B200038BF0023A14399400EFA03F39A431143BF
:100B300000F00F0200F160430901043A03F5644339
:100B40006244002848BF02F10C03197010BD000078
:100B50004EF60C51CEF200010A684FF6FF031A4020
:100B600060F30A2242F0806040F0FD700860704738
:100B7000002804BF012070472DE9F04143F6080822
:100B8000C4F202080446D8F8F8030D4600F0070046
:100B9000884207D288F8F853D8F8F80300F0070025
:100BA000A84277D12068810717D5410705D5D8F825
:100BB000001041F4E051C8F80010010705D5D8F83D
:100BC000001041F46041C8F80010D8F80010A26885
:100BD00021F0F0011143C8F80010C00740D1D8F847
:100BE000F80300F00700A84207D988F8F853D8F8AE
:100BF000F80300F00700A8424CD12068410707D550
:100C0000D8F80010E26821F4E0511143C8F8001050
:100C1000000708D5D8F80000216920F4604040EAB8
:100C2000C100C8F8000000F07DF8D8F8001043F2C9
:100C30002842C1F30311C0F60002515C40F20802E1
:100C400020FA01F140F20400C2F200000068C2F292
:100C500000021160FFF7F8FE0020BDE8F08100BF40
:100C60006068811E022907D258F8081C89015CBF00
:100C70000120BDE8F08111E0012807D158F8081CD7
:100C800089035CBF0120BDE8F08107E058F8081C2B
:100C9000890703D40120BDE8F08100BFD8F8001017
:100CA00021F003010843C8F80000FFF79DFE064647
:100CB00041F28837D8F80000616800F00C00B0EB12
:100CC000810F8CD0FFF790FE801BB842F2D9032031
:100CD000BDE8F08140F2080043F60801C2F20000CE
:100CE000C4F202010068096843F23842C1F382216C
:100CF000C0F60002515CC8407047000040F2080096
:100D000043F60801C2F20000C4F20201006809685B
:100D100043F23842C1F34231C0F60002515CC84090
:100D20007047000010B543F60404C4F20204606882
:100D300000F00C0008280BD0042819BF42F2004034
:100D4000C0F2F40047F64000C0F27D1010BD00BFB5
:100D5000206821682368490247F64001C0F27D11EE
:100D600000F03F02C3F388105CBF42F20041C0F2C2
:100D7000F401A1FB00010023FFF78CFA2168022295
:100D8000C1F3014102EB4101B0FBF1F010BD0000E5
:100D9000002804BF012070472DE9F04182B00446CD
:100DA000007843F60006C007C4F202060CD0B06813
:100DB00000F00C00042840F081803068800303D5E7
:100DC0006068002800F06A81207880071BD5B06831
:100DD00010F00C0F09D0B06800F00C00082840F0AB
:100DE00087807068400200F183803068800703D5F7
:100DF000E068012840F052813068216920F0F80055
:100E000040EAC10030602078000713D42078400702
:100E10002AD4A569002D00F03C81B06800F00C00D8
:100E2000082840F0A180012D40F01081012002B07F
:100E3000BDE8F0816069002840F20000C4F247205C
:100E400000F07E800121C0F8801EFFF7CDFD054631
:100E5000706F8007DAD4FFF7C7FD401B0228F7D96F
:100E6000032002B0BDE8F081306C5FEAC0080AD40C
:100E700000200190306C40F080503064306C00F005
:100E800080500190019847F20007C4F200073868CB
:100E9000C00547D4386840F480703860FFF7A4FD7F
:100EA000054600BF3868C0053CD4FFF79DFD401BD8
:100EB0000228F7D9032002B0BDE8F081B06800F045
:100EC0000C00082803D1706840023FF576AF6068D7
:100ED000B0F5803F07D0B0F5A02F40F09B80306880
:100EE00040F480203060306840F4803030609BE017
:100EF000E06800285CD00020C4F247200121016096
:100F0000FFF772FD054600BF306880073FF574AFFC
:100F1000FFF76AFD401B0228F6D9032002B0BDE8A6
:100F2000F08100BFA068012805D0052854D1306F9A
:100F300040F004003067306F40F00100306755E04A
:100F40000021C0F8801EFFF74FFD0546706F800737
:100F50007FF55CAFFFF748FD401B0228F6D9032060
:100F600002B0BDE8F08100BF0027C4F2472700208F
:100F70003866FFF739FD022D05460DD13068800136
:100F800040F19080FFF730FD401B02284FF0030036
:100F9000F4D902B0BDE8F0813068800179D5FFF75F
:100FA00023FD401B02284FF00300F5D9F1E700BFF5
:100FB0000020C4F2472000210160FFF715FD05461F
:100FC000306880077FF51FAFFFF70EFD401B02283A
:100FD0004FF00300F4D9DCE7316F002821F0010164
:100FE0003167316F21F0040131677DD0FFF7FCFCE0
:100FF000054641F2883700BF306F800700F18680D8
:10100000FFF7F2FC401BB842F6D9032002B0BDE85E
:10101000F08100BF3168002821F4803131603168EF
:1010200021F4802131607BD0FFF7DEFC054600BF54
:10103000306880033FF5C8AEFFF7D6FC401B64283C
:10104000F6D9032002B0BDE8F08100BF7068E16905
:1010500000F480028A4221D1216A00F03F028A42D4
:101060001CD147F6C071626A0140B1EB821F15D1F5
:10107000A16A4FF6FF73C903994300F44032A1F50A
:1010800080318A420AD1E16A00F07060B0EB016FF2
:1010900004D1002002B0BDE8F08100BF012002B001
:1010A000BDE8F08104F11C052FCD084340EA821011
:1010B000D9034FF6FF729143A1F5803140EA0560F4
:1010C0000843706001203866FFF78EFC044600BFBD
:1010D00030688001DDD4FFF787FC001B02284FF049
:1010E0000300F5D955E700BFFFF77EFC054641F246
:1010F000883700BF306F800708D5FFF775FC401BAD
:10110000B8424FF00300F5D943E700BFB8F1000F34
:101110003FF57FAE306C20F08050306479E600BF40
:10112000FFF762FC054600BF306880037FF54CAED8
:10113000FFF75AFC401B64284FF00300F4D928E75E
:10114000411E0020B0EB116F1CBF012070474EF212
:101150001002CEF2000251604EF62351CEF2000191
:10116000F0230B70072190601160704770470000FA
:1011700070470000B0B582B0044600680168C368DB
:10118000426901F02F05202D03F0200506D12DB175
:10119000204602B0BDE8B04001F098B85FEA017C9B
:1011A0001EBF02F0010E03F4907212EB0E0243D147
:1011B000226BCD0618D5012A16D113F0100213D0D8
:1011C00000210191016801914168019101994069F3
:1011D00040063BD4A08DE18DE28D002A18BF8842E5
:1011E00040F0F28102B0B0BD0A0640F1E78013F092
:1011F000800200F0E38094F841102129F2D1A16827
:10120000B1F5805F03D12169002900F06382216A72
:101210004A1C226209784160E18C01390A04E184A8
:10122000E0D1C16821F08001C160C16841F0400196
:10123000C16002B0B0BD00BFCA0718BF13F480720E
:1012400040F0D0804A0700F1D380D8E0E06B01681D
:1012500049688AB2002AC5D0A38D9A42C2D2E185DC
:10126000C069B0F5807F00F09D80206850E8030FD2
:10127000216820F4807041E80302DAB1206850E868
:10128000030F216820F4807041E8030292B12068C6
:1012900050E8030F216820F4807041E803024AB14E
:1012A000206850E8030F216820F4807041E80302B1
:1012B000002ADAD1206850E8050F216820F00100EB
:1012C00041E80502BAB3206850E8050F216820F014
:1012D000010041E8050272B3206850E8050F21685B
:1012E00020F0010041E805022AB3206850E8050F0C
:1012F000216820F0010041E80502002ADAD11AE055
:10130000206850E8050F216820F0400041E8050200
:10131000DAB1206850E8050F216820F0400041E86C
:10132000050292B1206850E8050F216820F04000C6
:1013300041E805024AB1206850E8050F216820F015
:10134000400041E80502002ADAD1202084F842005A
:1013500000202063206850E8030F216820F010006F
:1013600041E80302DAB1206850E8030F216820F059
:10137000100041E8030292B1206850E8030F216891
:1013800020F0100041E803024AB1206850E8030F42
:10139000216820F0100041E80302002ADAD1E06B56
:1013A000FFF766F802206063A08DE18D401A81B2DC
:1013B000204602B0BDE8B040FFF7D8BE49067FF531
:1013C00011AF13F040013FF40DAFC16821F04001AF
:1013D000C1602021204684F8411002B0BDE8B04031
:1013E00000F08CBC626C42F0010262644A0706D5D0
:1013F000BEF1000F03D0626C42F0020262648A0701
:1014000006D5BEF1000F03D0626C42F004026264A4
:10141000BCF1000F06D55EEA050203D0626C42F013
:1014200008026264626C002A3FF4DCAE890604D5CF
:101430001DB1204600F04AFF20684069616C00F051
:10144000400001F00801401800F0B680206850E824
:10145000030F216820F4907041E80302BAB32068BA
:1014600050E8030F216820F4907041E8030272B342
:10147000206850E8030F216820F4907041E80302CF
:101480002AB3206850E8030F216820F4907041E8E7
:101490000302002ADAD11AE0206850E8050F21681B
:1014A00020F0010041E80502DAB1206850E8050F9C
:1014B000216820F0010041E8050292B1206850E85F
:1014C000050F216820F0010041E805024AB12068BB
:1014D00050E8050F216820F0010041E80502002ACC
:1014E000DAD1206B012824D1206850E8030F21684D
:1014F00020F0100041E80302DAB1206850E8030F41
:10150000216820F0100041E8030292B1206850E801
:10151000030F216820F0100041E803024AB120685F
:1015200050E8030F216820F0100041E80302002A70
:10153000DAD1202084F8420000202063206840692E
:10154000400640F1C180206850E8050F216820F076
:10155000400041E80502DAB1206850E8050F216833
:1015600020F0400041E8050292B1206850E8050FE4
:10157000216820F0400041E805024AB1206850E8A7
:10158000050F216820F0400041E80502002ADAD169
:10159000E06B002800F0988042F2C121C0F6000103
:1015A0000165FEF7ADFF00283FF41CAEE06B016D56
:1015B00002B0BDE8B04008472046FFF7D9FD002043
:1015C000606402B0B0BD00BF401A00BF216851E89E
:1015D000031F226821F4907142E80313BBB3216812
:1015E00051E8031F226821F4907142E8031373B39A
:1015F000216851E8031F226821F4907142E8031327
:101600002BB3216851E8031F226821F4907142E84E
:101610000313002BDAD11AE0216851E8051F226874
:1016200021F0010142E80513DBB1216851E8051FF3
:10163000226821F0010142E8051393B1216851E8C5
:10164000051F226821F0010142E805134BB1216812
:1016500051E8051F226821F0010142E80513002B23
:10166000DAD1202184F8421000212163216851E859
:10167000031F226821F0100142E80313DBB1216847
:1016800051E8031F226821F0100142E8031393B1CF
:10169000216851E8031F226821F0100142E803137A
:1016A0004BB1216851E8031F226821F0100142E884
:1016B0000313002BDAD1022281B22046626302B00A
:1016C000BDE8B040FFF752BD204602B0BDE8B040D3
:1016D000FFF74EBD216A31F8022B6FF35F224260A3
:1016E000216299E5002804BF0120704710B5044627
:1016F00090F8410028B9002084F84000204600F00E
:1017000021F8242084F841002068C16821F40051A8
:10171000C160204600F05AFE2068016921F4904122
:101720000161416921F02A014161C16841F4005120
:10173000C16000202021606484F8411084F84210C8
:10174000606310BD2DE9F04F87B00446006844F691
:10175000FF31C4F2000188424FF000010691CDE94B
:101760000411CDE9021175DC44F20041C4F200011C
:10177000884200F0E18044F60001C4F20001884292
:1017800040F0B381002643F630000196C4F2020017
:10179000016946F2280841F4802101610169C4F21F
:1017A000020801F48021019101990196016841F03C
:1017B00002010160006802A900F002000190019896
:1017C0004FF4406002900220CDE90306032005900B
:1017D000072006900020C4F2020000F58060FFF7A9
:1017E00033F840F22855C2F200054FF440304FF074
:1017F00000674FF0400B4FF4806A4FF48079C5E9E1
:1018000008062846C5E90087C5E902B6C5E904A669
:10181000C5E90669FEF766FF002818BFFEF724FE3B
:10182000E563AC6340F2885508F13000C2F2000570
:1018300085E881082846C5E9036AC5E90566C5E962
:1018400007966E62FEF74EFF00284FF0270640F025
:10185000D78040E141F20001C4F20101884200F06A
:10186000D38044F60041C4F20001884240F03D813B
:10187000002643F630000196C4F20200016946F2E8
:10188000280841F4002101610169C4F2020801F451
:101890000021019101990196016841F00101016067
:1018A0000068022100F001000190019803200290DD
:1018B0000590082006900020CDE90316C4F202002E
:1018C00002A9FEF7C1FF40F2E82508F11800C2F2B4
:1018D00000054FF000674FF4806A4FF48079C5E946
:1018E00000072846C5E90266C5E904A6C5E90669F8
:1018F000C5E90866FEF7F6FE002818BFFEF7B4FD3E
:10190000E563AC6340F2483508F14800C2F20005D7
:101910004021C5E9000705F1080080E84204284697
:10192000C5E90566C5E907966E62FEF7DBFE00288D
:101930004FF0340664D1CEE0002643F63000019625
:10194000C4F20200016946F2280841F40031016145
:101950000169C4F2020801F4003101910199019674
:10196000016841F001010160006802A900F0010076
:10197000019001980C2002900220CDE9030603207B
:101980000590072006900020C4F20200FEF75CFFDD
:1019900040F2684508F16000C2F200054FF00067B0
:1019A0004FF4806A4FF48079C5E900072846C5E9FD
:1019B0000266C5E904A6C5E90669C5E90866FEF739
:1019C00091FE002818BFFEF74FFDE563AC6340F2BF
:1019D000C84508F17800C2F200054021C5E90007BA
:1019E00005F1080080E842042846C5E90566C5E916
:1019F00007966E62FEF776FE00284FF026066AD044
:101A0000FEF732FD67E000BF002643F63000019686
:101A1000C4F20200416946F2280841F01001416118
:101A20004169C4F2020801F0100101910199019687
:101A3000016841F001010160006802A900F00100A5
:101A4000019001984FF4C06002900220CDE9030696
:101A500003200590072006900020C4F20200FEF744
:101A6000F3FE40F2A83508F58360C2F200054FF09E
:101A700000674FF4806A4FF48079C5E90007284673
:101A8000C5E90266C5E904A6C5E90669C5E90866AF
:101A9000FEF728FE002818BFFEF7E6FCE563AC63FE
:101AA00040F2084508F59260C2F200054021C5E900
:101AB000000705F1080080E842042846C5E90566EC
:101AC000C5E907966E62FEF70DFE00284FF0250669
:101AD00018BFFEF7C9FC304605210022A563AC63A0
:101AE000FFF70AF83046FEF7F5FF07B0BDE8F08FC4
:101AF00090F84230202B07D100294FF0010318BF86
:101B0000002A05D11846704702231846704700BFC7
:101B100000230363816222218285C285436480F8A9
:101B200042100169006819B1C16841F48071C16057
:101B3000416941F001014161C16841F02001C1608A
:101B40001846704710B5006844F60001C4F2000161
:101B500040F218148842C2F2000403D12078002118
:101B600000F048FAA068217804EB80020130D160CF
:101B7000B0F10B0118BF01464DF24110A160A080E9
:101B800010BD00002DE9F041044690F841002028E6
:101B90001CBF0220BDE8F0810D4600294FF0010076
:101BA00000F0AA801646002A08BFBDE8F081002098
:101BB00060642120984684F84100FEF715FFA68452
:101BC000E684A1680646B1F5805F02D1206900284D
:101BD00062D02F460025E08C002861D018F101006A
:101BE00018D0B8F1000F37D1216808E017F8010BC1
:101BF0004860E08C0138E084E08C002851D008680F
:101C0000000673D5002FF1D135F8020B00276FF3D2
:101C10005F20EDE7216802E00868000609D4086843
:101C2000000606D4086800065CBF08685FEA00602A
:101C3000F2D51FB117F8010B05E000BF35F8020B14
:101C400000276FF35F204860E08C0138E084E08C6F
:101C50000028E4D125E000BF216800BF0868000625
:101C600008D4FEF7C1FE801B404541D82168C868F2
:101C7000F4E700BF17B117F8010B04E035F8020BC9
:101C800000276FF35F204860E08C0138E084E08C2F
:101C90000028E3D105E000BF0027E08C00289DD19B
:101CA0002168086840061FD4B8F1000F1ED018F153
:101CB00001000FD10868400616D40868400613D406
:101CC0000868400610D4086840064FF00000F1D5BF
:101CD0000FE000BFFEF788FE801B404508D8206853
:101CE000C16800684006F5D5002002E0FEF77CFEE2
:101CF0000320202184F84110BDE8F08170470000E6
:101D0000FEE7000080B582B0002043F6300101906C
:101D1000C4F202010A6842F400120A600A6802F47E
:101D200000120192019A00900868002240F480009D
:101D300008600868052100F48000009000980C20DD
:101D4000FEF7DAFE0C20FEF7C5FE0D20052100226D
:101D5000FEF7D2FE0D20FEF7BDFE0E20052100226B
:101D6000FEF7CAFE0E20FEF7B5FE0F200521002269
:101D7000FEF7C2FE0F20FEF7ADFE10200521002267
:101D8000FEF7BAFE1020FEF7A5FE11200521002265
:101D9000FEF7B2FE1120FEF79DFE3A20052100223B
:101DA000FEF7AAFE3A20FEF795FE46200521002206
:101DB000FEF7A2FE462002B0BDE88040FEF78ABED4
:101DC00070B58EB0134808AC079012A000F1040E55
:101DD0009EE80E50806984E80E500D9007A80021FF
:101DE00000F0CCFB40F27006C2F2000610493060F1
:101DF0000FA0051D00913ECD80690DF1040C8CE80B
:101E00003E0006906846002100F0B8FB70600EB0FE
:101E100070BD00BF55360008D52100080000000045
:101E20000000000080000000000000000000000032
:101E300048360008FD2400080000000000000000F3
:101E400080000000000000000000000083B00020BF
:101E500043F630010290C4F202010A6842F08002A7
:101E60000A600A6802F080020292029A01900A68EF
:101E700042F001020A600A6802F001020192019A2E
:101E80000090086840F002000860086800F0020056
:101E90000090009803B0704780B540F2C06044F6EF
:101EA0000041C2F20000C4F2000100234FF00C0C0C
:101EB0004FF4E13280E80E00C0E90333C0E905C306
:101EC000C361FFF70FFC002808BF80BDBDE880405C
:101ED000FEF7CABA80B540F2E85041F20001C2F202
:101EE0000000C4F2010100234FF00C0C4FF4E1326A
:101EF00080E80E00C0E90333C0E905C3C361FFF702
:101F0000F1FB002808BF80BDBDE88040FEF7ACBAF9
:101F100080B540F2306044F20041C2F20000C4F2E9
:101F2000000100234FF00C0C4FF4E13280E80E006A
:101F3000C0E90333C0E905C3C361FFF7D3FB002841
:101F400008BF80BDBDE88040FEF78EBA80B540F284
:101F5000786044F60001C2F20000C4F200010023E0
:101F60004FF00C0C4FF4E13280E80E00C0E903336F
:101F7000C0E905C3C361FFF7B5FB002808BF80BDFA
:101F8000BDE88040FEF770BAFEE70000FEE7000003
:101F9000EFF30980BFF36F8F154B1A681EF0100F17
:101FA00008BF20ED108A20E9F04F10602DE90900EC
:101FB0004FF0500080F31188BFF34F8FBFF36F8F46
:101FC00000F09CFF4FF0000080F31188BDE809008D
:101FD00019680868B0E8F04F1EF0100F08BFB0ECA9
:101FE000108A80F30988BFF36F8F704700BF00BF6E
:101FF0007800002070B540F2181EC2F2000E9EF864
:102000000120042A00F2B480DFE802F0049E12B43A
:10201000240000BF502840F0C28040F20110AEF80A
:10202000010040F2BC10C2F200005021017070BDEE
:10203000062840F09D809EF8022003208EF80100C3
:10204000501C8EF8020040F2BC10C2F200000621C3
:10205000815470BD40F2BC10C2F20000017843F21E
:10206000404381F0FF01C0F6000390F801C05C5CC2
:1020700043F2405284EA0C04C0F6000284F0FF04EC
:10208000565C195D857871406940165D5D5CC47869
:102090006E406640515C9D5D965D69400579694082
:1020A0005D5C515C6E4045796E409D5D965D69401A
:1020B000857969405D5C515C6E40C5796E409D5D7F
:1020C000965D6940057AB0F8090069405B5C515C37
:1020D000734000BA41EA0321B1EB104F48D10EF131
:1020E00018030FCB090441EA0060001400EE100A47
:1020F0009FED2B1AB8EEC00A9FED2A2A180420EE95
:10210000010A40EA026020EE020A00148EED190A6C
:1021100000EE100ADEE90A10B8EEC00A000420EE54
:10212000010A40EA016020EE020A00148EED180A4E
:1021300000EE100AB8EEC00A20EE010A20EE020AF4
:102140008EED170A70BD00BF502825D003280FD18F
:102150009EF8022002208EF80100501C8EF802002A
:1021600040F2BC10C2F200000321815470BD00BFD8
:10217000002012E09EF8022040F2BC1C531CD9B291
:10218000C2F2000C0B298EF802300CF8020038BFA6
:1021900070BD042001E000BF01208EF8010070BD79
:1021A0000000003800003443000000000000000080
:1021B000074B19680868B0E8F04F80F30988BFF34F
:1021C0006F8F4FF0000080F31188704700BF00BF91
:1021D00078000020012000F0C3F9FBE780B5FEF78E
:1021E00009FC01F00BF8012808BF80BDBDE8804064
:1021F00000F080BFB0B592B0002443F64000CDE9B6
:102200000A44CDE908440594CDE90344CDE90144ED
:102210000094C4F202000168022541F0805101607F
:10222000006800F080500090009847F20000009491
:10223000C4F20000016841F480410160006800F4CC
:10224000804000900098012006904FF48030079065
:102250004FF480000D9019200E904FF4A870CDE936
:102260000F050420119006A80C95FEF791FD18B1FA
:1022700072B600BFFEE700BF0F20CDE901054FF4A5
:10228000A05004904FF48050059001A805210394BC
:10229000FEF76EFC10B172B6FEE700BF12B0B0BD23
:1022A0004EF68850CEF20000016841F470010160E2
:1022B0007047000040F2C060C2F20000FEF75ABF53
:1022C000806B0021C185C184FEF752BF81B090F8B8
:1022D0004210222921D183680246B3F5805F09D1DB
:1022E00052F8281F52F8183C002B63D003685B6833
:1022F0000AE000BF52F8281F13B90369002BF5D07C
:1023000003685B6803F07F030B7011680131116093
:10231000C18D01390A04C18502D001B0704700BFE8
:102320000168CA6822F02002CA60CA6822F480727A
:10233000CA604A6922F001024A61202180F84210F5
:1023400000214163026B012A3CD10163016851E81D
:10235000031F026821F0100142E80313DBB101689A
:1023600051E8031F026821F0100142E8031393B102
:10237000016851E8031F026821F0100142E80313CD
:102380004BB1016851E8031F026821F0100142E8D7
:102390000313002BDAD101680A68D20606D50022A1
:1023A00000920A680092496800910099818D01B0FD
:1023B000FEF7DCBE026852686FF35F2221F8022B41
:1023C0008162A5E701B0FFF7BDBB000010B5044670
:1023D0000068D4E902C22369016921F44051114324
:1023E0000161626943EA0C01E3691143C268194360
:1023F00049F20C639A431143C1604169A26921F417
:10240000407141F20043114340F48062C4F2010381
:102410009A42416102D1FEF771FC01E0FEF75AFCDD
:10242000E16963681922B1F5004FA0FB020123D1D5
:102430005A00DB0FFDF72EFF48F21F51C5F2EB11DA
:10244000A0FB01235A094FF69C73C0F6FF7303F1FA
:10245000805302FB0300322303EBC000A0FB010109
:102460004FF4F87000EA111000EB0210C1F34211B2
:1024700008442168886010BD9A009B0FFDF70AFF91
:1024800048F21F51C5F2EB11A0FB01235A094FF688
:102490009C73C0F6FF7302FB0300322303EB0010B2
:1024A000A0FB0101F02000EA511000EB0210C1F383
:1024B000431108442168886010BD000040F2E850D4
:1024C000C2F20000FEF756BE40F23060C2F20000D9
:1024D000FEF750BE10B540F27864C2F20004204608
:1024E000FEF748FE40F21811C2F200012046012218
:1024F000BDE81040FFF7FCBAFEE7000082B040F2F2
:10250000003640F2503740F27864C8F29966C3F65C
:102510000057C2F200046D46204629460822642373
:10252000CDE90076FFF72EFB052000F019F8F3E760
:10253000FEF76EFAFFF75EFEFFF788FCFFF7E2FB9F
:10254000FFF7AAFCFFF7C6FCFFF7E2FCFFF7FEFC73
:1025500000F0D0FAFFF734FC00F00AF8FEE70000C4
:1025600080B5012898BF012000F00AFC002080BD42
:1025700080B500F055FC002080BD0000B0B584B0EF
:1025800043698E4693B1846984B10589D0E9001C02
:10259000026928B2843D18BFC51CCDE900536046CE
:1025A0007346029400F0EEFD04B0B0BD0589D0E999
:1025B0000013028A28B2843D18BFC51C03AC18461C
:1025C0007346CDE9005400F0ADFD0399012818BF12
:1025D0000021084604B0B0BD2DE9F041044600F0EA
:1025E0000FFB40F27806C2F20006306940F208752F
:1025F000013030613068C2F2000548B170690028CE
:1026000040D13068E16AC06A884298BF346039E0DE
:1026100034603069012835D1284600F097FA05F179
:10262000140000F093FA05F1280000F08FFA05F18C
:102630003C0000F08BFA05F1500000F087FA05F13C
:10264000640000F083FA05F1780000F07FFA40F2B0
:102650009418C2F20008404600F078FA08F1140716
:10266000384600F073FA06F1640000F06FFA06F1E4
:102670003C0000F06BFA06F1500000F067FAC6F873
:10268000308077637068B16801220131B160E16A1E
:102690008A401043706001EB810005EB8000211D32
:1026A00000F096FA00F0D0FA706988B13068E16AFB
:1026B000C06A884228BFBDE8F0814EF60450CEF2D1
:1026C00000004FF080510160BFF34F8FBFF36F8F59
:1026D000BDE8F08140F2780540F208764EF60458E5
:1026E000C2F20005C2F20006CEF200084FF0805799
:1026F00003E000BF204600F0BFFAE868D0B100F068
:102700007FFAA86CC468201D00F000FA286901381F
:102710002861E8680138E86000F096FA94F8510002
:102720000228EAD00128E5D070B9206B00F0A4FAA5
:10273000E0E700BF30680228DFD3C8F80070BFF3BD
:102740004F8FBFF36F8FD8E74FF0500080F31188A1
:10275000BFF36F8FBFF34F8FFEE700002DE9F04707
:10276000DDE909878246386B089C00EB820004385B
:102770009946002920F0070656D0087887F83400DB
:10278000087800284BD0487887F83500487800282A
:1027900045D0887887F83600887800283FD0C878F8
:1027A00087F83700C878D0B3087987F838000879F7
:1027B000A8B3487987F83900487980B3887987F8D1
:1027C0003A00887958B3C87987F83B00C87930B3A4
:1027D000087A87F83C00087A08B3487A87F83D0001
:1027E000487AE0B1887A87F83E00887AB8B1C87A2A
:1027F00087F83F00C87A90B1087B87F84000087BD3
:1028000068B1487B87F84100487B40B1887B87F8F6
:102810004200887B00281CBFC87B87F8430000204B
:1028200087F8430003E000BF002087F8340000254C
:10283000381D062C28BF0624FC62C7E9114500F0AC
:1028400091F907F1180000F08DF984F00700B861E4
:10285000304651464A463F617F62FD6487F85050DA
:1028600000F036F9B8F1000F386018BFC8F80070F2
:10287000BDE8F08708480068006880F308884FF0DA
:10288000000080F3148862B661B6BFF34F8FBFF3C8
:102890006F8F00DF00BF000008ED00E081B0002076
:1028A000009040F20C00C2F2000000684FF05001AE
:1028B00081F31188BFF36F8FBFF34F8F013007D0C3
:1028C000FEE700BF009830B9009820B9009810B911
:1028D00000980028F6D001B07047000070B504469B
:1028E00000F004FB40F2F00CC2F2000CDCF8040033
:1028F00050B19CF80000002818BF4FF000404FF086
:10290000000544BB83E000BF40F29470C2F20000B7
:10291000420700F5705200F1070122F0070218BFCC
:1029200021F007000021A2F10803CCE90601CCF850
:10293000043042E90211DCF80420191AC0E9002130
:1029400001208CF800004FF00040CCE90211002C6F
:102950004FF000055BD0204059D124F0070000F172
:102960001002600708BF04F10802DCF80800511EDD
:1029700081424CD2604650F818EFDEF80450954280
:102980002BD2DEF80010B9B174464D68954217D2CB
:102990000B68ABB15D68954216D21868A0B1456866
:1029A000954215D204689CB16568954214D221689D
:1029B000A6460029E9D110E00CF118000DE000BF97
:1029C0008E46204609E000BF9E46084605E000BF4F
:1029D0008646184601E000BFA646DCF804108E4586
:1029E00014D00168DEF80040AB1A112B04604DD3FF
:1029F0000EEB0205680719D04FF0500080F31188E4
:102A0000BFF36F8FBFF34F8FFEE700BF002500F0CD
:102A100089FC68075AD04FF0500080F31188BFF34B
:102A20006F8FBFF34F8F00BFFEE700BF0CF11800A0
:102A30006B60CEF8042000BF0368AB420AD218686E
:102A4000A8420BD20368AB4204D218681A46A842C7
:102A5000F2D304E00246184601E000BF1A4654686B
:102A60006B681619AE4202D1234415465360EC1828
:102A7000844207D1DCF80440A04203D0D0E900042E
:102A800023446B60AA42286018BF1560DEF804007A
:102A9000DCE9022301F10805111A9942CCF808106B
:102AA00038BFCCF80C109CF8001000294FF0000142
:102AB00018BF40F00040CEE90010DCF810000130F3
:102AC000CCF8100000F02EFC6807A4D1284670BD99
:102AD000034642F69D0021F00101C0F600004FF0D0
:102AE000807C03E903106FF00201A3F1440043E985
:102AF0000912704740F2786040F21811C2F20000EB
:102B0000C2F200010122FEF7F3BF0000D0E901325A
:102B100001699A60D1F804C082688445536008BF97
:102B20004A6000220261086801380860086870473E
:102B300044F29853C2F20003036044F29830C2F2A8
:102B40000000086080201060704700004FF0FF31E7
:102B5000024642F8081F00214260C0E903220160DA
:102B600070470000002101617047000010B5D1F8E6
:102B700000E01EF1010213D000F10804626813683E
:102B8000734511D853681C68744511D85A68146885
:102B900074450FD854682368A4467345EED90BE0FA
:102BA0000269D2F804C007E09446224604E000BF60
:102BB0009C4601E094461A46C1F804C0CCF80810BF
:102BC0008A605160086101680131016010BD000038
:102BD000D0F800C0436808619A684B608A609A68C0
:102BE000996051600CF1010101607047DFF80C0041
:102BF000016841F4700101607047000088ED00E059
:102C00004FF0500080F31188BFF36F8FBFF34F8FE9
:102C100040F20C00C2F2000001684A1C026009B1D7
:102C2000704700BF4EF60450CEF200000068000668
:102C300008BF70474FF0500080F31188BFF36F8FCB
:102C4000BFF34F8FFEE7000040F20C00C2F200001D
:102C5000016839B10139016018BF7047002080F365
:102C6000118870474FF0500080F31188BFF36F8FC9
:102C7000BFF34F8FFEE7000070B5002808BF70BD9E
:102C800040F2F005C2F200050446287854F8041C0E
:102C9000002818BF4FF0004008420DD0A4F10806EC
:102CA00032689AB14FF0500080F31188BFF36F8FF4
:102CB000BFF34F8FFEE700BF4FF0500080F3118845
:102CC000BFF36F8FBFF34F8FFEE700BF21EA000015
:102CD00044F8040C00F00AF954F8041CA8680844ED
:102CE000A86005F1180000BF0368B3420AD2186853
:102CF000B04225D20368B34204D218681A46B042E3
:102D0000F2D301E0024618465368D418B44202D107
:102D10001944164651607318834206D16B68984275
:102D200003D0D0E9000319447160B242306018BF8B
:102D30001660686901306861BDE8704000F0F2BA61
:102D40001A465368D418B442E5D1E1E74EF21000B8
:102D5000CEF2000000210160816040F20801C2F261
:102D60000001096844F6D352C1F26202A1FB0212CB
:102D70004FF0FF3101EB9211416007210160704774
:102D800070B500283FD040F27805C2F20005044635
:102D9000A86948B14FF0500080F31188BFF36F8FDE
:102DA000BFF34F8FFEE700BFA8690130A8616E6ACC
:102DB00028680430FFF7AAFE50B12868A4194460BF
:102DC00013D3686B29680431FFF7D0FE16E000BF0B
:102DD00028680121C06A6A6801FA00F022EA00004E
:102DE00068602868A4194460EBD2286B2968043114
:102DF000FFF7BCFE286A844238BF2C6200F092FACA
:102E0000002818BF70BD4EF60450CEF200004FF0FF
:102E100080510160BFF34F8FBFF36F8F70BD000013
:102E2000B0B588B00020CDE9050006A805A904AA20
:102E3000FFF77EFE0598B8B3069C002C3ED05421C7
:102E4000049A07910799542942D1079920630220D7
:102E500084F8510007A80025CDE9005042F2D56062
:102E6000C0F600001FA100230294FFF777FC204664
:102E7000FFF7B2FB079940F27800C2F20000C1618F
:102E800079B14FF0500181F31188BFF36F8FBFF319
:102E90004F8F4FF0FF31016201214161456200F027
:102EA00065F808B0B0BD00BF4FF0500080F3118846
:102EB000BFF36F8FBFF34F8FFEE700BF4FF050009F
:102EC00080F31188BFF36F8FBFF34F8FFEE700BF12
:102ED0004FF0500080F31188BFF36F8FBFF34F8F17
:102EE000FEE700BF49444C450000000040F2780076
:102EF000C2F20000816901318161704740F27800BF
:102F0000C2F20000816900291EBF01218162704761
:102F1000002181624168B1FA81F1C9B2C1F11F019A
:102F200040F2087201EB8101C2F2000252F8213036
:102F300063B102EB810252F8041F4968131D9942E4
:102F400011600DD0C9680160704700BF4FF050009C
:102F500080F31188BFF36F8FBFF34F8FFEE700BF81
:102F600049681160C968016070470000B0B584B05D
:102F70004EF2004CCEF2000C4CF27021C4F20F1154
:102F8000DCF800294B1C9A420AD14FF0500080F324
:102F90001188BFF36F8FBFF34F8F00BFFEE700BFF5
:102FA000DCF800298A4209D14FF0500080F31188E3
:102FB000BFF36F8FBFF34F8FFEE700BF9CF8001089
:102FC0000291FF218CF800109CF800108DF807107A
:102FD0009DF8071001F0500240F21011C2F20001FA
:102FE0000A7007224A609DF90720B2F1FF3F6BDCAF
:102FF000032200BFD31C4B609DF8070040008DF8F2
:1030000007009DF90700B0F1FF3F24DC931C4B60E3
:103010009DF8070040008DF807009DF90700B0F10A
:10302000FF3F18DC531C4B609DF8070040008DF8F3
:1030300007009DF90700B0F1FF3F0CDC4A609DF8E6
:103040000700043A40008DF807009DF90700B0F131
:10305000FF3FCFDD131D032B36D14FF44070486086
:1030600002988CF80000DCF8200940F47000CCF8DD
:103070002009DCF8200940F07040CCF82009FFF767
:1030800065FE40F20C04C2F2000400252560FFF743
:10309000ADFD4EF63470CEF20000016841F04041C3
:1030A0000160FFF7E7FBFFF729FF039520684FF06A
:1030B000500181F31188BFF36F8FBFF34F8F013041
:1030C00012D000BFFEE700BF4FF0500080F3118820
:1030D000BFF36F8FBFF34F8FFEE700BF039830B988
:1030E000039820B9039810B903980028F6D000205F
:1030F00004B0B0BD80B54FF0500080F31188BFF32D
:103100006F8FBFF34F8F00F089F830B14EF6045047
:10311000CEF200004FF080510160002080F3118852
:1031200080BD00002DE9F04383B00746900098462B
:1031300015468946FFF7D2FBF8B106465420FFF743
:10314000CDFBB8B10446DDE90A100022266384F8FD
:103150005120CDE90010384649462A46434602949C
:10316000FFF7FCFA2046FFF737FA012003B0BDE86D
:10317000F08300BF3046FFF77FFD4FF0FF3003B014
:10318000BDE8F08370B586B00B9CCCB10C9E0EB33D
:1031900054250495049D542D26D1049DDDF828C0A6
:1031A000022586F8515005AD3463CDE900C502967D
:1031B000FFF7D4FA3046FFF70FFA059806B070BD56
:1031C0004FF0500080F31188BFF36F8FBFF34F8F24
:1031D000FEE700BF4FF0500080F31188BFF36F8F00
:1031E000BFF34F8FFEE700BF4FF0500080F3118810
:1031F000BFF36F8FBFF34F8FFEE7000040F2780000
:10320000C2F20000416900290FBF01208069B0FAB5
:1032100080F0400918BF4000704700002DE9F047DA
:1032200040F27806C2F20006B06928B1F06A0130B7
:10323000F0620020BDE8F087706A10F1010AC6F85C
:1032400024A020D3306B006850B14FF0500080F3C1
:103250001188BFF36F8FBFF34F8F00BFFEE700BF32
:10326000306B716B31637063B06B0130B063306B86
:10327000006828B1306BC068C068406802E000BFD9
:103280004FF0FF303062306A40F208788245C2F277
:10329000000801D2002434E0306B0024006868B3D9
:1032A0004FF0010916E000BFF86A716809FA00F2F0
:1032B000114300EB8000716008EB80002946FFF7A6
:1032C00087FCF86A3168C96A326B8842106828BF87
:1032D0004C4698B1306BC068C7683D4655F8040F3E
:1032E00082450DD32846FFF711FCB86A0028DBD0D1
:1032F00007F11800FFF70AFCD6E700BF4FF0FF30D8
:1033000030623068C06A00EB800058F82000012865
:1033100088BF0124B06A002818BF01242046BDE8F8
:10332000F08700002DE9F04140F27805C2F2000577
:10333000A86968B1FFF764FCA8690138A861A869A9
:1033400080B10024FFF780FC2046BDE8F08100BF7B
:103350004FF0500080F31188BFF36F8FBFF34F8F92
:10336000FEE700BF28690028EBD0686E78B340F212
:1033700008780126C2F20008286FC76807F1180014
:10338000FFF7C4FB3C1D2046FFF7C0FBF86A6968E5
:1033900006FA00F2114300EB8000696008EB800040
:1033A0002146FFF715FCF86A2968C96A884228BFD8
:1033B000AE62686E0028DFD1286B006820B1286BF0
:1033C000C068C068406801E04FF0FF302862EC6AD6
:1033D0004CB10126FFF722FF002818BFAE62013C66
:1033E000F8D10020E862A86A0028AAD04EF604505E
:1033F000CEF200004FF080510160BFF34F8F0124E7
:10340000BFF36F8FFFF720FC2046BDE8F081F1EE9F
:10341000100A4FF6FF71C0F2C03120EA010040F0FF
:103420004070E1EE100A704700000000000000004C
:10343000010203040607080900000000010203045A
:1034400000C1814001C0804101C0804100C1814074
:1034500001C0804100C1814000C1814001C0804164
:1034600001C0804100C1814000C1814001C0804154
:1034700000C1814001C0804101C0804100C1814044
:1034800001C0804100C1814000C1814001C0804134
:1034900000C1814001C0804101C0804100C1814024
:1034A00000C1814001C0804101C0804100C1814014
:1034B00001C0804100C1814000C1814001C0804104
:1034C00001C0804100C1814000C1814001C08041F4
:1034D00000C1814001C0804101C0804100C18140E4
:1034E00000C1814001C0804101C0804100C18140D4
:1034F00001C0804100C1814000C1814001C08041C4
:1035000000C1814001C0804101C0804100C18140B3
:1035100001C0804100C1814000C1814001C08041A3
:1035200001C0804100C1814000C1814001C0804193
:1035300000C1814001C0804101C0804100C1814083
:1035400000C0C101C30302C2C60607C705C5C40443
:10355000CC0C0DCD0FCFCE0E0ACACB0BC90908C8B3
:10356000D81819D91BDBDA1A1EDEDF1FDD1D1CDCA3
:1035700014D4D515D71716D6D21213D311D1D01013
:10358000F03031F133F3F23236F6F737F53534F403
:103590003CFCFD3DFF3F3EFEFA3A3BFB39F9F83873
:1035A00028E8E929EB2B2AEAEE2E2FEF2DEDEC2C63
:1035B000E42425E527E7E62622E2E323E12120E0D3
:1035C000A06061A163A3A26266A6A767A56564A4C3
:1035D0006CACAD6DAF6F6EAEAA6A6BAB69A9A86833
:1035E00078B8B979BB7B7ABABE7E7FBF7DBDBC7C23
:1035F000B47475B577B7B67672B2B373B17170B093
:103600005090915193535292965657975595945482
:103610009C5C5D9D5F9F9E5E5A9A9B5B99595898F2
:10362000884849894B8B8A4A4E8E8F4F8D4D4C8CE2
:103630004484854587474686824243834181804052
:1036400000061016000610164765745F494D555F59
:10365000446174650064656661756C745461736B74
:103660000000000088360008000000201000000064
:10367000EC0100089836000810000020E04B000024
:103680000C02000800000000010000001000000013
:083690000024F400AAAAAAAA72
:040000050800018965
:00000001FF
