:020000040800F2
:10000000301B0020690200080B2A00084524000864
:10001000092A00086B0500081531000800000000DF
:10002000000000000000000000000000FF2B00089E
:10003000A906000800000000FD2B0008012C0008A4
:10004000830200088302000883020008830200087C
:10005000830200088302000883020008830200086C
:10006000830200088302000883020008830200085C
:10007000830200088302000883020008830200084C
:1000800083020008830200088302000805060008B6
:10009000E1050008ED050008F905000883020008E5
:1000A000830200088302000883020008830200081C
:1000B000A92C0008B52C0008C12C000883020008F8
:1000C00083020008830200088302000883020008FC
:1000D00083020008FD30000809310008830200088F
:1000E00083020008830200088302000883020008DC
:1000F00083020008830200088302000883020008CC
:100100008302000883020008CD2C00088302000847
:100110001D2E0008830200088302000883020008E5
:10012000830200088302000883020008830200089B
:1001300083020008830200088302000859060008B1
:100140004D060008830200088302000883020008AD
:10015000830200088302000883020008830200086B
:10016000830200088302000883020008830200085B
:1001700083020008830200088302000800000000D8
:10018000830200088302000800F002F800F05CF827
:100190000AA090E8000C82448344AAF10107DA45E2
:1001A00001D100F051F8AFF2090EBAE80F0013F0D8
:1001B000010F18BFFB1A43F001031847346B00000E
:1001C000546B00000A444FF0000C10F8013B13F090
:1001D000070408BF10F8014B1D1108BF10F8015BA0
:1001E000641E05D010F8016B641E01F8016BF9D193
:1001F00013F0080F1EBF10F8014BAD1C0C1B09D1EA
:100200006D1E58BF01F801CBFAD505E014F8016B5B
:1002100001F8016B6D1EF9D59142D6D370470000ED
:100220000023002400250026103A28BF78C1FBD8FF
:10023000520728BF30C148BF0B6070471FB506F09A
:1002400094FB1FBD10B510BD00F05AF91146FFF721
:10025000F5FF04F099FD00F078F903B4FFF7F2FF21
:1002600003BC00F07BF900000948804709480047BB
:10027000FEE7FEE7FEE7FEE7FEE7FEE7FEE7FEE756
:10028000FEE7FEE704480549054A064B70470000B3
:10029000992C00088901000830150020301B00202F
:1002A000301700203017002053EA020C00F069805C
:1002B0002DE9F04B4FF00006002B1FBFB3FA83F57A
:1002C00003FA05F424FA05F65E4012BF1643B2FAAB
:1002D00082F502FA05F4C5F120051EBF22FA05FCDD
:1002E00044EA0C04203556EA044C4FEA144418BF83
:1002F000641C4FF000084FF00009904271EB030CB2
:1003000039D3002919BFB1FA81F701FA07F6B0FA1B
:1003100080F700FA07F6C7F120071EBF20FA07FC96
:1003200046EA0C062037B6FBF4FCA7EB0507103FA6
:1003300007F01F0BCBF120060CFA0BFB2CFA06F68C
:1003400044BFB3460026202FA4BF5E464FF0000BEB
:100350005BEA060C08BF4FF0010B19EB0B09ABFB76
:10036000027C48EB0608C01B06FB02CC0BFB03CC4F
:1003700071EB0C01C1E70B46024641464846BDE819
:10038000F08B13B54FF000004FF00001AFF3008089
:10039000BDE81C407047032A40F2308010F0030C87
:1003A00000F0158011F8013BBCF1020F624498BFC8
:1003B00011F801CB00F8013B38BF11F8013BA2F165
:1003C000040298BF00F801CB38BF00F8013B11F0E0
:1003D000030300F05A80083AC0F0088051F8043B4B
:1003E000083A51F804CBA0E80810F5E7121D5CBFED
:1003F00051F8043B40F8043BAFF30080D20724BF20
:1004000011F8013B11F801CB48BF11F8012B24BFB3
:1004100000F8013B00F801CB48BF00F8012B704702
:100420004FF0000200B5134694469646203922BF8D
:10043000A0E80C50A0E80C50B1F12001BFF4F7AFD8
:10044000090728BFA0E80C5048BF0CC05DF804EBBA
:10045000890028BF40F8042B08BF704748BF20F828
:10046000022B11F0804F18BF00F8012B7047704726
:100470007047704710B500F03BF8006810BD10B52C
:10048000044600F035F8046010BD10B5203AC0F005
:100490000B80B1E81850203AA0E81850B1E8185085
:1004A000A0E81850BFF4F5AF5FEA027C24BFB1E8C2
:1004B0001850A0E8185044BF18C918C0BDE8104033
:1004C0005FEA827C24BF51F8043B40F8043B08BF3C
:1004D0007047D20728BF31F8023B48BF11F8012B03
:1004E00028BF20F8023B48BF00F8012B70470000EE
:1004F00000487047D014002000487047D0140020F6
:100500007546FFF7F9FFAE4605006946534620F0F1
:100510000700854618B020B5FFF7B4FEBDE82040BF
:100520004FF000064FF000074FF000084FF0000BAF
:1005300021F00701AC46ACE8C009ACE8C009ACE862
:10054000C009ACE8C0098D46704710B50446AFF34A
:1005500000802046BDE81040FFF77FBE014918200B
:10056000ABBEFEE7260002007047FEE738B50E4C32
:100570004FF4007525600025A560E560082525611C
:100580000A4C050A25706070080AA070E170100A14
:1005900020716271180AA071E3716B46224602490C
:1005A000034800F0BBF838BD4C05002022000020B5
:1005B0004401002000B58BB000200121CDE90601E7
:1005C0000891009001900290039005900490694674
:1005D000024800F00BF90BB000BD00004401002000
:1005E000014800F01ABA000044010020014800F060
:1005F00014BA000044010020014800F00EBA0000C7
:1006000044010020014800F008BA00004401002025
:1006100000B58BB001210020CDE9060108910E2123
:100620000090099101900290059103900490694611
:10063000054800F0DBF8044800F0D5FC0221024830
:1006400000F05AF80BB000BD6C010020014800F02A
:10065000E4B900006C010020014800F0DEB90000A0
:100660006C01002010B5044600F0BDFC02212046BC
:1006700000F042F8002803D0BDE8104000F015B8A3
:1006800010BD00000648016841F080710160054816
:1006900000214160016841F00101016070470000E4
:1006A000FCED00E0001000E0704772B6FEE771EE6E
:1006B000601AB4EEC10AF1EE10FA02DDB0EE410AA2
:1006C00008E0B0EE601AB4EEC10AF1EE10FA01D201
:1006D000B0EE600A0121814070EE600A491E00EE12
:1006E000101AB8EEC00A20EE800AC0EE210ABCEE55
:1006F000E00A10EE100A704790F82020012A07D077
:10070000022A05D0416A41F48021416201207047EC
:10071000006842690A43426100207047F0B590F8D2
:1007200020500468A468012D05D0022D03D0416A31
:1007300041F4802157E014F0406F01D1E5004FD51E
:10074000C4F301640125A5401D608B684FF4C0759A
:100750009BB1CE6833434E6843EAC603066805EB97
:100760000417F3514FF4C273076803EB04130E69C7
:10077000FE50097D012905D009E00E88CB6843EAC7
:100780004653EBE70168CE5846F48076CE50117997
:10079000D379567941EA036193791B0443EA06232E
:1007A00019434FF4C676036806EB04169951117885
:1007B000D37841EA0361937852781B0443EA02221A
:1007C00011434FF4C473026803EB0413D150006863
:1007D00005EB0411425842F0010242500020F0BDE6
:1007E000416A41F4001141620120F0BD10B590F85A
:1007F0002020012A07D0022A05D0416A41F4802135
:100800004162012010BD3B48D0F8002242F00102B5
:10081000C0F80022D0F8002222F47C52C0F8002256
:10082000D0F800224B6A42EA0322C0F800220A7D77
:1008300002F01F0301229A40D0F81C329343C0F803
:100840001C32CB69B3B9D0F80C329343C0F80C32E8
:100850008C894B6864F31F434C6900EBC404C4F8F3
:1008600040320C890B6864F31F434C6900EBC404ED
:10087000C4F84432CB69012B16D1D0F80C321343A3
:10088000C0F80C320C884B6864F31F434C6900EBD2
:10089000C404C4F840320C89CB6864F31F434C692C
:1008A00000EBC404C4F844328B69002BD0F8043246
:1008B0000ED01343C0F804320B69002BD0F8143269
:1008C00008D01343C0F81432096A012904D008E0A3
:1008D0009343EFE79343F5E7D0F81C121143C0F8B8
:1008E0001C12D0F8001221F00101C0F80012002003
:1008F00010BD000000640040704770B590F82040C3
:10090000012C05D0022C03D0416A41F4802128E05B
:10091000046809B32469A40720D04FF4D87405688B
:1009200004EB01142D5915F00405956005682D5947
:100930001AD0ED08556005682C5904F00204D46003
:100940004FF4DA74056804EB01142E5906F00F0613
:10095000082E0CD308250DE0E468DCE7416A41F479
:1009600000114162012070BD6D0D1560E3E72D5946
:1009700005F00F05156105682D59C5F3072595612B
:1009800005682C59240C54614FF4DC72046802EBA6
:100990000112A4581C700468A458240A5C700468EE
:1009A000A458240C9C700468A258120EDA704FF4FC
:1009B000DE72046802EB0112A4581C710468A4588A
:1009C000240A5C710468A458240C9C710468A25821
:1009D000120EDA71006829B1016941F0200101614C
:1009E000002070BDC16841F02001C160F8E70246F7
:1009F000002092F82010012901D002290CD11168A1
:100A00008A68520100D501208A68120100D5401C75
:100A10008968C90000D5401C70472DE9F05F054684
:100A2000006800244669D0F804908768D0F80CB0BC
:100A3000D0F810A0D0F81880F10748D0F90714D0EA
:100A400001218160B80703D5284600F0F8FA0CE0D0
:100A5000780702D54FF4006407E0380702D54FF459
:100A6000805402E0284600F0E9FAF80516D5296816
:100A70004FF480708860B80503D5284600F0E1FA8D
:100A80000CE0780502D544F4005407E0380502D59F
:100A900044F4804402E0284600F0D2FAF80316D568
:100AA00029684FF480308860B80303D5284600F0E9
:100AB000CAFA0CE0780302D544F4004407E0380396
:100AC00002D544F4803402E0284600F0BBFA300737
:100AD00007D55FEACB6004D52968102044F4007480
:100AE000C86070074FF0080707D55FEA0B7004D5A0
:100AF0002868C760284600F0B9F9B00706D528680D
:100B0000C068800702D0284600F0B2F9700607D509
:100B10005FEACA6004D52968102044F48064086143
:100B2000B00607D55FEA0A7004D528680761284631
:100B300000F056FAF00606D528680069800702D052
:100B4000284600F04EFAB00308D55FEAC96005D523
:100B5000296810204860284600F044FAF00307D5C1
:100B60005FEA097004D528684760284600F06CFAEF
:100B7000300446D55FEA497040D5F00504D55FEAF8
:100B8000C87001D044F00104B00504D55FEA887054
:100B900001D544F00204700504D55FEA487001D520
:100BA00044F00404300529D518F0700F26D008F061
:100BB0007000402815D006DC102809D020280AD063
:100BC000302816D10AE050280ED0602811D10EE04E
:100BD00044F008040DE044F010040AE044F020045E
:100BE00007E044F0400404E044F0800401E044F4F1
:100BF00080742868816921F070018161296804206E
:100C00004860002C05D0686A204368622846FFF7D8
:100C100073FEBDE8F09F70B5040003D094F8200087
:100C200010B104E0012070BD204600F081F820687A
:100C3000016841F00101016000F062FB05460526F4
:100C400004E000F05DFB401B0A2811D820684068D2
:100C5000C007F6D02068016821F00201016000F0B1
:100C60004FFB05460BE000F04BFB401B0A2806D962
:100C7000606A40F40030606284F82060D2E7206847
:100C800040688007EFD4207E0128206801683DD0AD
:100C900021F080010160607E01282068016838D061
:100CA00021F040010160A07E01282068016833D056
:100CB00021F020010160E07E0128206801682ED02B
:100CC00041F010010160207F01282068016829D0CF
:100CD00021F008010160607F01282068016824D0AC
:100CE00021F004010160D4E902010843D4E90412AF
:100CF000114308436168491E08432168C861002008
:100D00006062012084F82000002070BD41F0800165
:100D1000C0E741F04001C5E741F02001CAE721F0FA
:100D20001001CFE741F00801D4E741F00401D9E711
:100D3000F0B587B0044614216846FFF771FB4649B9
:100D4000464ADFF810E10868D4F800C0434B02249B
:100D50000325092610320027401CF4453BD10860CA
:100D6000012807D1106840F000701060106800F092
:100D700000700590186840F0010018601868694616
:100D800000F0010005904FF4C0508DE89100CDE9CE
:100D90000356334800F0C6F900221146132000F034
:100DA0001DFB132000F00CFB00221146142000F064
:100DB00015FB142000F004FB00221146152000F062
:100DC0000DFB152000F0FCFA00221146162000F061
:100DD00005FB16203AE0DFF88CE0F44538D1D2F874
:100DE00000C04CF0806CC2F800C0D2F800C00128EE
:100DF0000CF0806CCDF814C0086007D1106840F08A
:100E000000701060106800F000700590186840F0E5
:100E1000020018601868694600F0020005904FF45F
:100E200040508DE89100CDE903560F4800F07AF963
:100E3000002211463F2000F0D1FA3F2000F0C0FA16
:100E400000221146402000F0C9FA402000F0B8FA14
:100E500007B0F0BD006400400400002030380240BC
:100E6000000002400068004000040240704700009B
:100E700070B5054601685448544C9AB081421BD164
:100E800015AB6A4600212846FFF737FD0098A0F20F
:100E9000012006280ED8C0B22070C0EBC0014C481B
:100EA00000EB810081694A1C3229826115A94AD868
:100EB00003F0E3FD1AB070BD46488142FAD113AB8E
:100EC0006A4600212846FFF718FD0298A0B10428C1
:100ED000F0D117AB0CAA00212846FFF70EFD0D98A4
:100EE0003D4E040E3D4DE00630D004F01F000228B8
:100EF00032D011284CD05EE00098A0F2FF110929F1
:100F0000D8D2DFE801F0060506060606060606004A
:100F1000D0E7401EC0B22E4D6070C0EBC000E0357F
:100F200005EB800081694A1C3229826113A902D82D
:100F300003F0A3FD01E003F07FFD607813A9C0EB8F
:100F4000C00005EB800003F077FDB3E70D98079034
:100F5000BDF81D00E8622EE00D98079017A907A8BC
:100F600001F02AFB9DF81D00142200EB800006EB27
:100F7000C00007A91330FFF70EFA9DF81E00810983
:100F80009DF81D0000EB800006EBC000417112E0EF
:100F90000D9807909DF81C00E862BDF8200000EE57
:100FA000100AB8EE400A10EE100AC5F84A00DDF843
:100FB0002200C5F85900D6F86700C5F80E0004F005
:100FC0001F00C5F81D0075E70064004020000020E8
:100FD0008C03002000680040B4120020341400206C
:100FE00070477047704770B5044690F8200001289C
:100FF00004D0606A40F40020606217E0022084F8A8
:1010000020002068016821F00101016000F078F9FA
:1010100005460DE000F074F9401B0A2808D9606A03
:1010200040F400306062052084F82000012070BD8B
:1010300020684068C007EDD1606270BD704770479E
:10104000704770477047704770472DE9F04104467C
:10105000876D00F055F9054694F835000026022802
:1010600006D08020606584F834600120BDE8F081FE
:101070002068016821F0160101602068416921F0B3
:1010800080014161206C08B9A06C20B12068016822
:1010900021F0080101602068016821F00101016070
:1010A0000CE000F02DF9401B052807D920206065D1
:1010B000032084F8350084F83460D7E7206800689E
:1010C000C007EED194F85C103F208840B860012042
:1010D00084F8350084F834600020C7E790F83510B4
:1010E000022903D08021416501207047052180F845
:1010F00035100068016821F001010160002070478F
:1011000070B5044600F0FCF80546601C02D00448A7
:101110000078044400F0F4F8401BA042FAD370BDFC
:10112000080000202DE9F84FDFF89C910022A9F17A
:10113000040B03274FF00F0C09F1040AABF1040E66
:1011400001250B6895402B40AB426ED10C7904F021
:101150000304012C01D0022C15D18668540007FA33
:1011600004F826EA0806D1F80C8008FA04F848EAE0
:101170000608C0F808804468AC430D79C5F3001533
:101180009540254345600C79E443A40708D0C56821
:10119000540007FA04F6B5438E68A6402E43C66095
:1011A0000C7904F00304022C11D1D40800EB84065E
:1011B000356A5407E40E0CFA04F825EA0805D1F85C
:1011C000108008FA04F848EA0508C6F82080056887
:1011D000540007FA04F6B5430E7906F00306A6405C
:1011E0002E4306604C6814F4403F66D0374C2568A7
:1011F00045F480452560246822F0030504F480440A
:101200000094334C05EB0408D8F808589407260FCF
:101210000CFA06F4A5432F4CA04201D1002424E08F
:101220002D4CA04202D101241FE046E02B4CA042ED
:1012300001D1022419E02A4CA04201D1032414E078
:10124000284CA04201D104240FE0274CA04201D138
:1012500005240AE0254CA04201D1062405E0244CD7
:10126000A04201D1072400E00824B4402C43C8F870
:101270000848D9F800404D464E689C43F60200D518
:101280001C432C60DAF8004055464E689C43B60279
:1012900000D51C432C60DBF800405D464E689C4343
:1012A000B60300D51C432C60DEF8004075464E683E
:1012B0009C43F60300D51C432C60521C102AFFF4FB
:1012C0003FAFBDE8F88F0000083C014044380240C1
:1012D00000300140000002400004024000080240CB
:1012E000000C0240001002400014024000180240AE
:1012F000001C02400AB1816170470904FBE700004D
:10130000014880687047000008000020024881689A
:101310000278114481607047080000200B4810B526
:10132000016841F400710160016841F4806101606D
:10133000016841F480710160032000F06FF80F2014
:1013400000F006F800F024F8002010BD003C024038
:1013500070B50D4D04464FF47A712878B1FBF0F06A
:101360000A490968B1FBF0F000F000FB48B9102C05
:1013700007D200222146501E00F030F800206C6099
:1013800070BD012070BD0000080000201400002086
:101390000A4808B5016841F480410160006800F422
:1013A000804000900548001F016841F080510160B5
:1013B000006800F08050009008BD000044380240F2
:1013C000002809DB00F01F02012191404009800044
:1013D00000F1E020C0F8001170470000F0B40E4B9F
:1013E0001B68C3F30223C3F10704042C00D90424AF
:1013F0001D1D072D01D2002300E0DB1E012606FA89
:1014000004F56D1E0D409D409E40761E164045EA37
:101410000601F0BC01F0AABE0CED00E0064A00F0A7
:10142000070110684FF6FF03184040EA0120034906
:1014300008431060704700000CED00E00000FA0562
:101440002DE9F0470D46040065D0DFF81491D9F876
:101450000000EFB200F00700A84207D289F8007040
:10146000D9F8000000F00700A84254D120683D4E92
:10147000810712D5400703D5306840F4E050306052
:101480002078000703D5306840F460403060306851
:10149000A16820F0F000084330602078C0072DD00C
:1014A000304960680839012812D0022813D0032877
:1014B00011D00968890700292DDA316821F003016C
:1014C00001433160FFF71CFF804641F2883A0EE08D
:1014D00009688903EFE709688901ECE7FFF710FF66
:1014E000A0EB0801514502D90320BDE8F087306820
:1014F000616800F00C00B0EB810FEFD1D9F800105B
:10150000484601F00701A94207D90770006800F0BA
:101510000700A84201D00120E7E72078400705D561
:101520003068E16820F4E05008433060207800071C
:1015300006D53068216920F4604040EAC10030607F
:1015400000F038F83168084AC1F30311515CC84013
:101550000649086006480068FFF7FAFE0020C4E765
:10156000003C024008380240726A00081400002063
:101570000C0000200448054900680968044AC1F3CA
:101580008221515CC8407047140000200838024096
:10159000826A00080448054900680968044AC1F3E2
:1015A0004231515CC84070471400002008380240A6
:1015B000826A0008154810B5006810F00C01144844
:1015C00013D0431004290FD008290ED10F4C241F2B
:1015D000216801F03F022168490207D52068C0F365
:1015E0008810A0FB030106E0184610BD2168C1F376
:1015F0008811A1FB00010023FEF756FE2168C1F30C
:101600000141491C4900B0FBF1F010BD083802400F
:101610000024F4002DE9F84F040075D02078DFF89D
:1016200038A3C007AAF1040548D00AF104000168F4
:10163000C1F38101012908D00068C0F381000228AC
:101640000AD1DAF80000400206D52868800335D5B3
:1016500060680028E1D031E06068B0F5803F10D0CC
:10166000B0F5A02F286810D020F4803028602868BA
:1016700020F4802028606068A0B1FFF741FE064694
:101680000CE0286840F48030F4E740F480202860C3
:10169000F7E7FFF735FE801B642871D828688003C0
:1016A000F7D50BE0FFF72CFE064604E0FFF728FE17
:1016B000801B6428F1D828688003F7D42078DFF8ED
:1016C0009C9280074FF0000B3DD5A348001D016898
:1016D00011F00C0F08D00068C0F3810002280AD175
:1016E000DAF80000400206D42868800715D5E068C3
:1016F000012809D111E0E068B8B10120C9F8000063
:10170000FFF7FEFD064605E022E1FFF7F9FD801B2D
:101710000228C2D828688007F7D52868216920F0F8
:10172000F80040EAC10028600DE0C9F800B0FFF7FA
:10173000E7FD064604E0FFF7E3FD801B02281FD803
:1017400028688007F7D42078000722D5824F844884
:101750006169703771B101210160FFF7D1FD064663
:1017600004E0FFF7CDFD801B022809D83868800708
:10177000F7D50EE0C0F800B0FFF7C2FD064605E061
:1017800082E0FFF7BDFD801B02287DD83868800706
:10179000F7D42078400765D56F484FF000083C30FB
:1017A0000068C0000BD46C483C30016841F08051A7
:1017B000016000684FF0010800F080500090694F10
:1017C0003868C0050FD4386840F480703860FFF77F
:1017D00097FD064604E0FFF793FD801B022853D8CF
:1017E0003868C005F7D55C4FA0686C3701280FD06A
:1017F0000528386810D020F001003860386820F0E3
:1018000004003860A068B0B1FFF77AFD06460EE02C
:10181000386840F00100F4E740F004003860F7E772
:10182000FFF76EFD811B41F28830814263D8386832
:101830008007F5D50DE0FFF763FD064606E0FFF7EC
:101840005FFD811B41F28830814254D8386880079F
:10185000F5D4B8F1000F05D03F483C30016821F0C5
:1018600080510160A069B8B33B49091D0968C1F303
:101870008101022946D00228584606D0C9F86000E6
:10188000FFF73EFD044639E035E04F46C9F86000F9
:10189000FFF736FD064604E0FFF732FD801B022805
:1018A00029D828688001F7D4D4E907010843A16A40
:1018B0002D4A490802EB0141626A41EA821108435C
:1018C00094F82C1040EA0161CAF800100120386633
:1018D000FFF716FD044605E03CE0FFF711FD001B95
:1018E000022808D828688001F7D533E0FFF708FD03
:1018F000001B022802D90320BDE8F88F2868800168
:10190000F4D427E00128F7D0DAF80000E26900F407
:10191000800191421CD1226A00F03F01914217D10F
:1019200047F6C071626A0140B1EB821F10D1A26A12
:101930004FF0FF3300F4403103EB5202B1EB024FA2
:1019400006D194F82C1000F07060B0EB016F01D05C
:101950000120D1E70020CFE70438024000004742D1
:10196000800E4742007000400000FFFF10B5401E8F
:10197000B0F1807F01D3012010BD4FF0E024606101
:101980000F21601701F0F2FB0020A0610720206109
:10199000002010BD7047704770B590F83C20012AB8
:1019A00032D0012580F83C50022280F83D200268A8
:1019B0005368946823F070060B6833435360134BED
:1019C00002689A4214D0B2F1804F11D0104B9A4263
:1019D0000ED0104B9A420BD00F4B9A4208D00F4BAF
:1019E0009A4205D00E4B9A4202D00E4B9A4204D135
:1019F000496824F080031943916080F83D5000212C
:101A000080F83C10084670BD022070BD0000014007
:101A10000004004000080040000C004000040140A9
:101A2000004001400018004010B5040003D094F8B5
:101A30003D0010B107E0012010BD002084F83C00FB
:101A4000204600F01FF8022084F83D00211D206888
:101A500001F042F9012084F8460084F83E0084F841
:101A60003F0084F8400084F8410084F8420084F884
:101A7000430084F8440084F8450084F83D000020C9
:101A800010BD000008B500682649B0F1804F11D0A4
:101A9000254A90421DD1086840F00200086008689D
:101AA000002200F00200009011461D20FFF796FC76
:101AB0001D2031E0086840F001000860086800223D
:101AC00000F00100009011461C20FFF787FC1C204D
:101AD00022E0164A90420ED1086840F004000860E7
:101AE0000868002200F00400009011461E20FFF755
:101AF00075FC1E2010E00E4A904211D1086840F09B
:101B0000080008600868002200F0080000901146F4
:101B10003220FFF763FC3220BDE80840FFF750BCDD
:101B200008BD0000403802400004004000080040AA
:101B3000000C004090F83D10012901D001207047B1
:101B4000022180F83D100168CA6842F00102CA60B3
:101B500000681149884214D0B0F1804F11D00F496C
:101B600088420ED00E4988420BD00E49884208D0D8
:101B70000D49884205D00D49884202D00C4988425F
:101B800004D1816801F00701062903D0016841F002
:101B90000101016000207047000001400004004086
:101BA00000080040000C00400004014000400140DB
:101BB0000018004070B5044690F83C00002501284C
:101BC00017D0012684F83C60022084F83D0020688C
:101BD000826822F0770222F47F42826008685028EF
:101BE00038D00DDC20284FD005DC90B3102811D15F
:101BF0004AE0022070BD302846D040280AD13BE0A0
:101C000060282FD070280DD0B0F5805F03D0B0F5DC
:101C1000005F12D0012584F83D60002084F83C006C
:101C2000284670BDCB68D1E90121206801F0C0F8D9
:101C30002068816841F0770109E0CB68D1E9012192
:101C4000206801F0B5F82068816841F48041816026
:101C5000E1E719E0CA684968206801F0BBF8502143
:101C6000206806E0CA684968206801F0C4F860216D
:101C7000206801F0A7F8CEE7CA684968206801F03B
:101C8000A9F840212068F4E7226801461046F0E7F1
:101C900070472DE9F04104460068C66805694FF0B9
:101CA0000007A90713D5B10711D5F91E016101205D
:101CB0002077206880698007204602D0FFF7E8FF80
:101CC00004E000F07EF8204600F07CF827776807F3
:101CD00016D5700714D521686FF004000861022042
:101CE00020772068806910F4407F204602D0FFF7FB
:101CF000CFFF04E000F065F8204600F063F8277796
:101D0000280715D5300713D521686FF00800086142
:101D1000042020772068C0698007204602D0FFF7A2
:101D2000B7FF04E000F04DF8204600F04BF82777AD
:101D3000E80616D5F00614D521686FF0100008618A
:101D4000082020772068C06910F4407F204602D028
:101D5000FFF79EFF04E000F034F8204600F032F870
:101D60002777E80708D0F00706D021686FF0010058
:101D70000861204600F028F8280608D5300606D568
:101D800021686FF0800008612046FFF703FE6806B7
:101D900008D5700606D521686FF04000086120461E
:101DA00000F01CF8A8060AD5B00608D521686FF027
:101DB000200008612046BDE8F041FFF7ECBDBDE81A
:101DC000F0817047704700000068B0F1804F02D189
:101DD00001490120087070473C010020704770479E
:101DE00070470000F8B5016804460868CA684B6986
:101DF00010F00F0F4FF0000559D003F0010602F468
:101E00009077374365D0C10705D0D10503D5616C04
:101E100041F001016164410705D5D90703D0616C28
:101E200041F002016164810705D5D90703D0616CD7
:101E300041F004016164010707D502F0200131433C
:101E400003D0616C41F008016164616C00293AD0F3
:101E5000800604D5900602D5204601F014F82068CB
:101E60004069616CC0F38010090700D460B320465C
:101E700000F0E2FF20684069400621D52068143058
:101E800050E8001F21F0400140E80012002AF5D17F
:101E9000E06BA8B16E490165E06BFFF71FF9002800
:101EA00011D0E06B016D01B0BDE8F040084783063A
:101EB0000FD593060DD52046BDE8F84000F0E3BFEE
:101EC0002046FFF78DFFF8BD2046FFF789FF6564C8
:101ED000F8BD266B2023012E7DD1C6067BD5D60604
:101EE00079D508684868009048694FF002064006B6
:101EF00041D5E16B086840680004000CE8D0A28D71
:101F00008242E5D9E085C869B0F5807F2DD0206890
:101F10000C3050E8001F21F4807140E80012002AC4
:101F2000F5D12068143050E8001F21F0010140E88D
:101F30000012002AF5D12068143050E8001F21F06B
:101F4000400140E80012002AF5D184F842302563B0
:101F500020680C3050E8001F21F0100140E800120A
:101F6000002AF5D1E06BFFF770F86663A08DE18D74
:101F7000401A81B22AE0A08DE18D401A81B2E08D35
:101F80000028A5D00029A3D020680C3050E8002FED
:101F900022F4907240E80027002FF5D12068143019
:101FA00050E8002F22F0010240E80027002FF5D171
:101FB00084F84230256320680C3050E8002F22F06E
:101FC000100240E80023002BF5D166632046FFF79E
:101FD00006FFF8BDFFE705062BD5150629D594F8B1
:101FE00041002128F5D1A068B0F5805F01D12069BA
:101FF000B0B1206A411C2162216800784860E08C01
:10200000401E0004000CE084E3D12068C16821F088
:102010008001C1602068C16841F04001C160D8E71B
:10202000206A0088C0F308004860206A801C206293
:10203000E5E74006CDD55006CBD5CA68204622F04C
:102040004002CA6084F8413000F0FBF9C1E70000AB
:10205000292E000870B5040004D094F84100002532
:1020600010B106E0012070BD84F84050204600F019
:1020700023F8242084F841002068C16821F400512D
:10208000C160204600F060FF2068016921F49041A2
:1020900001612068416921F02A0141612068C1681D
:1020A00041F40051C1606564202084F8410084F847
:1020B00042006563002070BDF0B587B0044614216E
:1020C0006846FEF7ADF93E4A3C4F216800233C4D7F
:1020D000103A032402263B48B9421FD1296841F433
:1020E00000212960296801F400210591116841F05F
:1020F000010111601168029301F001010591CDE920
:1021000000460821CDE903416946FFF70BF800229C
:1021100001213420FFF762F9342026E0DFF8A8C05F
:102120000727614525D12649091D0D6845F0100591
:102130000D60096801F010010591116841F001017D
:102140001160116802AD01F0010105914FF4C06109
:10215000CDE9001685E898006946FEF7E3FF002206
:1021600011462520FFF73AF92520FFF729F907B096
:10217000F0BDDFF858C06145F9D1296841F400315C
:102180002960296801F400310591116841F00101CD
:10219000116011680DF1080C01F0010105910C218D
:1021A000CDE900168CE898006946FEF7BBFF0022D7
:1021B00011462620FFF712F92620D6E7004C0040F2
:1021C000403802400000024000100140004400403E
:1021D00090F84230202B01D00220704721B11AB173
:1021E0000023036300F036BF012070472DE9F04162
:1021F00000685249524D0024884231D12878032882
:1022000019D005DC58B101280DD0022804D10EE008
:10221000042814D0FF2816D02C70BDE8F081BDE84A
:10222000F04103F0A1BBBDE8F04102F035BDBDE8CF
:10223000F04102F07BBEBDE8F04102F0A3B9BDE879
:10224000F04103F0B7BB3E48001D0078687002F013
:10225000E7F804203A4928700122091D394868E04E
:102260003949884259D1A878012190B1012817D065
:10227000022820D00328D0D1344F3148DFED340A72
:102280000E303978334E808801291ED002292BD098
:1022900041E0E87850280CD029490122C91C12E0FD
:1022A000E878032802D0502803D034E00220A87038
:1022B000F2E7A970F0E7E87806282CD1032020493E
:1022C0000822A8700E31244833E040BA00B200EE74
:1022D000100AB8EEC00A20EE200ADFED200A20EE38
:1022E000200A86ED020A15E040BA00B200EE100A9C
:1022F0009FED1C1AB8EEC00A20EE200ADFED180A86
:1023000020EE200A86ED080AD6ED0B0A02F032FD17
:1023100086ED0B0A3C70AC70BEE713498842AAD127
:102320000C484830007802F0DBF80A4901220F48D7
:102330004831BDE8F041FFF74BBF000000100140FD
:1023400010010020FC02002000440040DC000020BE
:1023500000000038F4100020440300200000344343
:102360000000FA449A99993E004C0040B4020020C3
:102370002DE9F843044690F841001F4615460E46E5
:10238000202802D00220BDE8F8838EB185B100205C
:102390006064212084F84100FEF7B2FFA5848146E5
:1023A000E584A0684FF02008B0F5805F02D003E01C
:1023B0000120E8E7206910B1354600260EE000252F
:1023C0000CE08021204600F060FEA0B9BDB115F8F8
:1023D000010B21684860E08C401EE084E08C4B4695
:1023E0004FF0000200970028EBD14FF0400120464B
:1023F00000F04BFE40B184F841800320C3E736F87B
:10240000020BC0F30800E4E784F841800020BAE73B
:1024100090F84130202B01D00220704779B172B181
:1024200001628284C28400214164212180F841102C
:102430000068C16841F08001C16000207047012040
:1024400070477047FEE7000038B504460B48082186
:102450000161042181600021C160D4F8061041604F
:102460002068FEF7C4FA0028FAD06B4604F10B028C
:1024700002492068FEF752F938BD00001C14002004
:1024800010B50246407AF0EE412A20F01F00401CB1
:102490005072907AB0EE603A9071F0EE613A10208E
:1024A000B2EE081AFAEE080AFEF701F9A2F80700E0
:1024B000507AB2EE091A20F0E00050721020FAEEC5
:1024C000090AB0EE430AFEF7F2F8000AD0721020B3
:1024D000B2EE091AFAEE090AB0EE430AFEF7E7F87F
:1024E00010731020B3EE0E1AFBEE0E0AB0EE620A65
:1024F000FEF7DDF8000A50731020B3EE0E1AFBEE63
:102500000E0AB0EE620AFEF7D2F8DFED1A2A9FED4E
:102510001A3A90731020B0EE621AF0EE430AB0EE51
:10252000630AFEF7C4F8000AD0731020B0EE621AF6
:10253000F0EE430AB0EE630AFEF7B9F8107410200B
:10254000B1EE041AF0EE430AB0EE420AFEF7AFF81D
:10255000000A50741020B1EE041AF0EE430AB0EEF7
:10256000420AFEF7A4F89074BDE810401046FFF749
:102570006BBF00000000FA4300000000417A827A3D
:1025800082710A4A21F01F01C91C1278A0F80720A5
:1025900021F0E001417200210A464318491CC9B2EA
:1025A000DA720829F9D3FFF74FBF0000410100207C
:1025B00001608272704700000A8852BA00EE102A49
:1025C000F8EE400A9FED210A70EEC00A80EE801AF4
:1025D000B1EE000ADFED1E0A21EE000A20EE200A0D
:1025E00010EE102A42604A8852BA00EE102AF8EE25
:1025F000400A9FED180A30EEC01AC1EE000AB3EE91
:102600000E1A60EE810A10EE902A82608A8852BA11
:1026100000EE902AF8EE600A70EEC00A80EE801A92
:10262000B2EE080A21EE000AB2EE041A10EE102AE9
:10263000C260C98849BA00EE101AF8EE400A80EE6E
:10264000810A10EE101A016170470000B3000047C4
:10265000DA0F494000FFFF46417A827A82710A4AC6
:1026600021F01F01891D1278A0F8072021F0E00158
:1026700041720121C17200224318491CC9B2DA72A9
:102680000829F9D3FFF7E0BE410100200E4810B53C
:102690000C4901600321416000214FF43022816028
:1026A000C0E903124161017641768176C1760177F6
:1026B0004177FEF7B0FA002803D0BDE81040FDF7DF
:1026C000F4BF10BD00640040440100200E4810B566
:1026D0000C4901600321416000214FF430228160E8
:1026E000C0E903124161017641768176C1760177B6
:1026F0004177FEF790FA002803D0BDE81040FDF7BF
:10270000D4BF10BD006800406C0100202DE9F041ED
:1027100086B014216846FDF783FE2748002401682F
:1027200041F004010160016801F0040105910168B4
:1027300041F020010160016801F02001059101686C
:1027400041F080010160016801F08001059101689C
:1027500041F001010160016801F00101059101688A
:1027600041F0020101600068144F00F002004FF4D4
:1027700000550590002229463846FEF7BBFDDFF8DC
:1027800040802E11002231464046FEF7B3FD0095F1
:102790000125CDE90154694638460394FEF7C2FC91
:1027A000CDE90065CDE9025469464046FEF7BAFC22
:1027B00006B0BDE8F0810000303802400008024059
:1027C0000014024010B586B000241648009401940D
:1027D0000294039404944FF0804105940160A82171
:1027E000C0E901144FF47A71C0E903148461FFF762
:1027F0001BF908B1FDF759FF4FF48050009069466E
:102800000848FFF7D7F908B1FDF74FFF049404A972
:1028100004480594FFF7C0F8002801D0FDF745FFF4
:1028200006B010BD9401002010B586B000241748F2
:102830000094019402940394049413490594016054
:1028400042F2CF01C0E9011444F61F61C0E903144C
:102850008461FFF7E9F808B1FDF727FF4FF48050D6
:10286000009069460948FFF7A5F908B1FDF71DFF7B
:10287000049404A905480594FFF78EF8002801D0B8
:10288000FDF713FF06B010BD00040040DC0100207E
:1028900010B586B000241748009401940294039464
:1028A000049413490594016042F2CF01C0E9011478
:1028B00046F2A711C0E903148461FFF7B5F808B127
:1028C000FDF7F3FE4FF48050009069460948FFF78A
:1028D00071F908B1FDF7E9FE049404A905480594CF
:1028E000FFF75AF8002801D0FDF7DFFE06B010BD53
:1028F000000800402402002010B586B000241748CC
:102900000094019402940394049413490594016083
:1029100042F2CF01C0E9011446F67711C0E9031471
:102920008461FFF781F808B1FDF7BFFE4FF48050D6
:10293000009069460948FFF73DF908B1FDF7B5FE7B
:10294000049404A905480594FFF726F8002801D04F
:10295000FDF7ABFE06B010BD000C00406C0200207D
:102960000C4810B50A4901604FF41651416000212E
:1029700081600C22C160C0E904128161C161FFF76E
:1029800069FB002803D0BDE81040FDF78EBE10BDE6
:10299000004C0040B40200200C4810B50A49016008
:1029A0004FF4E1314160002181600C22C160C0E937
:1029B00004128161C161FFF74DFB002803D0BDE81F
:1029C0001040FDF772BE10BD00100140FC02002057
:1029D0000C4810B50A4901604FF4E1314160002113
:1029E00081600C22C160C0E904128161C161FFF7FE
:1029F00031FB002803D0BDE81040FDF756BE10BDE6
:102A00000044004044030020FEE7FEE72DE9F047C4
:102A1000DFF8008100242DED088B08F5A86608F585
:102A2000287906F52877DFED3C8ADFED3C9A9FEDAB
:102A30003CAADFED3CAA9FED3CBADFED3CBA9FED2E
:102A40003C9A9FED3C8AC4EBC40000EB400508EBC8
:102A50008500B0EE681AF0EE490AB0EE480A364A30
:102A6000002100F071F8344A09EB8500B0EE681AD5
:102A7000F0EE690AB0EE480A1032002100F064F866
:102A80002D4A06EB8500B0EE681AF0EE4A0AB0EE69
:102A90006A0A2032002100F057F8274A07EB850028
:102AA000B0EE681AF0EE4B0AB0EE6B0A303200213D
:102AB00000F04AF8641C042CC5DB0424DFED1F8AF7
:102AC000DFED1F9A9FED1FAAC4EBC4001A4A00EB6A
:102AD000400506EB8500B0EE681AF0EE490AB0EE4C
:102AE000480A2032002100F02FF8134A07EB850036
:102AF000B0EE681AF0EE690AB0EE4A0A30320021F0
:102B000000F022F8641C082CDEDBBDEC088BBDE86D
:102B1000F0870000640500200000FA4300409C4557
:102B20000000FA4500606A4600803B4500803B4655
:102B30000080BB4500401C462C0000200000000027
:102B4000000096430000C84300282CD0002A2AD059
:102B50000170D2ED001A00F11403C0ED011AD2ED9C
:102B6000011AC0ED021AD2ED021AC0ED031AD2ED1D
:102B7000031AC0ED041A83EC030A9FED0B0A80EDE3
:102B8000110A80ED100A80ED0F0A80ED0A0A80ED2F
:102B90000D0A80ED0C0A80ED0B0A80ED140A80ED21
:102BA000130A80ED120A704700000000104AC0EBC3
:102BB000C00110B502EB8101B0EE401A31F91A1CC8
:102BC00000EE101A0B4901EB8001F8EEC00A11ED7E
:102BD000010AC0EBC00000EB4001074800EB810494
:102BE000A4F1540002F0B0FD14ED0B0A10BD00007A
:102BF0008C030020E8110020640500207047704716
:102C0000FEF784BB30B593B030216846FDF708FC71
:102C100014210CA8FDF704FC1D480025016841F0B3
:102C200080510160006800F08050119019480168DF
:102C300041F4804101600068022400F4804011905A
:102C400001200090000401908001CDE9064008AA0F
:102C50000420A82182E813000B906846FEF7DAFCF6
:102C600008B172B6FEE70CA90F2081E831004FF4DD
:102C7000A0500F904FF48050109005210CA8FEF743
:102C8000DFFB002801D072B6FEE713B030BD0000B4
:102C900040380240007000400248016841F4700171
:102CA0000160704788ED00E00148FEF7F2BF0000C8
:102CB000940100200148FEF7ECBF0000DC01002079
:102CC0000148FEF7E6BF0000240200200148FEF79D
:102CD000E0BF00006C020020F0B50268294D2A4ECA
:102CE0002A4FDFF8ACC02B4B4FF0804EA84209D0E2
:102CF000704507D0B04205D0B84203D0604501D03E
:102D0000984203D122F070044A682243A8421BD0A3
:102D1000704519D0B04217D0B84215D0604513D0D5
:102D2000984211D01C4CA0420ED01C4CA0420BD09B
:102D30001B4CA04208D01B4CA04205D01A4CA0420C
:102D400002D01A4CA04203D122F44074CA68224334
:102D50004C6922F08002224302608A68C2620A68DB
:102D60008262A84201D0984201D109690163012120
:102D700041610169C90703D0016921F001010161C5
:102D8000F0BD0000000001400004004000080040C9
:102D9000000C00400004014000400140004401409C
:102DA0000048014000180040001C00400020004086
:102DB00010B5846842EA032224F47F440A43224384
:102DC000826010BD826822F070020A4342F007015F
:102DD0008160704710B5046A036A23F0010303623F
:102DE000836923F0F00343EA021324F00A020A4342
:102DF0008361026210BD10B5036A046A24F01004F6
:102E00000462846923F0A00324F4704444EA02328B
:102E100043EA01118261016210BD00000148FEF722
:102E2000E1BF0000B402002010B5806B0021C18515
:102E3000C184FEF7D5FF10BD01680C3151E8002FA9
:102E400022F4907241E80023002BF5D1016814317F
:102E500051E8002F22F0010241E80023002BF5D1B8
:102E6000016B012909D101680C3151E8002F22F0D2
:102E7000100241E80023002BF5D1202180F84210F8
:102E800000210163704708B590F84210222901D053
:102E9000022008BD81684FF48053994201D1026934
:102EA00022B1826A99421BD049B10AE00268816A64
:102EB0005268C2F308020A80816A891C08E001692D
:102EC00071B10168496801F07F011170816A491C84
:102ED0008162C18D491E0904090CC18503D01BE024
:102EE00001684968F1E70168CA6822F02002CA60F7
:102EF0000168CA6822F48072CA6001684A6922F0D7
:102F000001024A61202180F8421000214163026BD6
:102F1000012A03D0FFF76AF9002008BD01630168A8
:102F20000C3151E8002F22F0100241E80023002B61
:102F3000F5D101680A68D20602D50A68496800918D
:102F4000818DFEF74CFFE7E770B504460068016924
:102F5000E26821F4405111430161A1682069E269EE
:102F600001436069104301432068C26849F20C6361
:102F70009A430A43C26020684169A26921F4407102
:102F80001143416131492068884202D0304988426A
:102F900002D1FEF7FFFA01E0FEF7ECFAE269002346
:102FA000192164253226B2F5004F626828D0A0FBB3
:102FB0000101930F9200FDF777F90146B0FBF5F0A0
:102FC0006FF01802504301EB800006EB0010B0FBDD
:102FD000F5F000F0F002B1FBF5F002EB0012B1FBEE
:102FE000F5F06FF01803584301EB800006EB00107A
:102FF000B0FBF5F000F00F0021681044886070BD50
:10300000A0FB010192185B41FDF74EF90146B0FBB0
:10301000F5F00201B1FBF5F06FF01803584301EB36
:10302000800006EBC000B0FBF5F000F0F80002EB0A
:103030004002B1FBF5F0584301EB800006EBC00005
:10304000B0FBF5F000F00700D6E7000000100140EB
:103050000014014081628285C285002141642221E1
:1030600080F84210016921B10168CA6842F4807297
:10307000CA6001684A6942F001024A610068C16899
:1030800041F02001C160002070472DE9F8431F4640
:1030900090460D460446089E23E0701C21D0FEF7A2
:1030A0002FF9C01BB0421AD8CEB12068C1684907B9
:1030B00017D5802D15D0402D13D00168C9430907BD
:1030C0000FD401680025406800902046FFF7B4FE49
:1030D0000820606484F840500120BDE8F883032094
:1030E000FBE72068006835EA000004D00020404576
:1030F000D3D00020F1E70120F9E700000148FEF7F6
:1031000071BE0000FC0200200148FEF76BBE00000B
:1031100044030020FEE703B401984100009850EA00
:10312000C12018BF04204A0D18BF40F0010040F232
:10313000FF72B2EB515F08BF40F00200012808BFE8
:10314000052002B070474100080218BF04200A0E93
:1031500018BF40F001004FF07F4232EA010108BF82
:1031600040F00200012808BF052070470907090E3A
:10317000002804DB00F1E02080F80014704700F024
:103180000F0000F1E02080F8141D704700000000DF
:1031900010B52F499FED2C1B2DED020B84B0059827
:1031A00020F000408842D8BF9DED040B2DDD294959
:1031B000884209D1049840B94FF00100FDF75FF94A
:1031C00001F06EF806B010BD05DB9DED040B01F0BB
:1031D0005BF806B010BD68469DED040B00F06CFC7A
:1031E00010F0030004BF9DED021B9DED000B0CD001
:1031F00001280ED09DED021B9DED000B022817D07B
:10320000012000F0A9FF06B010BD00F071FE06B06D
:1032100010BD9DED021B9DED000B012000F09CFFF9
:1032200051EC100B02F0D8FD06B041EC100B10BDB4
:1032300000F05EFE51EC100B02F0CEFD06B041EC4A
:10324000100B10BD00000000000000000000000096
:10325000FB21E93F0000F07F10B52DED028BF0EE71
:10326000408A18EE900AB0EE608A20F00040C0F16B
:10327000FF40C00F07D118EE100A20F00040C0F147
:10328000FF40C00F2BD018EE101A18EE900A03F072
:1032900071FB00EE100A10EE100A6FEAD05010F029
:1032A000FF0F04BFBDEC028B10BD18EE900A00F0BA
:1032B000004110EE100A00F00040814204BFBDEC56
:1032C000028B10BD18EE101A10EE100ABDEC028B26
:1032D00061F31E0000EE900A30EE600A10BD18EE99
:1032E000900A4FF07F41B1EB400F1CBF18EE100A5F
:1032F0005FEA4000C7D10120FDF7C1F8BDEC028BA9
:10330000BDE8104000F0FABF10B510EE100A2DED28
:10331000068BB7EE001A10EE901AB0EE418A00222A
:10332000A0F5000CDFEDFE9A4FF00073BCF1FE4FEC
:103330004FF07F4403EB410C80F0B481BCF1804F2F
:10334000C0F02082F74901449FEDF73AB1F5005FE4
:1033500040F2D48200F58021CB0C03F00F0101EE86
:10336000901AC3F307137F3BA0EBC350B8EEE12ADA
:1033700000EE100A1A44DFEDED2AF0EE411A42EE9B
:10338000221AF0EE613A70EE232A30EE632A12EE32
:10339000900A00F500606FF30B0001EE900A73EEE7
:1033A000E13A33EE804AC1EE223A22EE230A10EED1
:1033B000100A00F500606FF30B0000EE100A00EE3B
:1033C000612A00EE442A62EE232A70EE221A21EED0
:1033D000A12ADFEDD73A02EE233A23EE023A20EE9D
:1033E000012A22EE811A03EE211A32EE010A10EEB2
:1033F000100A00F500606FF30B0000EE100A72EE89
:10340000401A31EE812A9FEDCB1A60EE011A9FED32
:10341000CA1A20EE011A9FEDC90A02EE001A31EE17
:10342000810A10EE100A00F500606FF30B0000EE49
:10343000100AC34871EEC01A31EE812A784400EBBD
:10344000C10090ED003AD0ED011A100101EE100A12
:10345000F8EEC12A32EE211A31EE001A31EE031ACB
:1034600031EE221A11EE100A00F500606FF30B0026
:1034700009EE100A39EE621A31EE431A31EE400AB3
:1034800030EE610A32EE40AA10EE900A002100F5FB
:1034900000606FF30B0008EE900A084670EEE8AA91
:1034A0004FF0000029EE280A00F00C01F0EEC00AEF
:1034B00010EE900AB0F18B4F0DDD10EE900AB4EBD8
:1034C000400F08D310EE100A4FF08B4262F31E003B
:1034D00008EE900A13E069EE2A0A38EEAA1A4AEEBC
:1034E000010A30EE201A11EE100A00F500606FF3A9
:1034F0000B0008EE900A30EE680A70EE209A0C205D
:103500004FF0000038EEA90AB5EEC00AF1EE10FA4D
:1035100034BFFEEE000AF6EE000A30EE800ABDEE81
:10352000C00A10EE100A011100EE101AF8EEC00ADF
:1035300000EE100AB8EEC00A38EEC00A30EE290AD2
:10354000DFED801A9FED801A00EE211ADFED7F1A61
:103550007F4900F00F0040EE011A21EE800A794405
:1035600001EB800191ED001A7A49794401EB800169
:10357000D1ED001A784901EE801A794401EB800000
:10358000764990ED000A31EE001AB0EEE00A10EE36
:10359000100A884215DA10EE100AB4EB400F10D36F
:1035A0009FED6F0A30EE800ADFED6E0A20EE200AF2
:1035B00068EE010ABDEC068BBCEEC00A20EE200AC4
:1035C00010BD10EE100A6849884243DA10EE100A66
:1035D000B4EB400F3ED3BDEEE00A68EE010A10EEF8
:1035E000100A00EBD0725110C90501F17E5100EEB6
:1035F000101AA0EB6200C00560EE200A00F17E50B8
:1036000000EE100A60EE808A18EE900AB4EB400FCC
:103610000FD10220FCF733FF00F078FE10EE101AF5
:1036200018EE100ABDEC068B61F31E0000EE100AC6
:1036300010BD18EE900A400011D018EE900AFFF766
:1036400082FD042808BF00F069FEB0EE680ABDECF8
:10365000068B10BDF5EEC00AF1EE10FA0FD2022073
:10366000FCF70DFF00F05AFE10EE101A18EE100ACB
:10367000BDEC068B61F31E0000EE100A10BD0220A7
:10368000FCF7FDFE00F042FE10EE101AB0EE480A04
:1036900010EE100ABDEC068B61F31E0000EE100A5E
:1036A00010BD00BFBCF1804F6CD300BF00F1FF43E1
:1036B000B3F1FE4F24D200BFB0EEC00A10EE100AE4
:1036C000C1F3C7537F2B0DDB972BBFF63BAEC3F186
:1036D00096034FF0010C0CFA03F3A3F1010C1CEA62
:1036E000010F08D00120FCF7CAFEBDEC068BBDE837
:1036F000104000F003BE0B4218BFBFEE008A21E667
:1037000043001CBF4FF08073B3EB400F34D96FF010
:103710001A02DFED161A20EE210A10EE100A27E039
:1037200000000000001080C0ABAAAA3E0000803D4F
:103730007EE24C3E00B03842D49AB8BB3BAA384235
:103740004C360000FC596337C9FF753A1872313D99
:10375000EA3500001E3600008E3500000000FC42F5
:103760000000FE420000004B000040430000004DFE
:1037700010F0004FA0D1E5E5A0F50003B3F1FE4F36
:1037800021D2DFE503EB4103B3F1007F11D3F5EE66
:10379000C00AF1EE10FA05D1430018BFB4EB400F98
:1037A00076D883E701F0004141F0FC5100EE901A19
:1037B0007CE7B3F1807F06D210EE903AA3F50003C8
:1037C00000EE903A72E720F000426FF0FF4C604C40
:1037D00002EB0C03A34210D321F000439C44A44508
:1037E0000BD3B0F17E5F18BF5FEA410C50D0B2F14D
:1037F000FF4F98BFB3F1FF4F05D9BDEC068BBDE875
:10380000104000F077BDB0F1FF4F0FD0C1F3C752A9
:103810007F2A09DB972A11DAC2F19602012303FA03
:1038200002F2531E0B4205D0002208E011F0004FB7
:1038300055D128E00A4218BF012200D1022210F51A
:10384000000F13D028B3B0F1004F26D010F1814FF4
:103850004FD04FF0FE42B2EB400F94BF012000204A
:10386000012202EBE171884239D10CE011F0004FE6
:1038700002D0012A38D032E0012A02BF9FED350A7A
:10388000BDEC068B10BD9FED340ABDEC068B10BD60
:103890002FE011F0004F0CD121E0B1F1FF4F1ED00D
:1038A00011F5000F05D011F0004F15D00AB1012A13
:1038B00008D00220FCF7E3FDBDEC068BBDE810400C
:1038C00000F00EBD0220FCF7DAFD00F009FDBDECB2
:1038D000068BB1EE400A10BD0AB1012A04D0B0EE49
:1038E000690ABDEC068B10BDBDEC068B9FED1B0A73
:1038F00010BDBDEC068BB7EE000A10BD30EE410ADC
:10390000B5EE001A9FED172A00EE413AB6EE001A06
:1039100060EE001A00EE431A61EEC11A9FED101A14
:1039200020EE011A20EE020A9FED0F2A01EE820A14
:1039300071EE001A11EE900A00F500606FF30B00B3
:1039400009EE100A31EE491A31EE00AA9CE500009A
:10395000FFFF3F00000080FF0000807F000000802C
:1039600000B0B841D49A38BB3BAAB841000000006F
:1039700010B52F499FED2C1B2DED020B84B005983F
:1039800020F000408842DCBF00209DED040B32DDBA
:103990002849884209D1049840B94FF00100FCF74A
:1039A0006EFD00F07DFC06B010BD05DB9DED040B47
:1039B00000F06AFC06B010BD68469DED040B00F0F7
:1039C0007BF810F0030011D0012818D09DED021BE8
:1039D0009DED000B02281AD000F08AFA51EC100B72
:1039E00002F0FAF906B041EC100B10BD9DED021B80
:1039F0009DED000B012000F0AFFB06B010BD9DED6A
:103A0000021B9DED000B00F073FA06B010BD012003
:103A100000F0A2FB51EC100B02F0DEF906B041EC15
:103A2000100B10BD000000000000000000000000AE
:103A3000FB21E93F0000F07F00B52DED048BB0EED7
:103A4000409AF0EE609A83B051EC190B02F066FDDB
:103A500041EC180B18EE100A18EE901A8DED008B41
:103A6000002818BF0120084320F00040C0F17F600B
:103A700000F1E040C00F14D019EE101A19EE900AB0
:103A80008DED009B002918BF0121084320F0004064
:103A9000C0F17F6000F1E040C00F04BF0120FCF7DF
:103AA000EEFCB0EE480A03B0F0EE680ABDEC048B01
:103AB00000BD0000000000002DE9F14F04462DED8F
:103AC000020B2DED088B8AB09FEDE70B80ED020B0A
:103AD000139EE74826F0004585420ADC9DED120B57
:103AE000002084ED000B0AB0BDEC088B03B0BDE8EC
:103AF000F08FE0489FEDE0AB9FEDE1BBA84247DDD2
:103B0000E14F9FEDE39B9FEDE48B9DED120B53EC9A
:103B10001A2B51EC100B002E1CDD02F0CBFD41ECFA
:103B2000100BBD4208D053EC1B2B51EC100B02F0D4
:103B3000C1FDC4E900010BE053EC192B51EC100B53
:103B400002F0B8FD53EC182B02F0B4FDC4E90001FB
:103B50000120C8E702F07EF941EC100BBD4208D00D
:103B600053EC1B2B51EC100B02F074F9C4E900016B
:103B70000BE053EC192B51EC100B02F06BF953ECEA
:103B8000182B02F067F9C4E900014FF0FF30AAE7F3
:103B9000C348A84279DB9DED120B51EC100B00F0ED
:103BA000E9FE41EC180B9FEDC00B53EC102B02F01B
:103BB000ABFB9FEDBF1B53EC112B02F04BF902F056
:103BC00049FB074602F075FB41EC190B53EC1A2B2D
:103BD00002F09AFB53EC182B02F094FC41EC180B0A
:103BE00053EC1B2B51EC190B02F08EFBDFF8C8A233
:103BF00041EC100B4FEA15580125FA4453EC102BF9
:103C000051EC180B02F056FD032DC4E900013DD024
:103C1000C1F30A5005EB4511A8EB000011398142B0
:103C200034DA0AEB051BB0EE48AA9BED000BF0EE70
:103C300068AA53EC102B51EC190B02F065FB41EC18
:103C40001B0B51EC1A0B53EC1B2B02F033FD41EC18
:103C5000180B51EC1A0B53EC182B02F02BFD53EC04
:103C60001B2B02F027FD9BED020B41EC1A0B53ECD2
:103C7000102B51EC190B02F047FB53EC1A2B02F0FE
:103C800019FD41EC100B6D1CB8E70EE0002EA8BF2B
:103C90003846BFF628AF94ED000B51EC100B02F044
:103CA0009BF8C4E9000178421DE7C6F3130040F415
:103CB000801EC6F30A50A0F2F530471100F01F0530
:103CC000C5F12000DDF848B008900020069007906C
:103CD0000520EC467949002D07EB0002794408BF26
:103CE00051F8221009D051F8223001EB8201AB408B
:103CF0004A68089922FA01F11943A1FB0E26A1FB9B
:103D00000B131A449A4234BF0123002303EB060825
:103D10000CEB8003D3E901A60E448E4234BF01218F
:103D2000002192448A4411B1924502D903E09245A0
:103D300001D2012100E00021C3E901A641444CF871
:103D40002010011EA0F10100C4DC029800F1005017
:103D5000850F0298DDE903678000DDF8148002F02A
:103D6000A8FA41EC1A0B304602F0BAFA9FED541B48
:103D700053EC112B02F0C8FA41EC1B0B384602F051
:103D8000AFFA9FED511B53EC112B02F0BDFA41EC41
:103D9000180B404602F0A4FA9FED4D1B53EC112B7B
:103DA00002F0B2FA41EC190B51EC180B53EC192B41
:103DB00002F050F853EC1B2B02F04CF853EC1A2B8A
:103DC00002F048F8CDE90801002008909DED080BAD
:103DD00053EC1A2B51EC100B02F06CFC53EC1B2B28
:103DE00002F068FC53EC182B02F064FC53EC192B26
:103DF00002F088FB9FED381B53EC112B02F084FA84
:103E00009FED370B41EC180B53EC102B9DED080B7D
:103E100051EC100B02F078FA53EC182B02F01AF860
:103E20009FED310B41EC180B53EC102B9DED080B63
:103E300051EC100B02F068FA53EC182B02F00AF860
:103E400041EC100B139810F0004F06D06D4251EC6E
:103E5000100B01F0C1FF41EC100B284684ED000B64
:103E600041E600000000000000000000000000002B
:103E7000FB21E93F7CD9024000004054FB21F93F7F
:103E80003163621A61B4D03DFB21F93F00000000AC
:103E90000000601A61B4D03D7370032E8A19A33BF1
:103EA000FB2139410000000083C8C96D305FE43F49
:103EB000000000000000E03F02300000502F000032
:103EC000000000000000103E000000000000103C58
:103ED000000000000000103A182D4454FB21F93D69
:103EE0003326A611460B113C00000054FB21F93D7E
:103EF00010B52DED040B2DED088B82B0B0EE419A7C
:103F0000F0EE619A0B9820F000449FED4BABB4F1BA
:103F1000795F11DA9DED0A0B51EC100B02F09AF962
:103F2000002801BFB0EE4A0AF0EE6A0A02B0BDEC0A
:103F3000088B04BF04B010BD9DED0A0B53EC102B91
:103F400051EC100B02F0E0F941EC180B3C48062153
:103F5000B0EE480AF0EE680A784400F081F853ECBD
:103F6000182B51EC100B02F0CFF99DED0A0B41EC30
:103F70001B0B53EC192B51EC100B02F0C5F941EC63
:103F8000190B53EC1B2B51EC180B02F0BDF953EC41
:103F9000192B02F08FFB9FED2C0B41EC190B53EC0E
:103FA000102B51EC180B02F0AFF941EC100B284824
:103FB000844210DA53EC192B51EC100B02F07AFB0F
:103FC00053EC1A2B02F09EFA41EC100B02B0BDEC40
:103FD000088B04B010BD1F48A042BCBF9FED1E1B44
:103FE0008DED001B06DBA4F5001001900020009071
:103FF0009DED001B51EC100B53EC112B02F05AFB02
:104000009DED000B41EC180B53EC102B51EC1A0BEF
:1040100002F050FB41EC1A0B53EC192B51EC180B2E
:1040200002F048FB53EC1A2B02F06CFA41EC100B37
:10403000CCE7000000000000000000000000F03F9E
:10404000742C000000000000000000000000E03FB1
:104050003333D33F0000E93F000000000000D23FAF
:1040600070B504462DED028B4D1E00EBC500B0EE81
:10407000408AF0EE608A90ED000B35F0060017D014
:1040800053EC182B51EC100B02F03EF941EC100BE5
:104090006D1E04EBC50090ED001B51EC100B53ECB2
:1040A000112B01F0D7FE41EC100B35F00600E7D1E3
:1040B000022D36D0042D1CD0062D1CBFBDEC028B6A
:1040C00070BD53EC182B51EC100B02F01DF994ED60
:1040D0000A1B53EC112B01F0BDFE53EC182B02F020
:1040E00013F994ED081B53EC112B01F0B3FE41ECD6
:1040F000100B53EC182B51EC100B02F005F994ED5A
:10410000061B53EC112B01F0A5FE53EC182B02F00B
:10411000FBF894ED040B53EC102B01F09BFE41ECEB
:10412000100B53EC182B51EC100B02F0EDF894ED42
:10413000021B53EC112B01F08DFE53EC182B02F0F7
:10414000E3F894ED001B53EC112B01F083FEBDEC62
:10415000028B41EC100B70BD31B504462DED040B04
:104160002DED0A8BB0EE41BAF0EE61BA0B989DEDE1
:104170000A0B20F00040B0F1795F0DDA51EC100B22
:10418000FEF7C9FF042808BF00F09AF89DED0A0B5E
:10419000BDEC0A8B05B030BD53EC102B51EC100B6D
:1041A00002F0B2F841EC180B9DED0A0B53EC182B02
:1041B00051EC100B02F0A8F841EC190B2C48B0EEB2
:1041C000480AF0EE680A05217844FFF749FF9FEDA1
:1041D0002ACBB0EE40AAF0EE60AA9CB353EC1C2BA5
:1041E00051EC190B02F090F841EC1C0B53EC1A2B1C
:1041F00051EC190B02F088F89FED210B41EC190BE3
:1042000053EC102B51EC1B0B02F07EF853EC192BE6
:1042100002F050FA53EC182B02F076F853EC1B2BFB
:1042200002F048FA53EC1C2B02F044FA9DED0A1BF5
:1042300053EC112B02F066F9BDEC0A8B05B041EC92
:10424000100B30BDFFE753EC1A2B51EC180B02F0AA
:104250005BF853EC1C2B01F0FDFD53EC192B02F025
:1042600053F89DED0A1B53EC112B01F0F3FDE3E72E
:10427000FC2A000000000000495555555555C5BFA2
:10428000000000000000E03F10B553EC102B51EC93
:10429000100B01F0DFFD41EC100B10BD0000000021
:1042A0009FED050B10B553EC102B51EC100B01F0EA
:1042B00079FE41EC100B10BD000000000000000072
:1042C0009FED050B10B553EC102B51EC100B02F0C9
:1042D0001BF841EC100B10BD0000000000000010A6
:1042E000DFED030AB7EE001A81EE200A70470000E6
:1042F0000000000030EE200A70470000DFED020AE7
:1043000080EEA00A70470000000000009FED020A46
:1043100020EE000A70470000000000709FED020AC6
:1043200020EE000A704700000000001010B530EECB
:10433000600A2DED028B9FED0B8ADFED0B8A30EECC
:10434000080AF0EE680AFEF787FFB5EEC00AF1EE44
:1043500010FA01D230EE280A30EE480ABDEC028B8A
:1043600010BD0000000034430000B44329482A492E
:1043700090ED001A80ED011AD1ED020A274930EEC6
:10438000600A80ED000AD0ED030A30EE411A70EEAB
:10439000800AC0ED030A80ED021AD1ED021A21EE67
:1043A000811A80ED061AD1ED011A61EEA00AC0ED66
:1043B000050AD1ED001A61EE801AC0ED041A91EDE4
:1043C000030AF4EEC00AF1EE10FA06DCB1EE400A80
:1043D000F4EEC00AF1EE10FA01D280ED050A31EEDA
:1043E000810AD0ED050A30EE200A80ED070AD1EDF2
:1043F000040AB4EEE00AF1EE10FA06DCF1EE600A0F
:10440000B4EEE00AF1EE10FA01D2C0ED070A90ED29
:10441000070A704708100020F4100020E800002070
:104420002DE9F04702220123244C254D254E264F2D
:1044300026494FF000094FF0030C0F280BD2DFE89C
:1044400000F00A080C0F140A2C2E31330A352937D4
:10445000390023702B70BDE8F08722702A70FAE7CC
:104460000420207085F800C0F5E7194A19480A238E
:1044700051880170090A4170D18B8170090AC1709D
:10448000518F0171090A4171014606221248FDF758
:104490006FFF124981F80090DDE7062000E0072059
:1044A0003070D8E73B70D6E73A70D4E70B70D2E7AC
:1044B0000A70D0E781F800C0CDE700003801002085
:1044C00026010020290100202D01002028010020C4
:1044D0008C03002018010020FC02002010010020A5
:1044E0002DE9F041254F234C254D39680026DFF892
:1044F00088C0226895F800E04B1C42B1012A15D013
:10450000022A25D0032A0DD1A5282BD02EE05A2827
:104510000AD10CF8010001203B600EF15A0E206018
:1045200085F800E0BDE8F0813E6021E009290BDC60
:10453000012909DB0CF8010070443B6028700A2B4C
:10454000F0D102202060EDE726602E703E60E9E7A2
:10455000704505D10CF80100032020603B60E1E7C5
:104560002660E1E70CF8010000F080FF3E60266065
:104570002E70D7E7300100203C11002034010020CC
:104580002E0100200E4801780E4802780E48914214
:1045900003D10178491C01700DE00021017008462B
:1045A0009FED0A0A0A4901EB8002401CC0B282ED6D
:1045B000000A0428F7D3012201490648FDF708BE86
:1045C000140100202A01002010010020000000003A
:1045D000DC100020FC0200202DE9F047994D002757
:1045E0002DED048B29789FED981A9FED988A984EAF
:1045F000984C7078DFED988A9FED989A082944D2FC
:10460000DFE801F0434304192E4756FEDFED940A1C
:1046100028B1012803D0022801D0032808D1B0EE28
:10462000042AF3EE051AB8EE080A2046FDF728FF23
:104630002F70012028E028B1012803D0022801D0E2
:1046400003280AD1B0EE042AF3EE051AF9EE000AA7
:10465000B8EE080A2046FDF713FF2F70022013E082
:10466000DFED800A28B1012803D0022801D00328F9
:1046700008D1B0EE042AF3EE051AB8EE080A204677
:10468000FDF7FEFE2F7003203070BDEC048BBDE8FB
:10469000F087B0EE682AF0EE491AB3EE0D1AF0EE8C
:1046A000480AB0EE000A2046FDF7EAFE2F70ECE75C
:1046B000DFF8B4914FF40078012241464846FCF7F8
:1046C00019FEC82000F0F8F8002241464846FCF7E1
:1046D00011FE30784FF49178012816D1B07810B9D6
:1046E000404600F0E9F8B078012802D1404600F0D9
:1046F000E3F8B078022802D1404600F0DDF8B07847
:10470000032802D1404600F0D7F830784FF4827A7F
:104710004FF48C79022816D1B07810B9404600F0D9
:10472000CBF8B078012802D1484600F0C5F8B0783F
:10473000022802D1484600F0BFF8B078032802D121
:10474000504600F0B9F83078032817D1B07818B97E
:104750004FF4967000F0B0F8B078012802D14846C6
:1047600000F0AAF8B078022802D1484600F0A4F878
:10477000B078032802D1504600F09EF8B07860B9B6
:10478000B0EE682AF0EE491A9FED381ADFED380ACC
:10479000B0EE000A2046FDF773FEB07801280CD178
:1047A000B0EE682AF0EE491AB3EE0D1AF0EE480AA0
:1047B000B0EE000A2046FDF763FEB07802280CD167
:1047C000B0EE682AF0EE491A9FED2A1ADFED2A0AA8
:1047D000B0EE000A2046FDF753FEB07803280CD156
:1047E000B0EE682AF0EE491A9FED241ADFED240A94
:1047F000B0EE000A2046FDF743FEB078042800E042
:1048000010E00CD1B0EE682AF0EE491A9FED1D1AA7
:10481000DFED1D0AB0EE000A2046FDF731FE2F70D5
:10482000377032E7BDEC048B2046B0EE042ABDE8B9
:10483000F047F3EE051ADFED150AB8EE080AFDF7AA
:104840001FBE00002D0100209A99E1416666663F77
:104850003901002004130020CDCC8C400000964389
:10486000666686C0333373C000140240D7A3EC41A0
:104870000C026B3FCDCCD041295C4F3F9A99B94196
:10488000EC51383F6666A241AE47213F9A9989C0F4
:10489000064807490068B0FBF1F206490A704FF478
:1048A0007A72B0FBF2F048607047000014000020FC
:1048B00040420F001800002070B54FF0E0250021A5
:1048C0006C69094AAB6952685043AA699A42FCD0A4
:1048D00002D2A3EB020302E0A4EB02063344194424
:1048E00013468142F1D370BD1800002010B5044674
:1048F0002DED068B90ED00AAD0ED019A80683AEE7E
:10490000699A01F0C1FF9FED188B53EC182B01F051
:10491000FBFC01F06DFA00EE100AF0EEC90AF4EEAD
:10492000C00AF1EE10FA08D884ED01AA9FED100A32
:1049300084ED030ABDEC068B10BDB5EEC09AF1EE16
:1049400010FA01DCB1EE400A10EE100A79EE800A8E
:10495000C4ED010A01F098FF53EC182B01F022FB83
:1049600001F046FAE060E5E7FCA9F1D24D62503F64
:104970000000000082B0CDE9000121F0004001906C
:104980009DED000B02B051EC100B70472DE9F0418A
:10499000DFF840800E460746002406EB840007EB54
:1049A000041590ED000A284685ED000AFFF79EFFEA
:1049B00008EB840095ED030A641CE4B280ED000A64
:1049C000032CEAD3BDE8F041024A02490C32024806
:1049D00000F058BADC110020B8000020D0ED010A28
:1049E00090ED000AB0EEE01AB0EEC00AD0ED020A77
:1049F000B4EEC01AF0EEE00AF1EE10FA01DDB0EE0E
:104A0000410AF4EEC00AF1EE10FA01DDB0EE600AE0
:104A10007047000008B59FED070A8DED000A8DF87C
:104A200000008DF801108DF802208DF803309DED07
:104A3000000A08BD0000000010B5B0F90030038185
:104A40000A8852BA02804C88D31A64BA44808C888F
:104A5000B3F5805F64BA848089798171016901DD71
:104A6000491E03E013F5805F01DA491C016102EB86
:104A70004131828A891AC16010BD098849BA018012
:104A80008182704770B52B482B4C2DED048BD0EDF7
:104A90000A0A90ED030AF8EEE09AB8EEC00AD0EDEB
:104AA000110A10EE100AB8EEE09A01F0EDFE9FED4B
:104AB000238B53EC182B01F027FC01F099F92060AF
:104AC00019EE900A01F0E0FE53EC182B01F01CFCEB
:104AD00001F08EF9606019EE100A01F0D5FE53EC7A
:104AE000182B01F011FC01F083F9A06004F1880299
:104AF0002146144800F0C6F9134C0F49A0688831CC
:104B000005468860E06A01F0BFFE9FED101B53EC84
:104B1000112B01F0F9FB41EC180B284601F0B4FE13
:104B200053EC182B01F096F901F062F9A060BDEC8E
:104B3000048B70BD8C0300204810002036B8D8A02C
:104B4000E5DD683F94000020F4100020FCA9F1D2BC
:104B50004D62503F03490120024608700248FDF7AC
:104B600057BC000018010020FC0200200C4810B5C2
:104B70005021017003214170002282703723C370DD
:104B800002714171B92181718421C17101460822EC
:104B90000448FDF73DFC02490220491E087010BD83
:104BA000DD000020440300200C4810B550210170A6
:104BB00003214170002282703D23C3700271417154
:104BC000992181718621C171014608220448FDF7AF
:104BD0001FFC02490120491E087010BDDD000020A5
:104BE0004403002010B52DED028BB0EE408A9FEDFE
:104BF0000C0AF0EE608AF0EE000A28EE000AB0EE31
:104C0000C00AFEF781FB20EE280AB5EEC08AF1EE5D
:104C100010FA01D2B1EE400ABDEC028B10BD0000CB
:104C20000000003A10B52DED028B9FED148BB0EE15
:104C3000480AF0EE680AFEF7FFFE9FED121B51ECEA
:104C4000100B53EC112B01F05FFB01F0D1F80F4C6E
:104C5000B0EE480AF0EE680A2061FEF7EDFE9FED27
:104C60000C1B51EC100B53EC112B01F04DFB01F020
:104C7000BFF8E061BDEC028B10BD00000000000039
:104C800000000840000000000000E03FB8000020E5
:104C9000000000000000E0BF0A480B4A007868B13D
:104CA0000A490628087001D9062008701078401CAF
:104CB0001070042203490648FDF78ABAFF201070DD
:104CC0000122F7E714010020100100202B01002031
:104CD000FC02002010B520482049214C2DED028B0C
:104CE00090ED000AD1ED000A30EE200A84ED000AB2
:104CF00090ED010AD1ED010A30EE200A84ED010A9F
:104D000090ED020AD1ED020A30EE200AFFF72EFBE9
:104D100084ED020A134C206A01F0B6FD9FED121BD0
:104D200053EC112B01F0F0FA41EC180BA06801F0E4
:104D3000ABFD53EC182B01F08DF801F059F8A06091
:104D400007490B48FFF722FEBDEC028B0448BDE883
:104D5000104000F0A5BD0000DC1000205411002020
:104D6000F00F0020F4100020FCA9F1D24D62503F5A
:104D7000AC110020F7EE001A21EE000A31EEC11A44
:104D800001EE200A704700002DED028BFCF7C6FAF9
:104D9000FDF738FFFDF7BAFCFDF778FCFDF796FC50
:104DA000FDF7FAFDFDF70EFDFDF712FEFDF7D8FD4C
:104DB000FDF73AFDFDF76CFDFDF79EFD00F02CFCC4
:104DC000DFF8B0802C4E002730780028FCD02B482C
:104DD0000078012838D0022839D003283AD0042896
:104DE0003BD003209FED268AB0EE480AFDF7DEFE99
:104DF000BDEEC00A10EE100AB0EE480A05B202205D
:104E0000FDF7D4FEBDEEC00A10EE100AB0EE480A5F
:104E100004B20120FDF7CAFEBDEEC00A00232A46F7
:104E200010EE100A214600B2FBF7A0FBFFF7D4FBFF
:104E300000F052F898F800004446401CC0B288F8D0
:104E4000000005280CD00DE0FFF744FFEEE700F06E
:104E5000A3FEEBE700F0C0FDE8E700F061F8E5E74E
:104E6000FFF7A2FE20780A2802D1FFF77FFE277005
:104E70003770A9E7000000203C0100202601002037
:104E800000000000FEB50023009301931C466F460E
:104E9000029304EB440500EB8506002307EB840531
:104EA00006EB830C95ED000ADCED000A01EB830CA8
:104EB0005B1C9CED001ADBB2032B00EE810A85ED32
:104EC000000AEDD302EB8403641CE4B283ED000A14
:104ED000032CDED3FEBD000010B5094C207802285B
:104EE00005D0032803D0042801D0052804D10122CD
:104EF00003490448FDF78CFA0020207010BD000023
:104F000040010020FC02002003490020012208701B
:104F10000248FDF77DBA000018010020FC020020C5
:104F2000014800F0BDBC00005411002070B51B4CBE
:104F3000E378A27861782078FFF76CFD194A184968
:104F4000107801EB800181ED000A237865782B440D
:104F5000A578E4782C441C44134B1D782C441C7019
:104F6000124B1B782BB1032803D29FED110A81ED60
:104F7000000A401C0F49C0B210700978884201D263
:104F8000042204E00C490878401C08700122BDE8A6
:104F9000704002490948FDF71BB9000014010020C8
:104FA000DC1000202C0100202A0100202701002015
:104FB000000000002B01002010010020FC02002056
:104FC00000231A4607E0826102610281C26002800A
:104FD0005B1C8282DBB28B42F5D3704705489FEDA4
:104FE000040A80ED000A80ED010A80ED020A704794
:104FF000000000004810002010B52DED028BB0EE2F
:10500000408A18EE100A01F03FFC41EC100BFEF74D
:10501000BFF851EC100B00F0EBFE184C206018EEBE
:10502000100A01F031FC41EC100BFEF7A1FC51EC31
:10503000100B00F0DDFE00EE100A18EE100AB1EEC3
:10504000400A84ED010A01F01FFC41EC100BFEF751
:105050008FFC51EC100B00F0CBFEE06018EE100A54
:1050600001F012FC41EC100BFEF792F851EC100B22
:1050700000F0BEFE2061BDEC028B10BD7000002070
:1050800010B52DED048B9FED179BB0EE490AF0EEA5
:10509000690AFEF7D1FC9FED151B51EC100B53EC88
:1050A000112B01F031F900F0A3FE124C9FED120B11
:1050B000206151EC100B00F08FFE41EC180BB0EEAC
:1050C000490AF0EE690AFEF7B7FC53EC182B51ECD5
:1050D000100B00F067FF00F08BFE6061BDEC048BED
:1050E00010BD0000000000000000084000000000AB
:1050F0000000E03F9400002000000000000000409D
:1051000080ED010A9FED050AC0ED020A80ED080A54
:1051100080ED070A80ED0C0A7047000000000000D7
:1051200010B5F0EEC00A2DED028B0446C0ED000A6A
:1051300000209FED278AB5EEC00A84F83C0084ED7C
:10514000088AF1EE10FA84ED078A84ED0C8A01DDFD
:10515000012001E04FF0FF3084F8340094ED012A83
:1051600094ED020AF6EE001AF0EE002A82EE001A22
:1051700060EE211A84ED0A1A61EE811A21EE811A7D
:10518000F0EE601A84ED051A41EE621A21EE221A41
:10519000F4EEC10AC4ED061AF1EE10FA06DD81EE56
:1051A000820A84ED0B0ABDEC028B10BD80EE801AE2
:1051B00011EE100A01F068FB41EC100BFEF73CFC0D
:1051C00051EC100B00F014FEA06284ED0B8AEAE7AC
:1051D0000000000070B504462DED088B90F83C00EF
:1051E00001287CD0D4ED0CAA94ED0AAAB6EE000AF0
:1051F0009FED788B9FED79BAF4EECAAAF1EE10FA22
:105200003ED2D4ED02BA2BEE800A10EE100A01F065
:105210003BFB53EC182B01F077F853EC182B01F003
:1052200073F8E56941EC190B284601F02DFB53ECAE
:10523000182B01F069F853EC192B00F00BFE41EC30
:10524000190B206A01F020FB53EC192B00F002FE31
:1052500000F0CEFD20621BEE900A01F015FB53EC2E
:10526000182B01F051F841EC190B284601F00CFB0A
:1052700053EC192B00F0EEFD00F0BAFDE06170E098
:10528000D4ED0B0A7AEE200AF4EEEA0AF1EE10FAF7
:1052900014DD6068E06101F0F7FA53EC182B01F0BF
:1052A00033F841EC190B206A01F0EEFA53EC192B9C
:1052B00000F0D0FD00F09CFD206252E0D4ED02BA77
:1052C0002BEE800A10EE100A01F0DEFA53EC182BD8
:1052D00001F01AF853EC182B01F016F800E075E015
:1052E000E56941EC190B284601F0CEFA53EC182B76
:1052F00001F00AF853EC192B01F0DCF941EC190B21
:10530000206A01F0C1FA53EC192B00F0A3FD00F064
:105310006FFD20621BEE900A01F0B6FA53EC182BD9
:1053200000F0F2FF41EC190B284601F0ADFA53EC06
:10533000192B01F0BFF900F05BFD00EE100A84EDBF
:10534000070AB5EEC00AF1EE10FA01D284ED07BAF1
:1053500094ED070AB5EEC00AF1EE10FA01D284ED21
:1053600007BA94ED000A9FED1E1AD4ED080A30EE3C
:10537000411AF4EEC10AF1EE10FA0ADAD4ED0B0A82
:10538000B0EE001A4AEE010AF4EEEA0AF1EE10FA63
:1053900008D284ED080A84ED07BA84ED0CBA012026
:1053A00084F83C0094F9340094ED070A002801DCED
:1053B000B1EE400A84ED0E0A206B01F065FA53EC61
:1053C000182B00F047FD00F013FD2063BDEC088BA7
:1053D00070BD0000FCA9F1D24D62503F00000000FA
:1053E000CDCCCC3D10B5204C04F17C00D4ED040AAA
:1053F000C4ED050AD0ED020AFEF798FF84ED040A19
:10540000D4ED080A70EE800AC4ED080A94ED0E1A75
:1054100060EE810AC4ED150A94ED0C1A20EE011A13
:1054200084ED181AD4ED051A30EE610AD4ED0D1A88
:1054300020EE210A84ED1B0A31EE000A30EE200A2C
:1054400084ED1E0AD4ED120AB4EEE00AF1EE10FA71
:1054500006DCF1EE600AB4EEE00AF1EE10FA01D2D9
:10546000C4ED1E0A10BD0000541000202DE9F05FAD
:105470005A485C4D00232DED028B0426B0F807102E
:10548000594C49BA00EE101A5549DFF864B1B8EE2C
:10549000400A584F4FF0030981ED000AB0F805208B
:1054A0004FF0020C52BA00EE102A4FF0010AB8EE8B
:1054B000400A81ED010A30F8032F52BA00EE102A9B
:1054C000B8EE400A81ED020AAA786A7080794749ED
:1054D000A870102850D2DFE800F031080B0E131D21
:1054E00022242F575715181B391F84F800A04BE0B2
:1054F00084F800C048E0404884F80090067043E01B
:10550000267041E081F800C03EE081F800903BE069
:105510000E7039E0052000E00620087034E0072016
:10552000FBE79BF80000401CC0B28BF80000052888
:105530002AD18BF8003027E03B70FAE73878401C1E
:10554000C0B2387004281FD13B701DE0102A1BD157
:105550002A48017869B103709FED290A2949002082
:1055600001EB8002401CC0B282ED000A0328F7D391
:105570000AE080F800A007E01A492870642301229D
:10558000891C2148FCF7F4FE154C9FED208ADFEDC5
:10559000208A94ED000AF0EE680A30EE480AFFF720
:1055A00021FBA4F10C05F0EE680A85ED000A94EDEC
:1055B000010A30EE480AFFF715FB85ED010A94ED6C
:1055C000020ADFED140A38EE400AFFF70BFB85ED07
:1055D000020ABDEC028BBDE8F09F00003C110020E8
:1055E000601100203D010020260100202D01002037
:1055F0003B0100203A010020380100202701002053
:1056000000000000DC100020B40200200000004573
:105610000080BB450000484410B540F6B8302DED81
:10562000028BFBF76DFDFDF7F1F9FAF7C3FFFAF70F
:10563000EFFF3048FBF716F82F48FBF713F801226D
:105640002E492F48FCF7C4FD01222E492E48FCF7B5
:10565000BFFD01222D492E48FCF7BAFDFBF712F8D9
:10566000FFF716F9FFF7DEFAFFF70AFD2948FCF706
:1056700061FA9FED2B8ADFED288ADFED281AB0EE64
:10568000481AB0EE682AF0EE480AB7EE000A00F0B9
:1056900025FB9FED242ADFED241AB0EE481AF0EE28
:1056A000480AB0EE000A00F08BFB9FED200A20486C
:1056B00000F050F9DFED1F0A9FED1F0A1F4800F0B0
:1056C00019FB1E48DFED1E0AB0EE680A8030FFF7B6
:1056D00017FD1C48022208490446FCF769FF2046D2
:1056E000FCF74CFFBDEC028B2046BDE81040FCF7F8
:1056F000B3BF0000440100206C0100201401002011
:10570000FC02002013010020440300203C11002073
:10571000B4020020940100200000FA440000164367
:105720000000000000803B45000038430080BB447F
:10573000AC1100200000964400009645F4110020B2
:105740000000FA4304130020A0B190ED132A80ED6D
:10575000142AD0ED121AC0ED131A80ED081AC0ED0C
:10576000090A71EE600AC0ED120A017829B1012917
:1057700052D08FE09FED490A704790ED011A21EE5B
:10578000202A80ED0B2A90ED0C1AD0ED022A02EEB1
:10579000A01A70EEE10A80ED0C1AD0ED102AC0EDCF
:1057A000112AD0ED0F2AC0ED102AC0ED0F0AD0ED5E
:1057B000031A61EEA01AC0ED0D1AD0ED060AB4EE80
:1057C000E01AF1EE10FA06DCF1EE600AB4EEE01A2F
:1057D000F1EE10FA01D2C0ED0C0AD0ED040A20EE71
:1057E000800A80ED0E0AD0ED070AB4EEE00AF1EE71
:1057F00010FA06DCF1EE600AB4EEE00AF1EE10FAFF
:1058000001D2C0ED0E0A90ED0C0AD0ED0E0A32EE78
:10581000000A30EE210A29E030EEE10A90ED011A8B
:1058200020EE010A80ED0B0A90ED021A21EE201AFB
:1058300080ED0C1AD0ED102A30EE010AC0ED112ACD
:10584000D0ED0F2AC0ED102AF0EE002A41EEE20A58
:1058500070EE820AC0ED0F0AD0ED031A61EEA00AC5
:10586000C0ED0D0A30EE200AD0ED0A0A30EE200A13
:1058700080ED0A0AD0ED050AB4EEE00AF1EE10FA66
:1058800006DCF1EE600AB4EEE00AF1EE10FA01D2A5
:10589000C0ED0A0A90ED0A0A7047000000000000FF
:1058A00070B504460146264A2648FFF7EBFA24481D
:1058B000FFF794F810EE100A2349884215DD002204
:1058C0009FED221AC1EE000A04EB8203521C93EDF5
:1058D000000AD2B2032A20EE200A83ED000AF3D395
:1058E000174A21461748FFF7CDFA154C032094EDCF
:1058F000020AFDF75BF9BDEEC00A10EE100A94ED46
:10590000010A06B20220FDF751F9BDEEC00A10EE01
:10591000100A94ED000A05B20120FDF747F9DFED0A
:105920000C0A3246294620EE200ABDE87040BDEE42
:10593000C00A002310EE100A00B2FAF717BE0000EA
:10594000E40F0020B800002000D0044600D0044638
:10595000CDCC8C3F002100EB0112491CC9B282ED75
:10596000020A0329F7D3704770B50D4800250D4C86
:105970000078A52806D0012209490B48FCF728FC2D
:10598000257070BD20780649401C20700748012210
:10599000057007480570BDE870400348FCF718BC67
:1059A0001401002010010020FC0200202C01002026
:1059B0002A010020054800785A2802D10449002015
:1059C0000870012201490348FCF702BC14010020C1
:1059D00010010020FC0200202DE9F047634C644DCB
:1059E0002DED028B207804280FD103216148FFF7A9
:1059F000E7FAFFF7F3FA9FED600A002085ED000A51
:105A000085ED010A85ED020A2070FFF73BF85B4E39
:105A100095ED000A5A4FD6ED000A4FF07E5107F17E
:105A2000800A30EE600AB0EEC00A10EE100A88421A
:105A300017DC95ED010AD6ED010A30EE600AB0EEF2
:105A4000C00A10EE100A88420BDC95ED020AD6ED72
:105A5000020A30EE600AB0EEC00A10EE100A884268
:105A600028DDDFF820810024A9469FED478A06EB58
:105A7000840508EB840095ED000AD0ED000A07EBE1
:105A8000841030EE600A20EE080AFFF749FB09EBAC
:105A9000840095ED000A641CE4B280ED000A022C3B
:105AA000E5D3D8ED020A96ED020AFEF73FFC504618
:105AB000FFF736FB3248FFF78DFB97F83C00334D7C
:105AC000334C012830D097ED070A2D4884ED000AA9
:105AD0004030FFF77FFB97F87C0001282BD097ED33
