:020000040800F2
:100000002012002029020008131B0008CF19000845
:10001000111B00083B0400081B2000080000000022
:10002000000000000000000000000000231E000887
:100030002F05000800000000211E0008251E0008F2
:10004000430200084302000843020008430200087C
:10005000430200084302000843020008430200086C
:10006000430200084302000843020008430200085C
:10007000430200084302000843020008430200084C
:10008000430200084302000843020008BD040008C0
:10009000B1040008430200084302000843020008BC
:1000A00043020008CD1E0008430200084302000876
:1000B000430200084302000843020008430200080C
:1000C00043020008430200084302000843020008FC
:1000D00043020008430200084302000843020008EC
:1000E00043020008430200084302000843020008DC
:1000F00043020008430200084302000843020008CC
:1001000043020008430200084302000843020008BB
:1001100043020008430200084302000843020008AB
:10012000430200084302000843020008430200089B
:1001300043020008430200084302000805050008C6
:10014000F9040008430200084302000843020008C3
:10015000430200084302000843020008430200086B
:10016000430200084302000843020008430200085B
:100170004302000843020008430200080000000098
:10018000430200084302000800F002F800F03CF8C7
:100190000AA090E8000C82448344AAF10107DA45E2
:1001A00001D100F031F8AFF2090EBAE80F0013F0F8
:1001B000010F18BFFB1A43F0010318475436000023
:1001C00074360000103A24BF78C878C1FAD85207B4
:1001D00024BF30C830C144BF04680C6070470000C1
:1001E0000023002400250026103A28BF78C1FBD840
:1001F000520728BF30C148BF0B6070471FB503F0DE
:1002000062FA1FBD10B510BD00F0E2F81146FFF70D
:10021000F5FF02F03BFC00F000F903B4FFF7F2FF3A
:1002200003BC00F003F90000094880470948004773
:10023000FEE7FEE7FEE7FEE7FEE7FEE7FEE7FEE796
:10024000FEE7FEE704480549054A064B70470000F3
:10025000BD1E000889010008200C0020201200208B
:10026000200E0020200E002053EA020C00F06980CE
:100270002DE9F04B4FF00006002B1FBFB3FA83F5BA
:1002800003FA05F424FA05F65E4012BF1643B2FAEB
:1002900082F502FA05F4C5F120051EBF22FA05FC1D
:1002A00044EA0C04203556EA044C4FEA144418BFC3
:1002B000641C4FF000084FF00009904271EB030CF2
:1002C00039D3002919BFB1FA81F701FA07F6B0FA5C
:1002D00080F700FA07F6C7F120071EBF20FA07FCD7
:1002E00046EA0C062037B6FBF4FCA7EB0507103FE7
:1002F00007F01F0BCBF120060CFA0BFB2CFA06F6CD
:1003000044BFB3460026202FA4BF5E464FF0000B2B
:100310005BEA060C08BF4FF0010B19EB0B09ABFBB6
:10032000027C48EB0608C01B06FB02CC0BFB03CC8F
:1003300071EB0C01C1E70B46024641464846BDE859
:10034000F08B13B54FF000004FF00001AFF30080C9
:10035000BDE81C4070474FF0000200B513469446BC
:100360009646203922BFA0E80C50A0E80C50B1F10D
:100370002001BFF4F7AF090728BFA0E80C5048BF21
:100380000CC05DF804EB890028BF40F8042B08BFBF
:10039000704748BF20F8022B11F0804F18BF00F8BB
:1003A000012B704770477047704710B500F008F890
:1003B000006810BD10B5044600F002F8046010BDDE
:1003C00000487047BC0B002000487047BC0B002061
:1003D0007546FFF7F9FFAE4605006946534620F023
:1003E0000700854618B020B5FFF72CFFBDE8204078
:1003F0004FF000064FF000074FF000084FF0000BE1
:1004000021F00701AC46ACE8C009ACE8C009ACE893
:10041000C009ACE8C0098D46704710B50446AFF37B
:1004200000802046BDE81040FFF7F7BE01491820C4
:10043000ABBEFEE7260002007047FEE738B50E4C63
:100440004FF4007525600025A560E560082525614D
:100450000A4C050A25706070080AA070E170100A45
:1004600020716271180AA071E3716B46224602493D
:10047000034800F071F838BDA402002026000020D7
:100480009400002000B58BB000200121CDE90601C9
:1004900008910090019002900390059004906946A5
:1004A000024800F0C1F80BB000BD0000940000202D
:1004B000014800F0BAB9000094000020014800F0A3
:1004C000B4B900009400002000B58BB001210020D9
:1004D000CDE9060108910E2100900991019002904A
:1004E0000591039004906946024800F09DF80BB016
:1004F00000BD0000BC000020014800F096B90000DB
:10050000BC000020014800F090B90000BC000020B1
:1005100010B5044600F0FAFB0221204600F00AF86C
:10052000002803D0BDE8104000F002B810BD7047AD
:1005300072B6FEE790F82020012A07D0022A05D0E3
:10054000416A41F48021416201207047006842699C
:100550000A43426100207047F0B590F820500468CB
:10056000A468012D05D0022D03D0416A41F48021F9
:1005700057E014F0406F01D1E5004FD5C4F301649A
:100580000125A5401D608D684FF4C0739DB1CE68F4
:1005900035434E6845EAC605066803EB0417F55176
:1005A0004FF4C275076805EB04150E697E51097D8D
:1005B000012905D009E00E88CD6845EA4655EBE7EC
:1005C00001684E5946F480764E511179D5795679A5
:1005D00041EA056195792D0445EA062529434FF442
:1005E000C676056806EB0416A9511178D57841EA5C
:1005F0000561957852782D0445EA022211434FF4A3
:10060000C475026805EB04155151006803EB041131
:10061000425842F0010242500020F0BD416A41F4CC
:10062000001141620120F0BD10B590F82020012A90
:1006300007D0022A05D0416A41F48021416201209D
:1006400010BD3B48D0F8002242F00102C0F8002261
:10065000D0F8002222F47C52C0F80022D0F8002208
:100660004B6A42EA0322C0F800220A7D02F01F030F
:1006700001229A40D0F81C329343C0F81C32CB6957
:10068000B3B9D0F80C329343C0F80C328C894B6864
:1006900064F31F434C6900EBC404C4F840320C8976
:1006A0000B6864F31F434C6900EBC404C4F8443284
:1006B000CB69012B16D1D0F80C321343C0F80C32A1
:1006C0000C884B6864F31F434C6900EBC404C4F806
:1006D00040320C89CB6864F31F434C6900EBC404BF
:1006E000C4F844328B69002BD0F804320ED0134387
:1006F000C0F804320B69002BD0F8143208D0134331
:10070000C0F81432096A012904D008E09343EFE7E6
:100710009343F5E7D0F81C121143C0F81C12D0F82F
:10072000001221F00101C0F80012002010BD0000ED
:1007300000640040704770B590F82040012C05D04F
:10074000022C03D0416A41F4802128E0046809B3F7
:100750002469A40720D04FF4D874056804EB011471
:100760002D5915F00405956005682D591AD0ED082E
:10077000556005682C5904F00204D4604FF4DA7413
:10078000056804EB01142E5906F00F06082E0CD351
:1007900008250DE0E468DCE7416A41F4001141629C
:1007A000012070BD6D0D1560E3E72D5905F00F05B3
:1007B000156105682D59C5F30725956105682C5904
:1007C000240C54614FF4DC72046802EB0112A4584B
:1007D0001C700468A458240A5C700468A458240C93
:1007E0009C700468A258120EDA704FF4DE7204682E
:1007F00002EB0112A4581C710468A458240A5C710D
:100800000468A458240C9C710468A258120EDA7172
:10081000006829B1016941F020010161002070BD2B
:10082000C16841F02001C160F8E72DE9F05F05469D
:10083000006800244669D0F804908768D0F80CB0AE
:10084000D0F810A0D0F81880F10748D0F90714D0DC
:1008500001218160B80703D5284600F084FA0CE036
:10086000780702D54FF4006407E0380702D54FF44B
:10087000805402E0284600F075FAF80516D529687C
:100880004FF480708860B80503D5284600F06DFAF3
:100890000CE0780502D544F4005407E0380502D591
:1008A00044F4804402E0284600F05EFAF80316D5CE
:1008B00029684FF480308860B80303D5284600F0DB
:1008C00056FA0CE0780302D544F4004407E03803FC
:1008D00002D544F4803402E0284600F047FA30079D
:1008E00007D55FEACB6004D52968102044F4007472
:1008F000C86070074FF0080707D55FEA0B7004D592
:100900002868C760284600F0A9F9B00706D528680E
:10091000C068800702D0284600F0A2F9700607D50B
:100920005FEACA6004D52968102044F48064086135
:10093000B00607D55FEA0A7004D528680761284623
:1009400000F0E0F9F00606D528680069800702D0BB
:10095000284600F0D8F9B00308D55FEAC96005D58C
:10096000296810204860284600F0CEF9F00307D52A
:100970005FEA097004D528684760284600F0F8F956
:10098000300446D55FEA497040D5F00504D55FEAEA
:10099000C87001D044F00104B00504D55FEA887046
:1009A00001D544F00204700504D55FEA487001D512
:1009B00044F00404300529D518F0700F26D008F053
:1009C0007000402815D006DC102809D020280AD055
:1009D000302816D10AE050280ED0602811D10EE040
:1009E00044F008040DE044F010040AE044F0200450
:1009F00007E044F0400404E044F0800401E044F4E3
:100A000080742868816921F070018161296804205F
:100A10004860002C05D0686A204368622846FFF7CA
:100A200089FEBDE8F09F70B5040003D094F8200063
:100A300010B104E0012070BD204600F081F820686C
:100A4000016841F00101016000F09EFA05460526AB
:100A500004E000F099FA401B0A2811D82068406889
:100A6000C007F6D02068016821F00201016000F0A3
:100A70008BFA05460BE000F087FA401B0A2806D9DE
:100A8000606A40F40030606284F82060D2E7206839
:100A900040688007EFD4207E0128206801683DD09F
:100AA00021F080010160607E01282068016838D053
:100AB00021F040010160A07E01282068016833D048
:100AC00021F020010160E07E0128206801682ED01D
:100AD00041F010010160207F01282068016829D0C1
:100AE00021F008010160607F01282068016824D09E
:100AF00021F004010160D4E902010843D4E90412A1
:100B0000114308436168491E08432168C8610020F9
:100B10006062012084F82000002070BD41F0800157
:100B2000C0E741F04001C5E741F02001CAE721F0EC
:100B30001001CFE741F00801D4E741F00401D9E703
:100B4000F0B587B0044614216846FFF704FC3E4B1D
:100B50003E48DFF8F0E01968D4F800C03B4A0325AE
:100B60000226092710300024491CF4452AD11960B7
:100B7000012907D1016841F000710160006800F0AF
:100B800000700590106840F0080010601068CDE912
:100B9000005600F00800CDE9047069462C48CDE904
:100BA000024500F0F9F800221146132000F05AFA2D
:100BB000132000F049FA00221146142000F052FAE6
:100BC00014203AE0DFF88CE0F44538D1D0F800C0CA
:100BD0004CF0806CC0F800C0D0F800C001290CF0C7
:100BE000806CCDF814C0196007D1016841F0007124
:100BF0000160006800F000700590106840F002008D
:100C00001060106802AB00F0020005906020CDE992
:100C1000000683E8B00069460F4800F0BDF80022E6
:100C200011463F2000F01EFA3F2000F00DFA00228E
:100C30001146402000F016FA402000F005FA07B0F7
:100C4000F0BD000000640040100000203038024079
:100C5000000C0240006800400004024070470000A1
:100C600030B5054600682349234C8BB088421CD11F
:100C700007AB6A4600212846FFF75DFD0098A0F209
:100C80000120062811D8C0B22070C0EBC0011B485B
:100C900000EB810081694A1C3229826107A902D8D0
:100CA00001F0EFFE01E001F0CBFE15492868884213
:100CB0001AD109AB6A4600212846FFF73CFD00988F
:100CC000A0F2012006280FD8C0B26070C0EBC001AE
:100CD0000A48E03000EB810081694A1C32298261B8
:100CE00009A903D801F0CDFE0BB030BD01F0A8FE7C
:100CF000FAE700000064004024000020E400002027
:100D000000680040704770477047000070B50446A7
:100D100090F82000012804D0606A40F4002060624E
:100D200018E0022084F820002068016821F0010109
:100D3000016000F029F905460EE000BF00F024F93B
:100D4000401B0A2808D9606A40F400306062052020
:100D500084F82000012070BD20684068C007EDD1F4
:100D6000606270BD7047704770477047704770474A
:100D70007047000070B5044600F006F90546601C97
:100D800002D004480078044400F0FEF8401BA04262
:100D9000FAD370BD140000202DE9F84FDFF8BCA194
:100DA0000022012503264FF00F090AF1040BAAF1D6
:100DB000040E00BF0B6805FA02F42340A34270D171
:100DC0000F7907F00307012F01D0022F16D1876892
:100DD0004FEA420806FA08FC27EA0C07D1F80CC0D3
:100DE0000CFA08FC4CEA070CC0F808C04768A74397
:100DF0000C79C4F3001494403C4344600C79E44300
:100E0000A4070AD0C4684FEA420C06FA0CF7BC43A8
:100E10008F6807FA0CF72743C7600C7904F00304C6
:100E2000022C12D1D40800EB840CDCF820405707C8
:100E3000FF0E09FA07F824EA0804D1F8108008FA2E
:100E400007F848EA0408CCF8208004684FEA420C0E
:100E500006FA0CF7BC430F7907F0030707FA0CF703
:100E6000274307604C6814F4403F70D03C4C27681F
:100E700047F480472760246822F0030704F4804485
:100E80000094384C07EB040CDCF8084897074FEA4D
:100E9000177809FA08F7BC43334FB84202D100274C
:100EA00024E054E0314FB84201D101271EE0304F19
:100EB000B84201D1022719E02E4FB84201D10327D1
:100EC00014E02D4FB84201D104270FE02B4FB84258
:100ED00001D105270AE02A4FB84201D1062705E0D3
:100EE000284FB84201D1072700E0082707FA08F782
:100EF0002743CCF80878DAF800405746D1F804C008
:100F00009C435FEACC2C00D51C433C60DBF80040DE
:100F10005F46D1F804C09C435FEA8C2C00D51C438B
:100F20003C60DEF800407746D1F804C09C435FEA9D
:100F30008C3C00D51C433C60084F083F3C68D1F80E
:100F400004C09C435FEACC3C00D51C433C60521C6F
:100F5000102AFFF42FAFBDE8F88F0000083C0140D5
:100F600044380240003001400000024000040240CA
:100F700000080240000C0240001002400014024031
:100F800000180240001C02400148806870470000C1
:100F90001400002002488168027811448160704783
:100FA000140000200B4810B5016841F40071016085
:100FB000016841F480610160016841F48071016061
:100FC000032000F06FF80F2000F006F800F024F87E
:100FD000002010BD003C024070B50D4D04464FF49A
:100FE0007A712878B1FBF0F00A490968B1FBF0F09A
:100FF00000F0ECFA48B9102C07D200222146501E0E
:1010000000F030F800206C6070BD012070BD000061
:1010100014000020200000200A4808B5016841F4AF
:1010200080410160006800F4804000900548001F86
:10103000016841F080510160006800F0805000902C
:1010400008BD000044380240002809DB00F01F0200
:10105000012191404009800000F1E020C0F800111A
:1010600070470000F0B40E4B1B680C46C3F302231C
:10107000C3F10705042D00D90425191D072901D244
:10108000002300E0DB1E012606FA05F1491E21407F
:1010900099409E40761E16403143F0BC00F0D6BF0A
:1010A0000CED00E0064900F0070208684FF6FF0368
:1010B000184040EA0220034A1043086070470000CD
:1010C0000CED00E00000FA052DE9F0470E460500A2
:1010D00065D0DFF81481D8F80000F7B200F00700FF
:1010E000B04207D288F80070D8F8000000F007007E
:1010F000B04254D128683D4C810712D5400703D532
:10110000206840F4E05020602878000703D520686C
:1011100040F4604020602068A96820F0F000084397
:1011200020602878C0072DD0304968680839012828
:1011300012D0022813D0032811D00968890700298A
:101140002DDA216821F0030101432160FFF71CFF24
:10115000814641F2883A0EE009688903EFE70968A1
:101160008901ECE7FFF710FFA0EB0901514502D917
:101170000320BDE8F0872068696800F00C00B0EB40
:10118000810FEFD1D8F80010404601F00701B142BD
:1011900007D90770006800F00700B04201D00120B5
:1011A000E7E72878400705D52068E96820F4E05093
:1011B000084320602878000706D52068296920F4B4
:1011C000604040EAC100206000F018F82168084A39
:1011D000C1F30311515CC840064908600648006825
:1011E000FFF7FAFE0020C4E7003C02400838024046
:1011F000DA3600082000002018000020154810B53D
:10120000006810F00C02144813D01449042A0FD0BF
:10121000082A0ED10F4C241F2268236802F03F02D7
:101220005B0207D52068C0F38810A0FB010106E02F
:10123000084610BD2168C1F38811A1FB00010023FD
:10124000FFF712F82168C1F30141491C4900B0FBC6
:10125000F1F010BD083802400024F400001BB70074
:101260002DE9F84F04006ED02078DFF84C93C007CA
:10127000A9F104054AD009F104000168C1F3810114
:10128000012908D00068C0F3810002280AD1D9F8EA
:101290000000400206D52868800337D56068002822
:1012A000E1D033E06068B0F5803F10D0B0F5A02FFA
:1012B000286810D020F480302860286820F480202E
:1012C00028606068A8B1FFF75FFE06460DE0286859
:1012D00040F48030F4E740F480202860F7E700BF56
:1012E000FFF752FE801B642873D828688003F7D567
:1012F0000CE0FFF749FE064605E000BFFFF744FE9D
:10130000801B6428F0D828688003F7D42078DFF8A1
:10131000AC8280074FF0000A3ED5A748001D016847
:1013200011F00C0F08D00068C0F3810002280BD127
:10133000D9F80000400207D42868800716D5E06875
:10134000012800D112E033E1E068B8B10120C8F80B
:101350000000FFF719FE064605E000BFFFF714FE88
:10136000801B0228C0D828688007F7D52868216923
:1013700020F0F80040EAC10028600DE0C8F800A0A5
:10138000FFF702FE064604E0FFF7FEFD801B022881
:101390001FD828688007F7D42078000722D5864F09
:1013A00087486169703771B101210160FFF7ECFD79
:1013B000064604E0FFF7E8FD801B022809D83868DC
:1013C0008007F7D50EE0C0F800A0FFF7DDFD064668
:1013D00005E082E0FFF7D8FD801B02287DD8386841
:1013E0008007F7D42078400768D5DFF8CCB1002714
:1013F0000BF13C0BDBF80000C0000BD4DBF8001055
:1014000041F08051CBF80010DBF80000012700F01C
:10141000805000906B4E3068C00510D4306840F4A6
:1014200080703060FFF7B0FD009005E0FFF7ACFD85
:101430000099401A022850D83068C005F6D55E4E93
:10144000A0686C3601280FD00528306810D020F035
:1014500001003060306820F004003060A068B8B14E
:10146000FFF792FD00900FE0306840F00100F4E7D4
:1014700040F004003060F7E7FFF786FD0099411A5D
:1014800041F28830814266D830688007F4D50EE09A
:10149000FFF77AFD009007E0FFF776FD0099411A0B
:1014A00041F28830814256D830688007F4D42FB199
:1014B000DBF8001021F08051CBF80010A069C8B310
:1014C0003D49091D0968C1F3810102294AD002285A
:1014D000504607D0C8F8600000E03CE0FFF754FD3C
:1014E00004463BE04746C8F86000FFF74DFD06465E
:1014F00005E000BFFFF748FD801B02282BD82868B5
:101500008001F7D4D4E907010843A16A2E4A4908AB
:1015100002EB0141626A41EA8211084394F82C10FF
:1015200040EA0161C9F8001001203866FFF72CFD80
:10153000044606E03EE000BFFFF726FD001B022840
:1015400009D828688001F7D534E000BFFFF71CFDFB
:10155000001B022802D90320BDE8F88F286880010B
:10156000F4D427E00128F7D0D9F80000E26900F4AC
:10157000800191421CD1226A00F03F01914217D1B3
:1015800047F6C071626A0140B1EB821F10D1A26AB6
:101590004FF0FF3300F4403103EB5202B1EB024F46
:1015A00006D194F82C1000F07060B0EB016F01D000
:1015B0000120D1E70020CFE7043802400000474275
:1015C000800E4742007000400000FFFF10B5401E33
:1015D000B0F1807F01D3012010BD4FF0E0246061A5
:1015E0000F21601700F032FD0020A061072020616C
:1015F000002010BD7047704770B590F83C20012A5C
:1016000032D0012480F83C40022280F83D2003685B
:101610005A689D6822F070060A6832435A60134B7C
:1016200002689A4214D0B2F1804F11D0104B9A4206
:101630000ED0104B9A420BD00F4B9A4208D00F4B52
:101640009A4205D00E4B9A4202D00E4B9A4204D1D8
:10165000496825F080031943916080F83D400021DE
:1016600080F83C10084670BD022070BD00000140AB
:101670000004004000080040000C0040000401404D
:10168000004001400018004010B5040003D094F859
:101690003D0010B107E0012010BD002084F83C009F
:1016A000204600F01FF8022084F83D00211D20682C
:1016B00000F012FC012084F8460084F83E0084F813
:1016C0003F0084F8400084F8410084F8420084F828
:1016D000430084F8440084F8450084F83D0000206D
:1016E00010BD000008B500680B49884212D10B48B4
:1016F000016841F0010101600068002200F0010072
:10170000009011461920FFF7ADFCBDE808401920F4
:10171000FFF79ABC08BD00000000014044380240B9
:1017200090F83D10012901D001207047022180F876
:101730003D100168CA6842F00102CA6000681149A0
:10174000884214D0B0F1804F11D00F4988420ED09A
:101750000E4988420BD00E49884208D00D49884274
:1017600005D00D49884202D00C49884204D18168D5
:1017700001F00701062903D0016841F00101016071
:1017800000207047000001400004004000080040B5
:10179000000C0040000401400040014000180040DF
:1017A00070B5044690F83C000025012817D00126AA
:1017B00084F83C60022084F83D002068826822F0B2
:1017C000770222F47F4282600868502838D00DDC0E
:1017D00020284FD005DC90B3102811D14AE0022018
:1017E00070BD302846D040280AD13BE060282FD079
:1017F00070280DD0B0F5805F03D0B0F5005F12D037
:10180000012584F83D60002084F83C00284670BD26
:10181000CB68D1E90121206800F0CAFB206881680B
:1018200041F0770109E0CB68D1E90121206800F09F
:10183000BFFB2068816841F480418160E1E719E0E5
:10184000CA684968206800F0C5FB5021206806E09E
:10185000CA684968206800F0CEFB6021206800F06B
:10186000B1FBCEE7CA684968206800F0B3FB4021AD
:101870002068F4E7226801461046F0E770472DE93A
:10188000F04104460068C66805694FF00007A907E3
:1018900013D5B10711D5F91E016101202077206809
:1018A00080698007204602D0FFF7E8FF04E000F0DF
:1018B0007EF8204600F07CF82777680716D5700779
:1018C00014D521686FF00400086102202077206899
:1018D000806910F4407F204602D0FFF7CFFF04E07C
:1018E00000F065F8204600F063F82777280715D543
:1018F000300713D521686FF00800086104202077B5
:101900002068C0698007204602D0FFF7B7FF04E0D7
:1019100000F04DF8204600F04BF82777E80616D582
:10192000F00614D521686FF01000086108202077B8
:101930002068C06910F4407F204602D0FFF79EFF68
:1019400004E000F034F8204600F032F82777E8078A
:1019500008D0F00706D021686FF00100086120462A
:1019600000F028F8280608D5300606D521686FF063
:10197000800008612046FFF73DFE680608D5700626
:1019800006D521686FF040000861204600F01EF87F
:10199000A8060AD5B00608D521686FF020000861B6
:1019A0002046BDE8F041FFF726BEBDE8F081704754
:1019B0007047000004480178491CC9B201705A29D7
:1019C00001D1002101707047480000207047FEE7F8
:1019D0000F4810B50D4901600321416000214FF40B
:1019E000C0228160C0E903124FF4A0024261017677
:1019F00041768176C17601774177FFF714F80028A8
:101A000003D0BDE81040FEF793BD10BD0064004058
:101A1000940000200F4810B50D490160032141607A
:101A200000214FF4C0228160C0E903124FF4A002EC
:101A30004261017641768176C17601774177FEF782
:101A4000F2FF002803D0BDE81040FEF771BD10BDC5
:101A500000680040BC000020114808B5016841F052
:101A600002010160016801F002010091016841F08A
:101A700001010160016801F001010091016841F07C
:101A800008010160016801F008010091016841F05E
:101A900080010160006800F08000009008BD000037
:101AA0003038024010B586B00024184800940194E4
:101AB0000294039404941449059401604FF4A871AE
:101AC000C0E901144CF25031C0E90314446184614F
:101AD000FFF7DAFD08B1FEF72BFD4FF480500090C0
:101AE00069460A48FFF75CFE08B1FEF721FD049441
:101AF00004A906480594FFF77FFD002801D0FEF7F2
:101B000017FD06B010BD0000000001404C00002091
:101B1000FEE7FEE7A0B1D0ED101AC0ED111A90ED6E
:101B20000F1A80ED101AC0ED060A80ED070A30EE9C
:101B3000C00A80ED0F0A017829B101293BD078E075
:101B40009FED3D0A7047D0ED010A60EE801AC0EDAE
:101B5000091AD0ED0A0A90ED022A42EE000A30EE90
:101B6000410AC0ED0A0A90ED0D2A80ED0E2A90ED93
:101B70000C2A80ED0D2A80ED0C0A90ED031A21EE5F
:101B8000001A80ED0B1A90ED050AF4EEC00AF1EE92
:101B900010FA09DCB1EE400AF4EEC00AF1EE10FAD8
:101BA00002D390ED0A0A01E080ED0A0A31EE800AC4
:101BB00030EE010A2BE070EE410A90ED012A20EE92
:101BC000822A80ED092AD0ED020A60EE800AC0ED7B
:101BD0000A0AD0ED0D2A72EE200AC0ED0E2AD0EDD1
:101BE0000C2AC0ED0D2AF0EE002A01EE620A30EE5A
:101BF000210A80ED0C0A90ED031A21EE000A80ED17
:101C00000B0A30EE800AD0ED080A30EE200A80ED93
:101C1000080AD0ED040AB4EEE00AF1EE10FA06DC90
:101C2000F1EE600AB4EEE00AF1EE10FA01D2C0ED76
:101C3000080A90ED080A7047000000002DE9F047FF
:101C40003D4E00242DED068B06F5107706F59069C4
:101C500006F5D8689FED37AA9FED388ADFED388A00
:101C60009FED389ADFED389A04EBC40506EBC5000A
:101C7000F0EE480AB0EE680A344A002100F068F835
:101C8000324A07EBC500F0EE490AB0EE4A0A0C32C0
:101C9000002100F05DF809EBC500F0EE480AB0EE57
:101CA000680A2A4A002100F053F8284A08EBC500C8
:101CB000F0EE490AB0EE690A0C32002100F048F853
:101CC000641C042CD0DBB24604244E4604EBC4054D
:101CD0000AEBC500F0EE480AB0EE680A1B4A002184
:101CE00000F036F8194A07EBC500F0EE490AB0EEED
:101CF000680A0C32002100F02BF806EBC500F0EE6C
:101D0000480AB0EE680A114A002100F021F80F4A93
:101D100008EBC500F0EE490AB0EE690A0C3200216A
:101D200000F016F8641C082CD0DBBDEC068BBDE877
:101D3000F087000000803B45BC0200200080BB45CE
:101D400000401C46000096430000C84330000020BD
:101D5000002828D0002A26D0017092ED001A80EDCC
:101D6000011A92ED011A80ED021A92ED021A80ED2D
:101D7000031A80ED040A9FED0C0AC0ED050A80ED00
:101D80000E0A80ED0D0A80ED0C0A80ED080A80ED48
:101D90000B0A80ED0A0A80ED090A80ED110A80ED38
:101DA000100A80ED0F0A7047000000000B4AC0EBDC
:101DB000C00110B502EB8101F0EE400A11ED040AFA
:101DC00000EBC0010648B8EEC00A00EBC104A4F164
:101DD0004800FFF79FFE14ED0A0A10BDE400002042
:101DE000FC0400200C4AC0EBC00110B502EB8101DD
:101DF000F0EE400A31F91A1C00EE101A00EBC00197
:101E00000648B8EEC00A00EBC104A4F14800FFF791
:101E100081FE14ED0A0A10BDE4000020BC0200207F
:101E200070477047FFF7B6B830B593B030216846B9
:101E3000FEF791FA14210CA8FEF78DFA1D48002533
:101E4000016841F080510160006800F080501190FD
:101E50001948016841F4804101600068022400F4DF
:101E60008040119001200090000401908001CDE994
:101E7000064006200890A820CDE9090404200B9014
:101E80006846FFF7EDF908B172B6FEE70CA90F201E
:101E900081E831004FF4A0500F904FF48050109023
:101EA00005210CA8FFF710F9002801D072B6FEE753
:101EB00013B030BD40380240007000400248016855
:101EC00041F470010160704788ED00E00148FFF7C0
:101ED000D6BC00004C000020F0B50268294C2A4D09
:101EE0002A4E2B4F2B4B4FF0804CA04209D060451F
:101EF00007D0A84205D0B04203D0B84201D09842E2
:101F000004D122F0700E4A6842EA0E02A0421BD0B1
:101F1000604519D0A84217D0B04215D0B84213D0AE
:101F2000984211D01C4DA8420ED01C4DA8420BD097
:101F30001B4DA84208D01B4DA84205D01A4DA842FF
:101F400002D01A4DA84203D122F44075CA682A4330
:101F50004D6922F080022A4302608A68C2620A68E0
:101F60008262A04201D0984201D109690163012136
:101F700041610169C90703D0016921F001010161D3
:101F8000F0BD0000000001400004004000080040D7
:101F9000000C0040000401400040014000440140AA
:101FA0000048014000180040001C00400020004094
:101FB00010B5846842EA032224F47F440A43224392
:101FC000826010BD826822F070020A4342F007016D
:101FD0008160704710B5036A046A24F0010404624A
:101FE000846924F0F00444EA021423F00A020A434C
:101FF0008461026210BD10B5036A046A24F0100403
:102000000462846923F0A00324F4704444EA023299
:1020100043EA01118261016210BDFEE703B4019839
:102020004100009850EAC12018BF04204A0D18BF93
:1020300040F0010040F2FF72B2EB515F08BF40F088
:102040000200012808BF052002B070470907090EE9
:10205000002804DB00F1E02080F80014704700F055
:102060000F0000F1E02080F8141D70470000000010
:1020700010B52F499FED2C1B2DED020B84B0059858
:1020800020F000408842D8BF9DED040B2DDD29498A
:10209000884209D1049840B94FF00100FEF78AF94F
:1020A00000F0A2FC06B010BD05DB9DED040B00F0B6
:1020B0008FFC06B010BD68469DED040B00F0A0F843
:1020C00010F0030004BF9DED021B9DED000B0CD032
:1020D00001280ED09DED021B9DED000B022817D0AC
:1020E000012000F0DDFB06B010BD00F0A5FA06B03F
:1020F00010BD9DED021B9DED000B012000F0D0FBFB
:1021000051EC100B00F0E2FD06B041EC100B10BDDD
:1021100000F092FA51EC100B00F0D8FD06B041EC43
:10212000100B10BD000000000000000000000000C7
:10213000FB21E93F0000F07F10B52F499FED2C1BDC
:102140002DED020B84B0059820F000408842DCBFE2
:1021500000209DED040B32DD2849884209D1049806
:1021600040B94FF00100FEF725F900F03DFC06B044
:1021700010BD05DB9DED040B00F02AFC06B010BD80
:1021800068469DED040B00F03BF810F0030011D001
:10219000012818D09DED021B9DED000B02281AD0DE
:1021A00000F04AFA51EC100B00F090FD06B041EC43
:1021B000100B10BD9DED021B9DED000B012000F0EA
:1021C0006FFB06B010BD9DED021B9DED000B00F0F6
:1021D00033FA06B010BD012000F062FB51EC100B89
:1021E00000F074FD06B041EC100B10BD00000000C3
:1021F0000000000000000000FB21E93F0000F07F2C
:102200002DE9F14F04462DED020B2DED088B8AB020
:102210009FEDE70B80ED020B139EE74826F000458B
:1022200085420ADC9DED120B002084ED000B0AB004
:10223000BDEC088B03B0BDE8F08FE0489FEDE0AB4C
:102240009FEDE1BBA84247DDE14F9FEDE39B9FED92
:10225000E48B9DED120B53EC1A2B51EC100B002E5E
:102260001CDD01F0D5F841EC100BBD4208D053EC59
:102270001B2B51EC100B01F0CBF8C4E900010BE073
:1022800053EC192B51EC100B01F0C2F853EC182B46
:1022900001F0BEF8C4E900010120C8E700F054FDD8
:1022A00041EC100BBD4208D053EC1B2B51EC100B32
:1022B00000F04AFDC4E900010BE053EC192B51EC8E
:1022C000100B00F041FD53EC182B00F03DFDC4E96C
:1022D00000014FF0FF30AAE7C348A84279DB9DED2B
:1022E000120B51EC100B00F09FFB41EC180B9FED13
:1022F000C00B53EC102B00F081FF9FEDBF1B53EC84
:10230000112B00F021FD00F01FFF074600F04BFFEE
:1023100041EC190B53EC1A2B00F070FF53EC182B07
:1023200001F06AF841EC180B53EC1B2B51EC190B24
:1023300000F064FFDFF8C8A241EC100B4FEA15581B
:102340000125FA4453EC102B51EC180B01F060F806
:10235000032DC4E900013DD0C1F30A5005EB45113E
:10236000A8EB00001139814234DA0AEB051BB0EE0C
:1023700048AA9BED000BF0EE68AA53EC102B51EC31
:10238000190B00F03BFF41EC1B0B51EC1A0B53EC0B
:102390001B2B01F03DF841EC180B51EC1A0B53ECE0
:1023A000182B01F035F853EC1B2B01F031F89BEDA5
:1023B000020B41EC1A0B53EC102B51EC190B00F0F3
:1023C0001DFF53EC1A2B01F023F841EC100B6D1C90
:1023D000B8E70EE0002EA8BF3846BFF628AF94ED50
:1023E000000B51EC100B00F071FCC4E900017842C5
:1023F0001DE7C6F3130040F4801EC6F30A50A0F296
:10240000F530471100F01F05C5F12000DDF848B098
:1024100008900020069007900520EC467949002D91
:1024200007EB0002794408BF51F8221009D051F897
:10243000223001EB8201AB404A68089922FA01F18F
:102440001943A1FB0E26A1FB0B131A449A4234BF79
:102450000123002303EB06080CEB8003D3E901A65C
:102460000E448E4234BF0121002192448A4411B1AE
:10247000924502D903E0924501D2012100E00021FA
:10248000C3E901A641444CF82010011EA0F101004F
:10249000C4DC029800F10050850F0298DDE9036763
:1024A0008000DDF8148000F07EFE41EC1A0B30460F
:1024B00000F090FE9FED541B53EC112B00F09EFE9C
:1024C00041EC1B0B384600F085FE9FED511B53EC91
:1024D000112B00F093FE41EC180B404600F07AFE01
:1024E0009FED4D1B53EC112B00F088FE41EC190BB6
:1024F00051EC180B53EC192B00F026FC53EC1B2B62
:1025000000F022FC53EC1A2B00F01EFCCDE9080170
:10251000002008909DED080B53EC1A2B51EC100B8A
:1025200000F076FF53EC1B2B00F072FF53EC182BDE
:1025300000F06EFF53EC192B00F05EFF9FED381B8F
:1025400053EC112B00F05AFE9FED370B41EC180BAA
:1025500053EC102B9DED080B51EC100B00F04EFED0
:1025600053EC182B00F0F0FB9FED310B41EC180BF6
:1025700053EC102B9DED080B51EC100B00F03EFEC0
:1025800053EC182B00F0E0FB41EC100B139810F00B
:10259000004F06D06D4251EC100B00F097FB41EC60
:1025A000100B284684ED000B41E6000000000000FF
:1025B0000000000000000000FB21E93F7CD9024040
:1025C00000004054FB21F93F3163621A61B4D03DF1
:1025D000FB21F93F000000000000601A61B4D03D0B
:1025E0007370032E8A19A33BFB21394100000000C0
:1025F00083C8C96D305FE43F000000000000E03F89
:10260000DA13000028130000000000000000103E54
:10261000000000000000103C000000000000103A24
:10262000182D4454FB21F93D3326A611460B113CCD
:1026300000000054FB21F93D10B52DED040B2DEDEC
:10264000088B82B0B0EE419AF0EE619A0B9820F0C0
:1026500000449FED4BABB4F1795F11DA9DED0A0BAD
:1026600051EC100B00F070FD002801BFB0EE4A0ADB
:10267000F0EE6A0A02B0BDEC088B04BF04B010BDD6
:102680009DED0A0B53EC102B51EC100B00F0B6FD36
:1026900041EC180B3C480621B0EE480AF0EE680AFF
:1026A000784400F081F853EC182B51EC100B00F03B
:1026B000A5FD9DED0A0B41EC1B0B53EC192B51ECC6
:1026C000100B00F09BFD41EC190B53EC1B2B51EC54
:1026D000180B00F093FD53EC192B00F099FE9FEDC1
:1026E0002C0B41EC190B53EC102B51EC180B00F098
:1026F00085FD41EC100B2848844210DA53EC192B6D
:1027000051EC100B00F084FE53EC1A2B00F074FE19
:1027100041EC100B02B0BDEC088B04B010BD1F489B
:10272000A042BCBF9FED1E1B8DED001B06DBA4F578
:1027300000100190002000909DED001B51EC100B4B
:1027400053EC112B00F064FE9DED000B41EC180BD7
:1027500053EC102B51EC1A0B00F05AFE41EC1A0B03
:1027600053EC192B51EC180B00F052FE53EC1A2BC2
:1027700000F042FE41EC100BCCE70000000000002E
:10278000000000000000F03F4C10000000000000BE
:10279000000000000000E03F3333D33F0000E93F7A
:1027A000000000000000D23F70B504462DED028B02
:1027B0004D1E00EBC500B0EE408AF0EE608A90ED51
:1027C000000B35F0060017D053EC182B51EC100B12
:1027D00000F014FD41EC100B6D1E04EBC50090EDF4
:1027E000001B51EC100B53EC112B00F0ADFA41EC37
:1027F000100B35F00600E7D1022D36D0042D1CD089
:10280000062D1CBFBDEC028B70BD53EC182B51EC98
:10281000100B00F0F3FC94ED0A1B53EC112B00F0AD
:1028200093FA53EC182B00F0E9FC94ED081B53ECE1
:10283000112B00F089FA41EC100B53EC182B51ECE2
:10284000100B00F0DBFC94ED061B53EC112B00F099
:102850007BFA53EC182B00F0D1FC94ED040B53ECF5
:10286000102B00F071FA41EC100B53EC182B51ECCB
:10287000100B00F0C3FC94ED021B53EC112B00F085
:1028800063FA53EC182B00F0B9FC94ED001B53ECE9
:10289000112B00F059FABDEC028B41EC100B70BD0E
:1028A00031B504462DED040B2DED0A8BB0EE41BA87
:1028B000F0EE61BA0B989DED0A0B20F00040B0F1EC
:1028C000795F0DDA51EC100BFFF7A8FB042808BF65
:1028D00000F09AF89DED0A0BBDEC0A8B05B030BDF7
:1028E00053EC102B51EC100B00F088FC41EC180B52
:1028F0009DED0A0B53EC182B51EC100B00F07EFCF5
:1029000041EC190B2C48B0EE480AF0EE680A05219C
:102910007844FFF749FF9FED2ACBB0EE40AAF0EED6
:1029200060AA9CB353EC1C2B51EC190B00F066FC15
:1029300041EC1C0B53EC1A2B51EC190B00F05EFC14
:102940009FED210B41EC190B53EC102B51EC1B0BA1
:1029500000F054FC53EC192B00F05AFD53EC182BEB
:1029600000F04CFC53EC1B2B00F052FD53EC1C2BE5
:1029700000F04EFD9DED0A1B53EC112B00F03CFDC9
:10298000BDEC0A8B05B041EC100B30BDFFE753ECFA
:102990001A2B51EC180B00F031FC53EC1C2B00F0FF
:1029A000D3F953EC192B00F029FC9DED0A1B53ECD5
:1029B000112B00F0C9F9E3E7D40E0000000000007D
:1029C000495555555555C5BF000000000000E03F72
:1029D00010B553EC102B51EC100B00F0B5F941EC95
:1029E000100B10BD000000009FED050B10B553EC5F
:1029F000102B51EC100B00F04FFA41EC100B10BDF6
:102A000000000000000000009FED050B10B553EC26
:102A1000102B51EC100B00F0F1FB41EC100B10BD32
:102A2000000000000000001082B0CDE9000121F09C
:102A3000004001909DED000B02B051EC100B70476F
:102A400010B5B0F9003003810A8852BA02804C8870
:102A5000D31A64BA44808C88B3F5805F64BA8480EA
:102A600089798171016901DD491E03E013F5805FF9
:102A700001DA491C016102EB4131828A891AC16085
:102A800010BD098849BA0180818270472DED068BFF
:102A9000FEF788FAFFF7C8F9FEF7DEFFFEF798FFAA
:102AA000FEF7B8FFFEF7FEFFFFF7C8F8FDF7EAFCF8
:102AB000FDF70AFD2A48FDF72BFD2A48FDF728FD02
:102AC0002948FEF72DFEDFED299A9FED29AA294C12
:102AD0009FED298ADFED298A9FED299AF0EE690A98
:102AE000B0EE4A0A00F058F894ED030A032020EEF5
:102AF000080A60EE280A80EE890A00F043F8BDEE6D
:102B0000C00A10EE100A94ED020A06B220EE080A7E
:102B1000022060EE280A80EE890A00F033F8BDEE4C
:102B2000C00A10EE100A94ED010A05B220EE080A60
:102B3000012060EE280A80EE890A00F023F8BDEE3D
:102B4000C00A0023324610EE100A294600B2FDF7F3
:102B500075FC0120FEF70EF90120FEF70BF9BDE729
:102B600094000020BC0000204C0000200000000069
:102B700000007A440000002000F8FF450070604526
:102B800000003B4310B50446FFF710F92046BDE8AE
:102B90001040FFF727B9000010B5494C2DED0A8B06
:102BA000B0EE408AF0EE608A94ED000A10EE100A52
:102BB000C8EE000AC4ED010A00F014FD41EC190B47
:102BC0009FED40CBB0EE4C0AF0EE6C0AFFF7B4FA82
:102BD000B0EE40AAF0EE60AA18EE900A00F002FDF6
:102BE00053EC1A2B00F00AFB53EC192B00F054F9AC
:102BF00041EC1B0B206800F0F5FC41EC1A0BB0EE29
:102C00004C0AF0EE6C0AFFF733FAB1EE488AB0EEE8
:102C1000409AF0EE609A18EE100A00F0E3FC53ECD4
:102C2000192B00F0EBFA53EC1A2B00F035F953ECAA
:102C30001B2B00F0EDFB00F055F8A060206800F0C1
:102C4000D1FC41EC190BB0EE4C0AF0EE6C0AFFF728
:102C500073FAB0EE40AAF0EE60AA18EE900A00F007
:102C6000C1FC53EC1A2B00F0C9FA53EC192B00F0FD
:102C700013F941EC1A0B206800F0B4FC41EC190B7D
:102C8000B0EE4C0AF0EE6C0AFFF7F2F9B0EE40BA83
:102C9000F0EE60BA18EE100A00F0A4FC53EC1B2B07
:102CA00000F0ACFA53EC192B00F0F6F853EC1A2BA9
:102CB00000F04AF800F016F8E060BDEC0A8B10BD99
:102CC0000000002087E5613352C1F03F81F00041F0
:102CD000704780F00040704721F00041704720F0BD
:102CE0000040704721F00042A2F16052B2F5801F0F
:102CF00001F0004328BFD2F17F6C0BD95FEA001CC2
:102D000043EAC20242EB507018BF704728BF20F060
:102D100001007047B2F5801FBCBF184670474FEAEC
:102D2000410C1CF5001F02D2084600F0D1BC70B562
:102D300000F00EFB00000089FFF7F6BF4FF00040E7
:102D4000A0F580007047000010B591EA030F48BF5E
:102D500083F0004300F16483841A71EB030C05D205
:102D6000121943EB0C03001B61EB0C01DFF824E1AB
:102D70004FEA1154A4EB135C1EEA430F18BF9EEAFE
:102D8000445F73D023EA0E03DCF1200E21EA0451E4
:102D900043F4801332D322FA0CFE10EB0E0023FA18
:102DA0000CFE41EB0E01CCF1200E03FA0EFE10EBEF
:102DB0000E0051F10001B1F5801FCCF1200E32D28E
:102DC00001EB045112FA0EF2BDE8104058BF7047F3
:102DD000401C38BF5FEA420218BF7047002814BF8A
:102DE00020F0010041F100014FEA410313F5001FFB
:102DF00038BF7047A1F1C04100F0F8BA012A43EB97
:102E00000302ACF1200CDCF11F0E32BF4FF0000EBC
:102E100023FA0CF310EB030041EB0451B4EB115F08
:102E2000D0D0A1EB045101F5801149085FEA3000D0
:102E300001EB04510ED350F1000038BF12FA0EFE20
:102E400008D1BDE81040C9E7401C38BF5FEA420224
:102E5000CAD1C3E7BDE810404FEA410313F5001F94
:102E600038BF7047A1F1C04100F0C0BA9EEA445F8C
:102E700008D011EA5E0FBDE8104004BF01F0004128
:102E800000207047BDE8104070B500F061FA00BF47
:102E900064FBBE3E0000E0FF2DE9C04130B4DFF826
:102EA000A0C23CEA111418BF3CEA131400F0EC80F5
:102EB00081EA03051CEA111444EAD57418BF1CEA20
:102EC000131500F0C780A4EB05044FF0004545EA58
:102ED000C12145EAC32341EA505143EA525304F168
:102EE0007F74994204F500344FEAC0204FEAC222B1
:102EF00008BF904200F09C804FEA13650FF2401625
:102F0000765D4FEA134506FB05F7C7F1807706FBB0
:102F100007F74FEAD737A7FB03687642C8F5803832
:102F2000A7FB06CE38BFA8F1010807FB08E64FF063
:102F3000000EA6FB028CE6FB03CEDCF1000CCEF10A
:102F4000004E38BFAEF1010EA6FB0C584FF0000743
:102F50004FF00005E6FB0E87A1FB08C6A0FB07CEDD
:102F600016EB0E0645F10005E1FB076515F1E04E95
:102F70007EBFA4F580345FEA46066D4116F18007F6
:102F800045F100054FEA17274FEA066647EA05674D
:102F9000A6F1DE46B6F1805F4FEA15251FD9384607
:102FA00024F0010C05EBC471BCF1FE6F01EB0C11B8
:102FB00002D8F0BCBDE8008124425CBF01F5801E50
:102FC0009EEAC47F02D4F0BCBDE80081244238D41C
:102FD000F0BCA1F1C041BDE8004100F007BA4FEAE2
:102FE000D22242EA43524FEAD323A7FB02864FEA9A
:102FF000D02040EA415007FB03661EEA0E0F4FEA5D
:10300000D12105FB026658BFA6EB0056B6EB005671
:103010004FEA520E4EEAC37E18EB0E0E56EB530EDD
:10302000BDD518EB02085E417F1C55F10005B6E7DF
:103030004FF480154FF000074FF000064FF00008E6
:10304000ADE7F0BC4FF0000001F1C04101F00041DC
:10305000BDE8008111EA0C1F0CEA131500D00CE04A
:1030600013EA0C1F00F025804FF00000F0BC81EA4D
:10307000030101F00041BDE80081F0BCBDE8004162
:1030800081EA030100F0B2B9F0BCBDE8004170B5BF
:1030900000F05EF9097EFC3E00F007B881EA03010A
:1030A0004FF0000001F00041704781EA030100F099
:1030B0009DB9F0BCBDE800414FF0000021497047C8
:1030C000FFFDFBF9F7F5F4F2F0EEEDEBE9E8E6E4ED
:1030D000E3E1E0DEDDDBDAD8D7D5D4D3D1D0CFCD74
:1030E000CCCBCAC8C7C6C5C4C2C1C0BFBEBDBCBBAD
:1030F000BAB9B8B7B6B5B4B3B2B1B0AFAEADACABA8
:10310000AAA9A8A8A7A6A5A4A3A3A2A1A09F9F9E81
:103110009D9C9C9B9A999998979796959594939333
:10312000929191908F8F8E8E8D8C8C8B8B8A8989CA
:10313000888887878685858484838382828181804D
:103140000000FF070000F87F4FEA41034FEA5353A6
:10315000A3F58063D3F11E03C8BFD3F1210C0CDDAE
:103160004FF0004242EAC12242EA505232FA03FCD6
:103170008CEAE17CACEBE1707047102BC4BF0020FF
:10318000704703F5787CBCF1FF3F04D06FF000423C
:1031900082EA2100704770B500F0DAF84992248085
:1031A00000207047F2E710F0004248BF4042B0FAFA
:1031B00080F310FA03F10AD0C3F11D0303F5806315
:1031C0004FEA415002EB035202EBD12170474FF01E
:1031D00000007047B0FA80F310FA03F10AD0C3F18F
:1031E0001D0303F580634FEA41504FEA035202EB9F
:1031F000D12170474FF0000070470000DFF848C150
:1032000070B51CEA111E1EBF1CEA13159EEA0C0FB6
:1032100095EA0C0F00F06F8081EA030423EA4C1357
:103220004EEAD47E21EA4C1141F4801143F480131C
:10323000AE44A1FB024CA0FB0365AEF17F7E3619C4
:1032400055EB0C05A1FB034C4CF10003A0FB021C49
:1032500016EB0C06654153F10003094218BF46F016
:10326000010613F4007F0BD14FEA03314FEA05301A
:10327000340341EA155140EA16506FF003020AE0A8
:103280004FEAC3214FEAC520F40241EA555140EA12
:1032900056506FF0020202EB2E4201EB025585EA16
:1032A000CE710AD05FEA440C18BF24F0004450F1FC
:1032B000000041F1000120EAD47040F2FE7C62453A
:1032C00000D270BDA84214BF4FF080444FF040447C
:1032D000002E08BF0024BEF1806FA8BFA1F1C0413D
:1032E000BDE8704080F282804FF0000001F1C041E3
:1032F00001F0004170479EEA0C0F0CEA131518BF4D
:1033000095EA0C0F06D04FF0000081EA030E0EF094
:10331000004170BD00F01CF88900013E00F007B8C4
:1033200000F009B84FEA430C5FEA5C5C08D081EA20
:10333000030100F05BB84FEA410C5FEA5C5CF6D138
:103340004FF00000014970470000FF070000F87FC0
:103350000EF1020E2EF0030E5EF8046B364205D419
:10336000012A43EB030515F5001F12D8012841EB94
:10337000010C1CF5001F0CD80ED14FEAD17C15F5BD
:10338000001F0CEB4C0C0CF1020C08BF4CEBD37C77
:1033900004E04FF0080C01E04FEAD37C0CEB4C0545
:1033A00026FA05F606F00706B6F1040C06D20EEB77
:1033B000860CBDE870404CF0010C6047DFE80CF073
:1033C000090B02024FF000414FF00000A1F500216F
:1033D00070BD19461046012851EB010418BFD4F501
:1033E000001484BF002001F0004170BD0808A0F562
:1033F00000114FEA3101704791EA030F10B581F0D7
:1034000000413FF5A9AC83F0004300F009B800008B
:1034100010B591EA030F48BF83F000433FF59CAC21
:10342000841A71EB030C07D212198CF0004C43EB99
:103430000C03001B61EB0C01DFF8A4E14FEA11540F
:10344000A4EB135C1EEA430F18BF9EEA445F00F032
:10345000B08023EA6E03524221EA0451C3EB6E03AB
:1034600038BF5B1EDCF1200E25D322FA0CFE10EBD8
:103470000E0043FA0CFE41EB0E01CCF1200E03FAD4
:103480000EFE10EB0E0051F10001CCF1200E29D4FC
:1034900012FA0EF201EB0451BDE8104058BF70471C
:1034A000401C1CBFB2F1004F704700280CBF491CE4
:1034B00020F00100704712EB020E43EB030218BF2D
:1034C0004FF0010E4EEA4202ACF1200CDCF11E0E70
:1034D00054D943FA0CFE10EB0E0051F1FF31CCF140
:1034E0001E0ED5D50EF1010E12FA0EFE404141EB33
:1034F000010101EB445C5FEA5C5C10D910EBDE700B
:1035000001EB045138BFBEF1004FBDE8104018BFB9
:10351000704700280CBF491C20F00100704730D2D2
:103520004FEAD42C11F5001124F400641BD0B1FA39
:1035300081F20B3AA41AA41ED2F12003914030FA72
:1035400003F31943904001EBCC71002C01EB0451C3
:10355000BDE81040A8BF704701F1C0414FF0000026
:1035600001F000417047B0FA80F310FA03F100D186
:1035700010BDE41A173C4805C90AE4E701EB045101
:1035800010BD491001EB0451BDE810404FEA300076
:1035900002E04FF0000170474A0008BF0042F8D037
:1035A000B2F5001F28BF704701F000414FF0000046
:1035B00070479EEA445F07D011EA5E0FBDE81040F5
:1035C00004BF002100207047BDE8104070B5FFF730
:1035D000BFFE00BF40DFF63E83F00041104670475B
:1035E0000000E0FF43004FEAD30C4FEA3C0C43409D
:1035F0001FBF40070CF1605113F0FE4F70471CF0E5
:10360000006F03D100200CF0004170470CF0004324
:1036100043EA507010B540EACC0000F00EF800BF4D
:10362000000000924FEA0001FFF7E0BE4FF00041BA
:103630004FF00000A1F5002170470EF1020E2EF0B0
:10364000030E5EF8044B244204D44FEA4102B2F167
:103650007F4F11D84FEA4003B3F17F4F0CD80ED102
:103660004FEAD07CB2F17F4F0CEB4C0C0CF1020C0A
:1036700008BF4CEBD17C04E04FF0080C01E04FEAAE
:10368000D17C0CEB4C0324FA03F404F00704B4F1EE
:10369000040C06D20EEB840CBDE810404CF0010C7B
:1036A0006047DFE80CF0070802024FF00040A0F589
:1036B000800010BD0846420018BFD2F1807288BF5A
:1036C00000F0004010BD4FF04070E1EE100A70476E
:1036D000FF2141EAD050C005704700000000000003
:1036E00000000102030406070809000000000000B2
:1036F0004C5555555555A53F7751C1166CC156BF10
:103700009015CB19A001FA3EAD529C804F7E92BE1F
:10371000C4B1B4BD9EEE213ED43888BEE9FAA8BD3E
:1037200000004054FB21F93F3163621A61B4D03D7F
:103730000000601A61B4D03D7370032E8A19A33B58
:103740000000002E8A19A33BC14920259A837B39AA
:1037500000000000000000006E83F9A22915444E0D
:10376000D15727FCC0DD34F5999562DB4190433C8D
:10377000AB6351FE61C5BBDE3A6E24B7E0D24D4269
:10378000EA2E49061C92D1091CEB1DFE3EA729B169
:10379000F53582E88444BB2E26709CE9417E5FB4F7
:1037A00039D69139F43953838B5F849C3B28F9BD1A
:1037B000FF97F81F0F9805DE8B112FEF1F6D0A5A28
:1037C000CF7E366DB709CB27663F464F2DEA5F9E09
:1037D000C7BA27757BF1E5EBF739073DEA92528AC4
:1037E000B15FFB6B085D8D1FA6F810111111813FB1
:1037F000D561C119A0012ABF7DFEB157E31DC73EA7
:10380000EB9C2B8AE6E55ABE7CD5CF5A3AD9E53DEA
:1038100030380008000000204C000000C4010008FF
:103820007C3800084C000020D4110000E0010008A2
:10383000DD7E3C43000000000000000000000000AE
:103840000000000001000000100000000000000067
:103850000024F40000000000000000000000000050
:1038600000002041CDCCCC3D00000000CDCC4C3F31
:0C3870000000000000000000000000004C
:040000050800018965
:00000001FF
